:020000040800F2
:1000000000000120C5610008DD5B0008E55B000819
:10001000E75B0008E95B0008EB5B000800000000FC
:10002000000000000000000000000000ED5B000880
:10003000EF5B000800000000F15B0008F35B0008C4
:1000400015620008156200081562000815620008B4
:1000500015620008156200081562000815620008A4
:10006000156200081562000815620008FD5B0008B3
:100070001562000815620008156200081562000884
:1000800015620008156200081562000800000000F3
:1000900000000000000000000000000015620008E1
:1000A000156200080D5C0008156200081562000862
:1000B00015620008255C000815620008156200083A
:1000C0001562000815620008156200081562000834
:1000D00015620008156200081562000800000000A3
:1000E00015620008355C0008156200080000000079
:1000F000000000000000000000000000455C000857
:100100000000000015620008156200081562000872
:1001100000000000000000000000000000000000DF
:10012000555C000815620008655C0008755C0008F5
:10013000855C0008000000000000000000000000D6
:10014000000000000000000000000000955C0008B6
:100150001562000815620008A55C00081562000819
:100160001562000815620008000000000000000091
:10017000000000000000000000000000000000007F
:1001800000000000156200080000000000000000F0
:0401900015620008EC
:10019400844641EA000313F003036DD1403A41D38E
:1001A40051F8043B40F8043B51F8043B40F8043B4D
:1001B40051F8043B40F8043B51F8043B40F8043B3D
:1001C40051F8043B40F8043B51F8043B40F8043B2D
:1001D40051F8043B40F8043B51F8043B40F8043B1D
:1001E40051F8043B40F8043B51F8043B40F8043B0D
:1001F40051F8043B40F8043B51F8043B40F8043BFD
:1002040051F8043B40F8043B51F8043B40F8043BEC
:1002140051F8043B40F8043B51F8043B40F8043BDC
:10022400403ABDD2303211D351F8043B40F8043B7C
:1002340051F8043B40F8043B51F8043B40F8043BBC
:1002440051F8043B40F8043B103AEDD20C3205D38C
:1002540051F8043B40F8043B043AF9D2043208D084
:10026400D2071CBF11F8013B00F8013B01D30B88F6
:1002740003806046704700BF082A13D38B078DD0D4
:1002840010F003038AD0C3F10403D21ADB071CBFA6
:1002940011F8013B00F8013B80D331F8023B20F810
:1002A400023B7BE7043AD9D3013A11F8013B00F849
:1002B400013BF9D20B7803704B7843708B788370D1
:1002C4006046704753B94AB9002908BF00281CBFCB
:1002D4004FF0FF314FF0FF3000F0E2B8ADF1080C01
:1002E4006DE904CE06F07CF8DDF804E0DDE90223D4
:1002F40004B0704700F1340191E838009C46A646EA
:100304004CF8045D90E8FF0FE54600BD90EC210B2E
:10031400704700BF80EC210B704700BF90EC200BAE
:10032400704700BF80EC200B704700BFD0EC200B5F
:10033400704700BFC0EC200B704700BFF0EC020117
:10034400F0EC0211F0EC0221F0EC0231F0EC02418D
:10035400F0EC0251F0EC0261F0EC0271F0EC02817D
:10036400F0EC0291F0EC02A1F0EC02B1F0EC02C16D
:10037400F0EC02D1F0EC02E1F0EC02F1704700BFC6
:10038400E0EC0201E0EC0211E0EC0221E0EC0231CD
:10039400E0EC0241E0EC0251E0EC0261E0EC0271BD
:1003A400E0EC0281E0EC0291E0EC02A1E0EC02B1AD
:1003B400E0EC02C1E0EC02D1E0EC02E1E0EC02F19D
:1003C400704700BFB0FC0181B0FC0191B0FC01A1F9
:1003D400B0FC01B1704700BFA0FC0181A0FC0191F9
:1003E400A0FC01A1A0FC01B1704700BFEC4600B520
:1003F4002DE900502DE9FF1F4FF000032DE90C00FB
:1004040001A906F0A7FADDF840E012B0704700BF7A
:10041400EC4600B52DE900502DE9FF1F4FF0000315
:100424002DE90C0001A906F0D1FADDF840E012B084
:10043400704700BFEC4600B52DE900502DE9FF1FC1
:100444004FF000032DE90C0001A906F0E1FADDF8F4
:1004540040E012B0704700BFEC4600B52DE90050F3
:100464002DE9FF1F4FF000032DE90C0001AB06F04E
:10047400A5FADDF840E012B0704700BFEC4600B5C5
:100484002DE900502DE9FF1F4FF000032DE90C006A
:1004940001AA06F011FBDDF840E012B0704700BF7E
:1004A400704700BF10B5054C237833B9044B13B122
:1004B4000448AFF300800123237010BDBC05002065
:1004C400000000002874000808B5034B1BB1034961
:1004D4000348AFF3008008BD00000000C005002001
:1004E40028740008F0B58BB0002404940594069495
:1004F400079408940994304B1A6B42F004021A636F
:100504001A6B02F004020392039A1A6B42F08002FF
:100514001A631A6B02F080020292029A1A6B42F07A
:1005240001021A631A6B02F001020192019A1A6B1A
:1005340042F002021A631B6B03F002030093009B58
:100544001E484FF0005383611D4F1E4BBB611E4E6E
:100554004FF06043B3614FF40053049301250595B4
:1005640004A903F0D6FA04950594089504A938461D
:1005740003F0CFFA48F23A030493059506940794DE
:10058400089404A9384603F0C4FA4FF48053049342
:100594000594089404A9304603F0BBFA4FF4604371
:1005A4000493059506940794089404A9304603F02F
:1005B400B0FA0BB0F0BD00BF0038024000080240A2
:1005C4000000024000003A800004024010B582B0EE
:1005D40000240094264B1A6B42F480021A631A6BAF
:1005E40002F480020092009A01941A6B42F4001201
:1005F4001A631B6B03F400130193019B2246012130
:100604000B2000F097FD0B2000F0CCFD22460321C7
:100614002F2000F08FFD2F2000F0C4FD2246012181
:10062400382000F087FD382000F0BCFD224602216E
:100634003A2000F07FFD3A2000F0B4FD2246032169
:100644003B2000F077FD3B2000F0ACFD2246022168
:100654003C2000F06FFD3C2000F0A4FD2246032165
:10066400462000F067FD462000F09CFD02B010BD5E
:100674000038024072B6FEE700B585B0002300934F
:100684000193029303933F483F4A02604FF4403280
:100694004260836001220261037680F820304FF0CB
:1006A4008051C1624FF000618162C3600821C16161
:1006B40080F83020436100F033FC00284FD111232F
:1006C4000093012301930723029369462D4800F008
:1006D40053FC002845D10623009302230193694665
:1006E400284800F049FC00283DD107230093032348
:1006F40001936946234800F03FFC002835D11123BB
:1007040000930423019369461E4800F035FC70BB36
:10071400082300930523019369461A4800F02CFC32
:1007240038BB09230093062301936946154800F05A
:1007340023FC00BB1023009307230193694611484F
:1007440000F01AFCC8B911230093082301936946E9
:100754000C4800F011FC90B905B05DF804FBFFF7FC
:1007640089FFFFF787FFFFF785FFFFF783FFFFF799
:1007740081FFFFF77FFFFFF77DFFFFF77BFFFFF7A9
:1007840079FF00BFD80500200020014008B50A48C1
:100794000A4B03600A4B436000238360C3604FF439
:1007A4008042026143618361C361036200F0BAFF66
:1007B40000B908BDFFF75EFFC008002000540040E8
:1007C400801A060008B50D480D4B03604FF4827380
:1007D400436000238360C360036143614FF400728C
:1007E40082613022C2610362436283620A23C3626C
:1007F40002F099FC00B908BDFFF73CFF3409002062
:100804000030014000B58DB00023089309930A938A
:100814000B93039304930593069307930193029315
:100824001B481C4A0260436083604AF20F42C26064
:100834004FF4007202614361836102F097FEF8B9DC
:100844004FF48053089308A9114802F08EFFC8B9E9
:100854000623039350230493022305930F23079342
:1008640003A90B4803F035F870B9002301930293F0
:1008740001A9074803F056F840B90DB05DF804FB30
:10088400FFF7F8FEFFF7F6FEFFF7F4FEFFF7F2FEC0
:100894008C0900200000014000B587B000230293BA
:1008A400039304930593009301931448144A02603C
:1008B4008B22426083604EF65F22C26003618361D3
:1008C40002F054FE98B94FF48053029302A90B48E6
:1008D40002F04BFF68B9202300930023019369467B
:1008E400064803F01FF830B907B05DF804FBFFF7C2
:1008F400C1FEFFF7BFFEFFF7BDFE00BF640A002084
:100904000004004000B58DB00023089309930A93B6
:100914000B93019302930393049305930693079314
:1009240019481A4A02608122426083604FF6FF72BE
:10093400C2600361836102F019FEE0B94FF4805391
:10094400089308A9104802F010FFB0B90E4802F04D
:1009540039FEA0B96023019300220292039205920A
:1009640001A9094802F08CFE58B9074805F04CF873
:100974000DB05DF804FBFFF77DFEFFF77BFEFFF78C
:1009840079FEFFF777FE00BFAC0A0020004001406B
:1009940000B589B000230193029303930493059354
:1009A400069307931448154A0260812242608360CB
:1009B4004FF6FF72C2600361836102F0D7FDA0B9F4
:1009C4000D4802F0FFFD90B96023019300220292CA
:1009D4000392059201A9084802F052FE48B906485C
:1009E40005F012F809B05DF804FBFFF743FEFFF7CA
:1009F40041FEFFF73FFE00BFD40900200044014040
:100A040000B589B0002301930293039304930593E3
:100A1400069307931448154A02608122426083605A
:100A24004FF6FF72C2600361836102F09FFDA0B9BB
:100A34000D4802F0C7FD90B9602301930022029291
:100A44000392059201A9084802F01AFE48B9064823
:100A540004F0DAFF09B05DF804FBFFF70BFEFFF7C3
:100A640009FEFFF707FE00BF1C0A002000480140F2
:100A740010B590B000240B940C940D940E940F9424
:100A84000A9428222146684605F0E8FB2848294BA9
:100A9400036044607F238360FF23C3600461446177
:100AA400846102F016F9002839D100238DF82C3026
:100AB4008DF82D308DF82E300E930F9301220BA953
:100AC4001B4802F073F960BB01228DF828208DF8D1
:100AD40029208DF82A2021238DF82B300AA91448C7
:100AE40002F0E3F9F8B900238DF800308DF80130F5
:100AF4008DF802300193039304934FF080320592F2
:100B04000693079301228DF820204FF480730993F4
:100B14006946074802F036FA38B910B010BDFFF73D
:100B2400A9FDFFF7A7FDFFF7A5FDFFF7A3FD00BF94
:100B3400140900200028004008B50B480B4B036043
:100B44004FF4E133436000238360C3604FF4C06219
:100B540002610C2242618361C36102F0ABFF00B900
:100B640008BDFFF787FD00BFF40A00200010014014
:100B740000B599B0302200210DEB020005F06EFBA8
:100B840000230793089309930A930B930293039307
:100B94000493059306930093284A116C41F0805105
:100BA4001164126C02F080520092009A0193244A5C
:100BB400136823F4404343F400431360136803F4BD
:100BC40040430193019B05230C934FF480330D9311
:100BD40001230E93022312934FF4800313931923DA
:100BE40014934FF4A87315930423169307231793B0
:100BF4000CA801F015FCD8B90F2307930221089122
:100C0400002309934FF480520A920B9307A801F032
:100C140059FE78B9022302934FF48073059302A816
:100C240001F038FF40B901F0F5FD19B05DF804FB9F
:100C3400FFF720FDFFF71EFDFFF71CFD0038024003
:100C44000070004008B500F091F8FFF791FFFFF73E
:100C540049FCFFF7BBFCFFF70FFDFFF797FDFFF71C
:100C6400B1FDFFF7CFFDFFF717FEFFF74BFEFFF7D0
:100C74008FFEFFF7C5FEFFF7FBFEFFF75DFF05F0F4
:100C840021F800F003F800F017F8FCE700B585B090
:100C940005F092F80028FBD1064BEC460FCBACE8EC
:100CA4000700ACF800300E21684605F06FF805B077
:100CB4005DF804FB4074000808B507494B691A0441
:100CC40002F00052DB4303F4005313438B61034BE4
:100CD400186803F057FD08BD00080240000000201A
:100CE40000B583B00C4A136803EBD3735B10136035
:100CF400622B03DC13464FF4FA721A60074B93E835
:100D040003000090ADF804100621684605F03EF893
:100D140003B05DF804FB00BF00000020507400081D
:100D240010B504460E4B18784FF47A73B3FBF0F306
:100D34000C4A1068B0FBF3F000F042FA68B90F2CCB
:100D440001D901200AE0002221464FF0FF3000F0D3
:100D5400F1F9054B1C60002000E0012010BD00BF2C
:100D6400040000201C0100200800002008B50B4BE3
:100D74001A6842F400721A601A6842F480621A60B7
:100D84001A6842F480721A60032000F0C1F900204E
:100D9400FFF7C6FF04F004FC002008BD003C02403D
:100DA400034A1168034B1B780B441360704700BF60
:100DB400380B002004000020014B1868704700BF66
:100DC400380B002038B50446FFF7F6FF0546B4F1AA
:100DD400FF3F02D0044B1B781C44FFF7EDFF401B80
:100DE400A042FAD338BD00BF040000204A4B5A6821
:100DF40022F440325A605A6841680A435A600268D1
:100E0400536823F48073536002685368016943EAAA
:100E1400012353600268536823F0407353600268EF
:100E2400536881680B4353600268936823F400633A
:100E3400936002689368C1680B439360826A374B7E
:100E44009A4257D00268936823F0706393600268F3
:100E54009368816A0B4393600268936823F040535C
:100E6400936002689368C16A0B4393600268936855
:100E740023F00203936002689368017E43EA41030E
:100E8400936090F82030002B3FD00268536843F4FD
:100E9400006353600268536823F46043536001683D
:100EA4004B68426A013A43EA42334B600268D36AB0
:100EB40023F47003D3620168CB6AC269013A43EA3E
:100EC4000253CB620268936823F400739360026850
:100ED400936890F8301043EA412393600268936862
:100EE40023F48063936002689368416943EA812331
:100EF400936070470268936823F07063936002689C
:100F0400936823F040539360B0E70268536823F476
:100F140000635360CAE700BF002301400100000FD3
:100F240038B310B50446036C43B1236C13F0100FAF
:100F34000BD00120002384F83C3010BD04F04CFB9E
:100F44000023636484F83C30EFE7236C23F4885374
:100F540023F0020343F0020323642046FFF746FF15
:100F640000206064236C23F0030343F00103236433
:100F7400E0E701207047000030B482B00023019301
:100F840090F83C30012B00F0BB80012380F83C300A
:100F94000B68092B41D90468E2689BB203EB430355
:100FA4001E3B4FF0070C0CFA03F322EA0303E36041
:100FB4000468E2680B8803EB43031E3B8D6805FA63
:100FC40003F31343E3604B68062B3DD80468626B5C
:100FD40003EB8303053B4FF01F0C0CFA03F322EAE7
:100FE400030363630468626B4B6803EB8303053B91
:100FF400B1F800C00CFA03F3134363630268414B76
:101004009A4251D002683F4B9A4256D0002380F84E
:101014003C30184602B030BC7047046822699BB269
:1010240003EB43034FF0070C0CFA03F322EA030328
:101034002361046822690B8803EB43038D6805FA76
:1010440003F313432361BEE70C2B16D805682A6B00
:1010540003EB8303233B1F2404FA03F322EA030371
:101064002B6305682A6B4B6803EB8303233B0C88D3
:1010740004FA03F313432B63C0E70568EA6A03EB3E
:101084008303413B1F2404FA03F322EA0303EB62C4
:101094000568EA6A4B6803EB8303413B0C8804FA56
:1010A40003F31343EB62A9E70B68122BAAD1164A88
:1010B400536843F480035360A4E70B68103B012B8F
:1010C400A4D8114A536843F4000353600B68102BEF
:1010D4009CD10E4B1B6802F1467202F52E3202F2CD
:1010E4008332A2FB03239B0C03EB83035B0001937A
:1010F40002E0019B013B0193019B002BF9D185E7A1
:10110400022087E700200140002301401C01002049
:10111400074AD36823F4E0631B041B0C000200F4A9
:10112400E060034343F0BF6343F40033D36070478C
:1011340000ED00E000B5194BDB68C3F30223C3F1F3
:10114400070CBCF1040F28BF4FF0040C03F1040E8C
:10115400BEF1060F18D9033B4FF0FF3E0EFA0CFC0C
:1011640021EA0C0199400EFA03F322EA030319431E
:1011740000280BDB0901C9B200F1604000F56140B1
:1011840080F800135DF804FB0023E5E700F00F008E
:101194000901C9B2024B1954F4E700BF00ED00E0A5
:1011A40014ED00E0002807DB00F01F0240090123D2
:1011B4009340024A42F82030704700BF00E100E04B
:1011C4000138B0F1807F0BD24FF0E0235861054A1B
:1011D400F02182F823100020986107221A617047D9
:1011E4000120704700ED00E010B40368D9B2103953
:1011F4000C4AA2FB014212090B4CA25CC2655F2996
:1012040009D923F47F7323F0030304338365806DCA
:101214005DF8044B704723F47F7323F00303836565
:10122400F5E700BFABAAAAAA58740008836A8269CA
:1012340092B9012B0AD0022B02D00BB100207047C7
:10124400C36A13F0807F28D100207047C36AB3F1CA
:10125400C07F24D000207047B2F5005F09D0022B74
:1012640025D9032B25D1C36A13F0807F23D1002015
:101274007047032B03D8DFE803F01404140A00209A
:101284007047C36A13F0807F0DD100207047C36A92
:10129400B3F1C07F09D000207047012070470120BE
:1012A40070470120704701207047012070470120DA
:1012B40070470020704701207047000070B5044655
:1012C400FFF77AFD002C5BD00546002384F8343008
:1012D400022384F835302268136823F00103136075
:1012E40023681A6812F0010F0AD0FFF765FD431B4B
:1012F400052BF5D920236365032084F8350070BDE0
:101304001A68204810406168A2680A43E1680A43E9
:1013140021690A4361690A43A1690A43E1690A43ED
:10132400216A0A430243616A04291ED01A602668AE
:10133400756925F00705636A1D43042B07D1A36A69
:101344001D43E36A1BB12046FFF770FF90B9756136
:101354002046FFF749FFE26D3F239340836000205E
:101364006065012384F83530C9E7E16A206B0143E5
:101374000A43DBE740236365012084F83500BEE7B8
:101384000120BCE73F8010F0F0B583B00446002391
:101394000193724B1D68724BA3FB0535AD0A876D33
:1013A4003E68C26D08239340334210D003681A6824
:1013B40012F0040F0BD01A6822F004021A60C26DF6
:1013C40008239340BB60436D43F001034365E26D22
:1013D40001239340334209D02268526912F0800FEE
:1013E40004D0BB60636D43F002036365E26D0423C4
:1013F4009340334209D02268126812F0020F04D0DD
:10140400BB60636D43F004036365E26D1023934096
:10141400334224D02268126812F0080F1FD0BB6038
:1014240023681A6812F4802F0DD01B6813F4002F60
:1014340004D1236C9BB12046984710E0A36C73B190
:10144400204698470BE01A6812F4807F03D11A688B
:1014540022F008021A60236C0BB120469847E26D13
:1014640020239340334255D02268126812F0100FA3
:1014740050D0BB6094F83530DBB2052B0ED0236816
:101484001A6812F4802F33D01B6813F4002F2AD16A
:10149400636C002B3ED0204698473BE022681368DB
:1014A40023F0160313602268536923F08003536109
:1014B400236CA3B12268136823F008031360E26D60
:1014C4003F239340BB60002384F83430012384F825
:1014D4003530236D002B3FD0204698473CE0A36C69
:1014E400002BE7D1EBE7E36BA3B12046984711E06B
:1014F4001A6812F4807F09D11A6822F010021A6067
:10150400002384F83430012384F83530E36B0BB1C5
:1015140020469847636DFBB1636D13F0010F17D03C
:10152400052384F835302268136823F0010313601F
:10153400019B01330193AB4204D823681B6813F069
:10154400010FF5D1002384F83430012384F83530B9
:10155400E36C0BB12046984703B0F0BD1C0100209A
:10156400B5814E1B00230F2B00F2D28070B582B0E0
:1015740060E085685E000324B44025EA0405CC6875
:10158400B4402C438460456825EA02054C68C4F3E2
:1015940000129A402A4342605AE0DC08083450F8AA
:1015A400246003F0070295000F22AA4026EA020EE7
:1015B4000A69AA4042EA0E0240F824205CE00422B0
:1015C40000E0002202FA0EF22A430234514D45F89B
:1015D4002420514A14686FEA0C0224EA0C054E6870
:1015E40016F4803F01D04CEA04054B4C2560646836
:1015F40002EA04054E6816F4003F01D04CEA0405E3
:10160400454C6560A46802EA04054E6816F4801F20
:1016140001D04CEA0405404CA560E46822404D68C2
:1016240015F4001F01D04CEA04023B4CE260013384
:101634000F2B6BD801229A400C6804EA020C32EAA0
:101644000404F4D14C6804F00304013C012C90D947
:101654004A6802F00302032A09D0C4685D00032229
:10166400AA4024EA02048A68AA402243C2604A6863
:1016740002F00302022A90D004684FEA430E0322C8
:1016840002FA0EF224EA02044A6802F0030202FAA1
:101694000EF2224302604A6812F0805FC7D0002233
:1016A40001921E4A546C44F480445464526C02F413
:1016B40080420192019A9C08A51C164A52F82550B2
:1016C40003F003024FEA820E0F2202FA0EF225EA19
:1016D4000205134A90423FF474AF02F580629042CF
:1016E4000ED002F5806290420CD002F580629042E6
:1016F4000AD002F5806290423FF461AF072261E7AD
:1017040001225FE702225DE703225BE702B070BDBE
:10171400704700BF00380140003C014000380240DF
:1017240000000240002800F0CC8070B5044690F818
:101734003D30002B77D0242384F83D302268136891
:1017440023F0010313602268136843F40043136019
:101754002268136823F40043136001F069F9626896
:101764005A4B9A4264D85A4B98428CBF00230123A7
:10177400002B40F0A8805749A1FB00318B0C256851
:101784006A6822F03F0242EA91426A6021680A6A6A
:1017940022F03F0266684D4DAE424FD801331343E9
:1017A4000B622168CA6922F44F4222F0FF02666884
:1017B400464B9E424CD8431E7600B3FBF6F30133EE
:1017C40040F6FC70034278D0C3F30B031343CB61A0
:1017D40021680B6823F0C003E269206A02431343C3
:1017E4000B6021688B6823F4034323F0FF03226911
:1017F400E068024313438B602168CB6823F0FF0346
:101804006269A06902431343CB602268136843F002
:101814000103136000202064202384F83D302063FA
:1018240084F83E0070BD80F83C3003F045FF82E749
:10183400294B98428CBF0023012399E74FF49675F6
:1018440005FB03F3254DA5FB03539B090133A6E7D1
:10185400A368BBB9451E06EB460CB5FBFCF5013588
:10186400C5F30B05B5FA85F56D0945BBC3B9013858
:1018740006EB4603B0FBF3F30133C3F30B0343F46A
:101884000043A3E7451E06EB860C0CEB8C0CB5FB62
:10189400FCF50135C5F30B05B5FA85F56D09E4E7EB
:1018A400013806EB860303EB8303B0FBF3F3013348
:1018B400C3F30B0343F4404388E7042386E701237F
:1018C40084E7012070470120ACE700BFA086010037
:1018D4007F841E0083DE1B43FF083D00D34D62104E
:1018E4002DE9F04383B0D0F80080C1EBC10300EBD5
:1018F40083035A6D1B6D9A4254D807460C469B1AB3
:10190400C1EBC10200EB8202526C9A4200D31A4628
:1019140002F103094FEA990915E006F103094FEAB8
:101924009909C4EBC40507EB8505A96C3B7C0093BE
:10193400B3B2E2B2404602F0E5FCAB6C3344AB64B4
:101944006B6D33446B6508EB441303F510639B69BB
:101954009BB24B4512D3C4EBC40207EB8202516D18
:10196400136D99420AD24BB15B1AC4EBC40207EB64
:101974008202566C9E42D0D31E46CEE7C4EBC4000E
:1019840007EB80073A6D7B6D9A420FD804F00F0481
:101994000123A340D8F8344824EA0304C8F834489F
:1019A400002000E0012003B0BDE8F0830020FAE746
:1019B40070B58AB0002800F090800546046890F85D
:1019C400BD333BB3032385F8BD33E36B13F4807F4E
:1019D40001D100232B61286802F020FA2C4654F828
:1019E400106BEC460FCCACE80F000FCCACE80F004A
:1019F40094E803008CE803002B1D0ECB304602F064
:101A04004FF9044658B1022385F8BD33012420461A
:101A14000AB070BD80F8BC3304F0E4F9D2E70021C9
:101A2400286802F001FA234616E0C3EBC30205EB73
:101A34008202012182F83D1082F83C30A2F8423043
:101A4400002182F83F1051649164C3EBC30205EB9B
:101A5400820211650133DBB269688B42E5D316E07B
:101A6400C4EBC40305EB8303002283F8FD2183F850
:101A7400FC4183F8FF21C3F80422C3F80822C4EB15
:101A8400C40305EB8303C3F810220134E4B2A1427A
:101A9400E6D82C4654F8106BEC460FCCACE80F009B
:101AA4000FCCACE80F0094E803008CE803002B1D76
:101AB4000ECB304602F0FEF9044620B1022385F82D
:101AC400BD330124A3E7002385F83830012385F8CA
:101AD400BD33286802F0D2FD99E7012497E7026834
:101AE40090F8BC33012B19D010B50446012380F8BB
:101AF400BC33836A012B09D0206802F089F920687D
:101B040002F0AEFD002084F8BC0310BD8369012BF4
:101B1400F2D0936B43F480339363EDE70220704774
:101B240070B504460D460068066C00EB411303F5DE
:101B340030639A682169012911D034498E424ED00C
:101B44003DB9C5EBC50304EB8303D3F81032002B76
:101B540056D0E9B2204604F08FF9002070BD12F08F
:101B6400080F09D02A498E42F7D912F4004FF4D055
:101B74004FF400429A60F0E712F0200F02D02022C6
:101B84009A60EAE712F0280FE7D121498E4206D97C
:101B940012F4004F03D04FF400429A60DDE7C5EB26
:101BA400C50204EB8202D2F804121B69C3F31203C8
:101BB400CB1AC2F81432D2F808320B44C2F80832F5
:101BC40015B9D2F8103223B1E9B2204604F054F921
:101BD400C3E704F57172012102F0A4FDF4E712F4E5
:101BE400004F03D04FF400429A60B6E712F0200F82
:101BF40001D020229A60E9B2204604F03DF9ACE716
:101C040004F57172002102F08DFDA2E70A31544FF0
:101C14000A30544F38B5044603681D6C03EB411376
:101C2400D3F8081B0E4A954207D903F5306311F423
:101C3400004F02D04FF400429A60204604F014F999
:101C4400074B9D4202D92369012B01D0002038BDE6
:101C540004F571720121206802F064FDF6E700BF0B
:101C64000A30544F2DE9F84F04460568284602F01F
:101C740044FD08B1BDE8F88F0646206802F00CFD6B
:101C84000028F7D0206802F007FD10F0020F04D0FE
:101C94002268536903F002035361206802F0FCFCDC
:101CA40010F0100F13D02268936923F0100393618E
:101CB4002F6A07F00F08C7F34343022B68D0062BA3
:101CC40000F084802268936943F0100393612068D4
:101CD40002F0E2FC10F4002F40F08A80206802F049
:101CE400DBFC10F4802F40F0CC80206802F0D4FCA0
:101CF4000028C0F23681206802F0CEFC10F4006F98
:101D04000AD0D5F8083813F0010F40F04481226856
:101D1400536903F400635361206802F0BDFC10F4BE
:101D2400805F40F03C81206802F0B6FC10F4005F54
:101D340040F09181206802F0AFFC10F0080F40F0F1
:101D4400A281206802F0A8FC10F4801F40F0A48156
:101D5400206802F0A1FC10F4001F40F0A781206865
:101D640002F09AFC10F0804F40F0AA81206802F043
:101D740093FC10F0040F3FF47DAF23685D6815F009
:101D8400040F40F0A681226853682B43536071E727
:101D940047F6F0731F4295D04FEA171BC8EBC809EA
:101DA40004EB8909C7F30A12D9F80812284602F08D
:101DB400DDFBCBF30A02D9F808321344C9F8083220
:101DC400D9F814321A44C9F814227BE7082204F51E
:101DD4007171284602F0CAFBC7F30A17C8EBC802A0
:101DE40004EB8202D2F814321F44C2F8147269E779
:101DF400206802F055FC0746B04616E005EB481390
:101E04000122C3F8082B41462046FFF789FE1BE058
:101E140005EB48130822C3F8082B41462046FFF778
:101E2400F9FE14E008F101087F08002F3FF456AFD3
:101E340017F0010FF6D05FFA88F1206802F040FC39
:101E4400814610F0010FD9D119F0080FE0D119F033
:101E5400100F04D005EB48131022C3F8082B19F017
:101E6400200F04D005EB48132022C3F8082B19F4E3
:101E7400005FD7D005EB48134FF40052C3F8082B8A
:101E8400D0E7206802F014FC0746B04629E051462A
:101E9400204603F0FDFF19F0080F04D005EB4813AA
:101EA4000822C3F8082919F0100F04D005EB4813D1
:101EB4001022C3F8082919F0400F04D005EB481389
:101EC4004022C3F8082919F0020F04D005EB481387
:101ED4000222C3F8082919F0800F3DD108F1010846
:101EE4007F08002F3FF401AF17F0010FF6D05FFA1F
:101EF40088FA5146206802F0ECFB814610F0010F8D
:101F0400C9D008F00F03012101FA03F2D5F83438DF
:101F140023EA0203C5F8343805EB4813C3F808195B
:101F240023698B42B3D1C8EBC80304EB8303596C18
:101F34009A6C0A449A64B8F1000FA8D1C8EBC8039C
:101F440004EB83031B6D002BA1D104F571720121F5
:101F5400206802F0E7FB9AE741462046FFF7C0FC01
:101F6400BCE7D5F8043823F00103C5F8043894F825
:101F7400F433012B08D0204603F0C6FF22685369CE
:101F840003F000435361B6E6002184F8F4132046BD
:101F940000F045FAF2E7204603F09EFFB7E605F5A8
:101FA40000677B6823F001037B601021206801F047
:101FB40053FF20E005EB46134FF67F31C3F80819B1
:101FC400D3F8002922F40012C3F80029D3F8002919
:101FD40042F00062C3F80029C3F8081BD3F8002BB1
:101FE40022F40012C3F8002BD3F8002B42F0006255
:101FF400C3F8002B01366368B342DBD8FB6943F0B6
:102004000113FB61236BDBB1D7F8843043F00B037E
:10201400C7F884307B6C43F00B037B64D5F800383D
:1020240023F4FE63C5F8003804F57172217C20683E
:1020340002F078FB2268536903F48053536172E61B
:102044007B6943F4005343F02B037B613B6943F00A
:102054000B033B61E2E7206802F053FB206801F0C8
:10206400F1FFE060256800F0DDFC0146227B284694
:1020740001F05CFE204603F01CFF2268536903F460
:102084000053536156E6204603F00DFF226853695E
:1020940003F00803536154E60021204603F040FF97
:1020A4002268536903F48013536151E600212046EA
:1020B40003F030FF2268536903F4001353614EE6C2
:1020C400204603F033FF2268536903F080435361D1
:1020D4004CE6204603F030FF55E690F8BC33012B64
:1020E4000DD010B50446012380F8BC3380F83810B5
:1020F400006802F0A5FA002084F8BC0310BD022099
:10210400704738B505468C4611F0800F29D101F08F
:102114000F0ECEEBCE04A40004F5FC740444211D80
:10212400CEEBCE0E00EB8E0E00208EF8FD010CF0EF
:102134000F0C81F800C08A60CB704A780AB1A1F80C
:1021440006C0022B1DD095F8BC33012B1CD00123F3
:1021540085F8BC33286801F086FF002085F8BC03AD
:1021640038BD01F00F00C0EBC001890038312944AB
:102174000431C0EBC00005EB8000012480F83D4031
:10218400D5E700230B71DEE70220E9E710B504462A
:102194000A4611F0800F20D101F00F00C0EBC003FC
:1021A4009B0003F5FC732344191DC0EBC00004EB32
:1021B4008000002380F8FD3102F00F020A7094F8C9
:1021C400BC33012B19D0012384F8BC33206801F0FF
:1021D40099FF002084F8BC0310BD01F00F00C0EB90
:1021E400C0039B0038332344191DC0EBC00004EB2B
:1021F4008000012380F83D30DEE70220ECE710B5D3
:1022040001F00F04C4EBC401890001F5FC71014421
:102214000431C4EBC40C00EB8C0CCCF80822CCF8D1
:1022240010320023CCF814328CF8FD318CF8FC41C8
:102234000369012B06D064B9DAB2006801F0D2FF59
:10224400002010BDC4EBC40C00EB8C0CCCF80C22A9
:10225400F1E7DAB2006802F06DF8F1E701F00F017E
:10226400C1EBC10100EB8101D1F81402704710B534
:1022740001F00F04C4EBC401890038310144043176
:10228400C4EBC40C00EB8C0CCCF84820CCF85030D8
:102294000023CCF8543001238CF83D308CF83C40BA
:1022A4000369012B06D064B9DAB2006801F09AFF21
:1022B400002010BDC4EBC40C00EB8C0CCCF84C20FB
:1022C400F1E7DAB2006802F035F8F1E738B501F069
:1022D4000F054268954239D804460B4611F0800F29
:1022E4001FD1C1EBC101890001F5FC710144043126
:1022F400C3EBC30300EB8303002283F8FD21012316
:102304008B700D7094F8BC33012B21D0012384F819
:10231400BC33206802F039F98DB1002084F8BC0385
:1023240038BDC5EBC5018900383101440431C5EB22
:10233400C50300EB8303012283F83D20DFE704F5A6
:102344007172217C206802F0EDF9E6E70120E7E7ED
:102354000220E5E701F00F034268934231D810B53B
:10236400044611F0800F1ED1C3EBC301890001F5AF
:10237400FC7101440431C3EBC30200EB8202002070
:1023840082F8FD0100228A700B7094F8BC33012B93
:1023940019D0012384F8BC33206802F023F900200B
:1023A40084F8BC0310BDC3EBC30189003831014478
:1023B4000431C3EBC30200EB8202012082F83D002A
:1023C400E0E7012070470220ECE710B40468606A7B
:1023D40031B940EA0240A06200205DF8044B704726
:1023E4008C46A36A00EB1340002308E003F140018C
:1023F40004EB8101496800EB11400133DBB20CF1BD
:10240400FF318B42F2D340EA02400CF13F0104EB6E
:1024140081014860E0E70368596200207047704713
:10242400002800F0DD8170B582B00446036813F023
:10243400010F3BD09E4B9B6803F00C03042B2CD064
:102444009B4B9B6803F00C03082B21D06368B3F506
:10245400803F4FD0B3F5A02F52D0954B1A6822F489
:1024640080321A601A6822F480221A606368002B92
:1024740050D0FEF7A1FC05468D4B1B6813F4003FBA
:1024840014D1FEF799FC401B6428F5D90320AEE172
:10249400874B5B6813F4800FD8D0854B1B6813F40B
:1024A400003F03D06368002B00F09C81236813F085
:1024B400020F54D07E4B9B6813F00C0F3ED07C4B24
:1024C4009B6803F00C03082B33D0E368002B68D01F
:1024D400784B01221A60FEF76FFC0546744B1B68AB
:1024E40013F0020F54D1FEF767FC401B0228F5D904
:1024F40003207CE16E4A136843F480331360B5E72C
:102504006B4B1A6842F480221A601A6842F48032D3
:102514001A60ABE7FEF750FC0546654B1B6813F4E5
:10252400003FC3D0FEF748FC401B6428F5D90320C4
:102534005DE15F4B5B6813F4800FC6D15C4B1B6895
:1025440013F0020F03D0E368012B40F04D81584A89
:10255400136823F0F803216943EAC1031360236875
:1025640013F0080F42D063696BB3524B0122C3F8D6
:10257400802EFEF721FC05464D4B5B6F13F0020FD6
:1025840034D1FEF719FC401B0228F5D903202EE1B3
:10259400474A136823F0F803216943EAC10313602F
:1025A400DDE7444B00221A60FEF706FC0546404B6B
:1025B4001B6813F0020FD2D0FEF7FEFB401B02286B
:1025C400F5D9032013E13B4B0022C3F8802EFEF71C
:1025D400F3FB0546364B5B6F13F0020F06D0FEF794
:1025E400EBFB401B0228F5D9032000E1236813F01C
:1025F400040F74D02E4B1B6C13F0805F32D1002378
:1026040001932B4B1A6C42F080521A641B6C03F03A
:1026140080530193019B0125274B1B6813F4807F92
:1026240022D0A368012B33D0052B37D0204B1A6F4F
:1026340022F001021A671A6F22F004021A67A368D3
:10264400002B3BD0FEF7B8FB0646194B1B6F13F06B
:10265400020F43D1FEF7B0FB801BB0F5FA7FF4D92B
:102664000320C4E00025D7E7134A136843F48073BA
:102674001360FEF7A1FB06460F4B1B6813F4807F23
:10268400CFD1FEF799FB801B0228F5D90320AEE0D9
:10269400074A136F43F001031367D0E7044B1A6F23
:1026A40042F004021A671A6F42F001021A67C6E781
:1026B400003802400000474200700040FEF77CFBF7
:1026C4000646524B1B6F13F0020F07D0FEF774FB44
:1026D400801BB0F5FA7FF4D9032088E0EDB9A36933
:1026E400002B00F08380494A926802F00C02082A09
:1026F40051D0022B17D0464B00221A66FEF75CFB22
:102704000446424B1B6813F0007F42D0FEF754FB93
:10271400001B0228F5D9032069E03C4A136C23F01E
:1027240080531364DBE73A4B00221A66FEF744FB3E
:102734000546364B1B6813F0007F06D0FEF73CFBC2
:10274400401B0228F5D9032051E0E369226A1343B0
:10275400626A43EA8213A26A5208013A43EA0243D4
:10276400E26A43EA0263294A5360294B01221A664A
:10277400FEF722FB0446254B1B6813F0007F06D1AD
:10278400FEF71AFB001B0228F5D903202FE00020D6
:102794002DE000202BE0012B2BD01C4B5B6803F4B5
:1027A4008001E269914226D103F03F02216A8A4204
:1027B40023D1616A47F6C0721A40B2EB811F1ED161
:1027C40003F44031A26A5208013AB1EB024F18D126
:1027D40003F07063E26AB3EB026F14D1002006E0E9
:1027E40001207047012002E0012000E0002002B037
:1027F40070BD0120FBE70120F9E70120F7E7012084
:10280400F5E70120F3E70120F1E700BF00380240BB
:1028140000004742014B0122DA647047000047423E
:1028240008B5254B9B6803F00C03042B3FD0082B01
:102834003FD1214B5A6802F03F025B6813F4800FCA
:1028440012D01D4B5968C1F388111C480023A1FB09
:102854000001FDF737FD184B5B68C3F301430133F7
:102864005B00B0FBF3F025E0134B5968C1F3881CFF
:102874004FEA4C11B1EB0C006EEB0E0E4FEA8E13C7
:1028840043EA90638101091A63EB0E03DB0043EA18
:102894005173C90011EB0C0C43F10003990200239E
:1028A4004FEA8C2041EA9C51FDF70CFDD3E7034825
:1028B40000E0034808BD00BF0038024040787D01B5
:1028C4000024F400002800F09B8070B50D460446F7
:1028D4004F4B1B6803F007038B4208D2CBB24C4A20
:1028E4001370136803F007038B4240F08B80236856
:1028F40013F0020F17D013F0040F04D0454A936865
:1029040043F4E0539360236813F0080F04D0414A62
:10291400936843F4604393603E4A936823F0F00362
:10292400A1680B439360236813F0010F32D06368EE
:10293400012B21D09A1E012A25D9364A126812F099
:10294400020F61D033498A6822F0030213438B607B
:10295400FEF732FA06462F4B9B6803F00C036268BD
:10296400B3EB820F16D0FEF727FA801B41F28833AF
:102974009842F0D9032042E0264A126812F4003F3C
:10298400E0D101203BE0234A126812F0007FD9D144
:10299400012034E01E4B1B6803F00703AB4207D948
:1029A400EAB21B4B1A701B6803F00703AB422DD12C
:1029B400236813F0040F06D0164A936823F4E053F7
:1029C400E1680B439360236813F0080F07D0114AA2
:1029D400936823F46043216943EAC1039360FFF7DA
:1029E4001FFF0C4B9B68C3F303130B4AD35CD84003
:1029F4000A4B18600A4B1868FEF792F9002070BD64
:102A0400012070470120FAE70120F8E70120F6E7EA
:102A1400003C024000380240607400081C010020A1
:102A240008000020014B1868704700BF1C010020FB
:102A340008B5FFF7F7FF044B9B68C3F38223034AEF
:102A4400D35CD84008BD00BF003802407074000851
:102A540008B5FFF7E7FF044B9B68C3F34233034A0F
:102A6400D35CD84008BD00BF003802407074000831
:102A74007047000008B5064BDB6813F0800F00D1E7
:102A840008BDFFF7F5FF024B80229A73F8E700BFF9
:102A94000038024030B583B00446036813F0050FD4
:102AA4000ED1236813F0020F36D1236813F0080FF8
:102AB40000F09A80227C4E4BC3F8E021002094E081
:102AC4004C4B00229A66FEF777F905464A4B1B6881
:102AD40013F0006F06D0FEF76FF9431B022BF5D9F4
:102AE400032082E06268A3681B0743EA8213424A18
:102AF400C2F884303F4B01229A66FEF75DF9054621
:102B04003D4B1B6813F0006FCBD1FEF755F9401B0A
:102B14000228F5D9032068E000230193364B1A6C90
:102B240042F080521A641B6C03F080530193019BA2
:102B3400324A136843F480731360FEF73DF9054687
:102B44002E4B1B6813F4807F06D1FEF735F9431B27
:102B5400022BF5D9032048E0274B1B6F13F4407375
:102B640014D0E26802F440729A420FD0224B1A6FDA
:102B740022F440721F490120C1F8400E0020C1F820
:102B8400400E1A671B6F13F0010F12D1E36803F4B0
:102B94004072B2F5407F1CD0174A936823F4F813AF
:102BA400936015490B6FE268C2F30B0213430B6782
:102BB4007BE7FEF701F905460F4B1B6F13F0020F7D
:102BC400E4D1FEF7F9F8401BB0F5FA7FF4D90320FD
:102BD4000BE009498A6822F4F81223F0704323F4C5
:102BE400407313438B60DCE7002003B030BD00BFAB
:102BF4000010474200004742003802400070004085
:102C04007047000010B5044603689A6812F4805FA8
:102C140003D0DB6813F4807F0FD123689A6812F421
:102C2400005F03D0DB6813F4007F0FD10C4B4FF42B
:102C340000325A610123637710BDFFF7E1FF226878
:102C4400D368DBB263F4C073D360E6E7204600F0D8
:102C540069FA2268D368DBB263F42073D360E5E7D2
:102C6400003C014038B504460268D36823F0A00351
:102C7400D360FEF7A1F805462368DB6813F0200F44
:102C840007D1FEF799F8401BB0F57A7FF4D90320F9
:102C940000E0002038BD38B50368DA6812F0400F50
:102CA40001D0002038BD04464FF0FF32DA60FEF751
:102CB40083F805462368DB6813F0400F07D1FEF75D
:102CC4007BF8431BB3F57A7FF4D90320EAE70020AD
:102CD400E8E738B500285CD00446437F002B41D098
:102CE400022363772368CA225A62236853225A62F2
:102CF4002046FFF7D0FF0546002837D122689368A5
:102D040023F4E00323F04003936021688A68636836
:102D1400206903436069034313438B602368E268BB
:102D24001A6122681369A16843EA014313612268A6
:102D3400D36823F08003D36023689B6813F0200FCB
:102D44001BD02268136C23F4802313642268136C51
:102D5400A1690B4313642368FF225A62012363773A
:102D6400284638BD037702F025FDB9E72368FF2222
:102D74005A62042363770125F2E72046FFF772FFC6
:102D84000028DED02368FF225A62042363770125DA
:102D9400E6E70125E4E7002302E001330A38C0B284
:102DA4000928FAD81B01DBB218437047F8B5037F32
:102DB400012B78D004460E46012303770223437780
:102DC400002A47D103689B6813F0400F01D1002308
:102DD400CB703078FFF7DFFF05047078FFF7DBFF77
:102DE40045EA0025B078FFF7D6FF0543F07845EAB9
:102DF40000452368CA225A62236853225A62204635
:102E0400FFF749FF0746002836D1236805F07F35D0
:102E140025F0FE451D602268936823F480239360A7
:102E240021688B68F2683069024313438B6022681F
:102E3400D36823F08003D36023689B6813F0200FCA
:102E440023D02368FF225A62012363770023237768
:102E54003846F8BD03689B6813F0400F01D1002386
:102E6400CB7035787078000240EA0540B578284385
:102E7400F57840EA0545BCE72368FF225A6204233B
:102E84006377002323770127E2E72046FFF7EAFE72
:102E94000028D6D02368FF225A62042363770023D4
:102EA40023770127D4E70227D2E770B5037F012BEC
:102EB40066D004460E4601230377022343773AB9CA
:102EC4004B7813F0100F03D003F0EF030A334B7069
:102ED400002A33D1F078FFF75EFF05047078FFF71E
:102EE4005AFF45EA0025B078FFF755FF05433078CF
:102EF40045EA40352368CA225A62236853225A623B
:102F04002046FFF7C8FE064618BB236825F07F4518
:102F140025F0C0055D602268D36823F08003D36088
:102F240023689B6813F0200F1CD02368FF225A6289
:102F34000123637700232377304670BDF5787078DA
:102F4400000240EA0540B5782843357840EA453523
:102F5400D0E72368FF225A62042363770023237790
:102F64000126E9E72046FFF77DFE0028DDD023682F
:102F7400FF225A6204236377002323770126DBE7C9
:102F84000226D9E7F0B583B00D46634B1B6863494D
:102F9400A1FB0313DB0A4FF47A7101FB03F30193E2
:102FA400037F012B00F0B58004460123037702233D
:102FB4004377002A61D103689B6813F0400F01D165
:102FC4000023EB70EF692878FFF7E5FE06046878C4
:102FD400FFF7E1FE46EA0026A878FFF7DCFE064389
:102FE400E87846EA004695F82000FFF7D4FE46EA62
:102FF40000663E436B691E436868AB6918432368E7
:10300400CA225A62236853225A626B6AB3F5807FDC
:103014004DD02268936823F4007393602268D368C8
:10302400DBB263F42073D360019B5A1E0192002B20
:1030340067D02368DA6812F0020FF5D01E622368A5
:1030440098642268936843F40073936022689368D9
:1030540043F400539360324B1A6842F400321A600E
:103064009A6842F400329A602368FF225A6201236C
:1030740063770020207703B0F0BD03689B6813F0EA
:10308400400F01D10023EB70EA6929786B781B02A9
:1030940043EA0143A9780B43E97843EA014395F8ED
:1030A400201043EA016313436E691E43A4E72268B8
:1030B400936823F4807393602268D368DBB263F46B
:1030C400C073D360019B5A1E019293B12368D968DF
:1030D40011F0010FF6D0DE6123685864226893680A
:1030E40043F4807393602268936843F4805393603D
:1030F400B1E72368FF225A62032060770023237715
:10310400B9E72368FF225A620320607700232377FC
:10311400B1E70220AFE700BF1C010020D34D6210CD
:10312400003C0140704700285AD010B50446436A59
:1031340033B94368B3F5827F05D00023C36102E04D
:103144000023036143610023A36294F85130002BF0
:1031540040D0022384F851302268136823F04003DE
:103164001360636803F48273A26802F40442134395
:10317400E26802F400621343226902F0020213437C
:10318400626902F001021343A26902F4007213435C
:10319400E26902F038021343226A02F08002134308
:1031A400A26A02F40052216813430B60638B03F09C
:1031B4000403626A02F01002216813434B60226820
:1031C400D36923F40063D36100206065012384F88C
:1031D400513010BD84F85030204602F003FBB8E7AC
:1031E4000120704770B4036A23F001030362036A89
:1031F4004668826922F073020C6844EA020523F0EF
:1032040002028B6813430D4CA04209D00B4CA04220
:103214000DD0466085614A684263036270BC7047A2
:1032240023F00803CA68134323F00403EEE726F4EB
:1032340040764A6932438E691643EAE7000001404A
:1032440030B4036A23F480730362036A4568C26975
:1032540022F073020C68224323F400738C6843EA5F
:1032640004230F4CA04209D00D4CA0420ED045605F
:10327400C2614A68C263036230BC704723F40063CE
:10328400CC6843EA042323F48063EDE725F4405536
:103294004C6945EA04158C6945EA0415E7E700BF63
:1032A4000000014030B4036A23F480530362036ACC
:1032B4004468C26922F4E6420D6842EA052223F416
:1032C40000538D6843EA0533074DA84206D0446095
:1032D400C2614A680264036230BC704724F48044CB
:1032E4004D6944EA8514F2E70000014010B4036A12
:1032F400046A24F001040462846924F0F00C4CEAAA
:10330400021223F00A030B43826103625DF8044B4B
:10331400704710B4046A24F0100404628469036AD8
:1033240024F4704C4CEA023223F0A00343EA011364
:10333400826103625DF8044B7047836823F0700375
:103344000B4343F00703836070477047704770472F
:1033540070477047704710B5044603681A6912F045
:10336400020F11D0DA6812F0020F0DD06FF00202D2
:103374001A610123037703689B6913F0030F70D06C
:10338400FFF7E6FF0023237723681A6912F0040F7E
:1033940012D0DA6812F0040F0ED06FF004021A6132
:1033A4000223237723689B6913F4407F5FD0204670
:1033B400FFF7CEFF0023237723681A6912F0080F62
:1033C40012D0DA6812F0080F0ED06FF008021A61FA
:1033D400042323772368DB6913F0030F4ED02046C0
:1033E400FFF7B6FF0023237723681A6912F0100F42
:1033F40012D0DA6812F0100F0ED06FF010021A61BA
:10340400082323772368DB6913F4407F3DD02046EB
:10341400FFF79EFF0023237723681A6912F0010F38
:1034240003D0DA6812F0010F36D123681A6912F05A
:10343400800F03D0DA6812F0800F34D123681A6940
:1034440012F0400F03D0DA6812F0400F32D1236833
:103454001A6912F0200F03D0DA6812F0200F30D16D
:1034640010BDFFF774FF2046FFF773FF8AE720467D
:10347400FFF76DFF2046FFF76CFF9BE72046FFF741
:1034840066FF2046FFF765FFACE72046FFF75FFFC6
:103494002046FFF75EFFBDE76FF001021A61204688
:1034A400FFF754FFC1E76FF080021A61204600F075
:1034B40078FAC3E76FF040021A612046FFF74AFF2B
:1034C400C5E76FF020021A61204600F069FAC7E7E9
:1034D4000368254A90420ED0B0F1804F0BD0A2F57C
:1034E4007C42904207D002F58062904203D002F5FC
:1034F4008062904203D123F070034A6813431A4A4E
:1035040090421AD0B0F1804F17D0A2F57C4290427D
:1035140013D002F5806290420FD002F5806290428F
:103524000BD002F59A32904207D002F580629042A5
:1035340003D002F58062904203D123F44073CA6839
:10354400134323F080034A69134303608B68C36207
:103554000B688362044B984202D001234361704795
:103564000B690363F9E700BF0000014040B310B5E5
:10357400044690F83D30F3B1022384F83D302146EF
:1035840051F8040BFFF7A4FF012384F8463084F8B4
:103594003E3084F83F3084F8403084F8413084F879
:1035A400423084F8433084F8443084F8453084F859
:1035B4003D30002010BD80F83C3002F091F9DBE78B
:1035C4000120704740B310B5044690F83D30F3B184
:1035D400022384F83D30214651F8040BFFF778FFAD
:1035E400012384F8463084F83E3084F83F3084F870
:1035F400403084F8413084F8423084F8433084F811
:10360400443084F8453084F83D30002010BD80F803
:103614003C30FFF79AFEDBE70120704730B4036AC1
:1036240023F010030362036A4468826922F4E642C9
:103634000D6842EA052223F020038D6843EA05134E
:103644000E4DA84209D00D4DA8420ED044608261AF
:103654004A688263036230BC704723F08003CD68FC
:1036640043EA051323F04003EDE724F440644D6975
:1036740044EA85048D6944EA8504E7E700000140D3
:1036840038B590F83C30012B60D004460D46012338
:1036940080F83C300C2A1AD8DFE802F0071919190F
:1036A4001D1919193119191944000068FFF79AFDF9
:1036B4002268936943F0080393612268936923F0B5
:1036C400040393612268936929690B439361002081
:1036D40084F83C0038BD0068FFF7A0FF22689369B6
:1036E40043F4006393612268936923F480639361D4
:1036F40022689369296943EA01239361E7E7006833
:10370400FFF79EFD2268D36943F00803D361226862
:10371400D36923F00403D3612268D36929690B4375
:10372400D361D4E70068FFF7BDFD2268D36943F491
:103734000063D3612268D36923F48063D361226870
:10374400D369296943EA0123D361C0E70220C1E7B1
:1037540010B4846824F47F4C42EA03220A4342EA08
:103764000C0282605DF8044B704790F83C30012BEA
:1037740066D010B50446012380F83C30022380F85B
:103784003D300268936823F47F4323F0770393600A
:103794000B68602B40D022D8402B47D00BD9502B3C
:1037A4000ED1CA6849680068FFF7A0FD502120685F
:1037B400FFF7C3FD04E0202B0CD008D9302B09D02F
:1037C400012384F83D30002084F83C0010BD0BB187
:1037D400102BF5D119462068FFF7AFFDF0E7702BE9
:1037E4000ED0B3F5005FEBD1CB684A6889680068F6
:1037F400FFF7AEFF2268936843F480439360DFE7EA
:10380400CB684A6889680068FFF7A2FF226893685A
:1038140043F077039360D3E7CA6849680068FFF709
:1038240078FD60212068FFF788FDC9E7CA68496808
:103834000068FFF75BFD40212068FFF77EFDBFE7CE
:103844000220704710B50468A26822F070024B6829
:10385400134323F007030A681343A3604B68602BE8
:103864002CD00CD8402B14D0502B06D10A6989686F
:103874000068FFF73BFD002028E0002026E0702BC5
:1038840023D10B698A68C9680068FFF761FF0020CB
:103894001CE00B68052B1AD003681C6A1A6A22F014
:1038A40001021A620268936923F0F003096943EA8A
:1038B4000113936103681C62002007E00A698968A8
:1038C4000068FFF726FD002000E0002010BD012065
:1038D400FCE790F83C30012B22D010B504460123BC
:1038E40080F83C30022380F83D30FFF7ABFF80B90D
:1038F4002268D36823F04003D3602268D36823F49A
:103904008043D360012384F83D30002384F83C30A5
:1039140010BD012084F83D00002384F83C30F7E713
:103924000220704790F83C30012B35D010B40123AD
:1039340080F83C30022380F83D3003685A689C6864
:1039440022F0700C0A6842EA0C025A600368134AB7
:10395400934212D0B3F1804F0FD0A2F57C42934230
:103964000BD002F58062934207D002F58062934245
:1039740003D002F59A32934204D124F080044A68B9
:1039840014439C60012380F83D30002380F83C30D0
:1039940018465DF8044B7047022070470000014050
:1039A4007047704738B504460268136923F44053DE
:1039B400C1680B431361836802691343426913436B
:1039C400C2691A430168CB6823F4164323F00C033D
:1039D4001343CB600268536923F4407381690B433A
:1039E40053610368314A934206D002F580629342E0
:1039F40002D0FFF71DF801E0FFF72AF8E369B3F5F9
:103A0400004F29D00021031849411B1841F100013E
:103A1400C90041EA5371DB00181863684FEA830256
:103A24004FEA937341F10001FCF74CFC204DA5FBD8
:103A340000325109642303FB11031B013233A5FB3C
:103A440003235B0903F0F00202EB011203F00F03FE
:103A5400216813448B6038BD0023021843EB030133
:103A6400121841F10001C90041EA5271D200101844
:103A740041F10001626892185B41FCF723FC0C4D94
:103A8400A5FB00325109642303FB1103DB0032332D
:103A9400A5FB03235B095A0002F4F87202EB01123E
:103AA40003F00703216813448B60D4E7001001403E
:103AB4001F85EB5158B310B5044690F83D300BB355
:103AC400242384F83D302268D36823F40053D36060
:103AD4002046FFF767FF2268136923F490431361BC
:103AE4002268536923F02A0353612268D36843F49C
:103AF4000053D36000202064202384F83D3084F8F0
:103B04003E3010BD80F83C3001F0E6FFD8E70120DC
:103B140070470B6893FAA3F3B3FA83FC56E08D68FD
:103B2400826893FAA3F4B4FA84F464004FF0030EA9
:103B34000EFA04F422EA040293FAA3F4B4FA84F425
:103B4400640005FA04F422438260CC68426822EAE5
:103B5400030203FB04F42243426045E093FAA3F218
:103B6400B2FA82F2072A15D84D69026A93FAA3F4CD
:103B7400B4FA84F4A4000F2606FA04F422EA040238
:103B840093FAA3F4B4FA84F4A40005FA04F42243E7
:103B9400026241E04C69456A1A0A92FAA2FEBEFA30
:103BA4008EFE4FEA8E0E0F2606FA0EFE25EA0E054D
:103BB40092FAA2F2B2FA82F2920004FA02F22A43D0
:103BC400426229E0002070BD0CF1010C0B6833FA4D
:103BD4000CF244D0012202FA0CF21340F4D070B576
:103BE4004A68013A012A9AD9C26893FAA3F4B4FA4A
:103BF40084F46400032505FA04F422EA040293FA27
:103C0400A3F4B4FA84F464000D6905FA04F42243BD
:103C1400C2604A68022AA1D04A68046893FAA3FEE3
:103C2400BEFA8EFE4FEA4E0E032505FA0EFE24EA76
:103C34000E0E93FAA3F3B3FA83F35B0002FA03F3D1
:103C44004EEA030303600CF1010C0B6833FA0CF227
:103C5400B8D0012202FA0CF21340F4D0C0E70020DD
:103C640070470000002301330C4A934211D80269C3
:103C7400002AF8DA036943F00103036100230133E6
:103C8400064A934207D8026912F0010FF7D10020C7
:103C94007047032070470320704700BF400D0300A6
:103CA40084B010B5044603A880E80E00089B012BDD
:103CB4001FD1A36B23F48033A363E36823F4840349
:103CC40023F04003E360E36823F44013E3600F9BB5
:103CD400012B09D02046FFF7C5FF069B012B1BD003
:103CE400BDE8104004B07047E36843F48013E36018
:103CF400F0E7E36843F04003E3602046FFF7B2FFD8
:103D04000C9B23B9A36B43F48033A363E5E7A36B54
:103D140023F48033A363E0E7A36843F00603A360BE
:103D2400A36843F02003A360DAE70000022A0AD064
:103D34000921C26822F47052C260C36843EA812335
:103D4400C36000207047234B0B44234A93422FD96E
:103D5400224B0B44224A93422CD9A1F57403A3F5B8
:103D64001053204A934227D9A1F18373A3F5E74363
:103D74001D4A934222D31D4B0B441D4A93421FD923
:103D84001C4B0B441C4A93421CD31C4B0B441C4A33
:103D9400934219D3A1F1B773A3F55853194A934227
:103DA40014D3194B0B44194A934211D20721C0E78B
:103DB4000F21BEE70E21BCE70D21BAE70C21B8E7BD
:103DC4000B21B6E70A21B4E70921B2E70821B0E7DD
:103DD4000621AEE7405327FFFF340C00401E1BFFB3
:103DE4003F420F007F4F120020D6130060B6E5FE5D
:103DF4005FE3160000D3CEFE40771B00C05BB3FE2A
:103E0400C091210020753800E05459FEE09C410027
:103E1400836843F00103836000207047836823F0C4
:103E2400010383600020704708B5C36823F0C043D2
:103E3400C360012909D069B9C36843F08043C360F2
:103E44003220FCF7BFFF002008BDC36843F00053D5
:103E5400C360F5E70120F7E7890141F02001016122
:103E640000230133054A934205D8026912F0200F5A
:103E7400F7D1002070470320704700BF400D0300B6
:103E84001023036100230133054A934205D80269D4
:103E940012F0100FF7D1002070470320704700BFC5
:103EA400400D0300D0F800381943C0F80018002072
:103EB4007047000084B02DE9F041044607A880E86B
:103EC4000E00002306E003F1400204EB820200210D
:103ED400516001330E2BF6D9119F27BBD4F8043857
:103EE40043F00203C4F80438A36B43F40013A36340
:103EF400A36B23F40023A363A36B23F48023A363A2
:103F04000023C4F8003E04F50065D4F80038C4F872
:103F140000380C9B012B14D1099B6BB9002120465E
:103F2400FFF7C0FF11E0A36B23F40013A363A36B9B
:103F340043F40023A363E3E701212046FFF7B2FF24
:103F440003E003212046FFF7ADFF10212046FFF7D1
:103F540083FF804608B14FF001082046FFF790FF29
:103F640008B14FF0010800232B616B61EB610AE09B
:103F7400C3B94FF00060C2F8000900220A614FF68D
:103F84007F328A6001330799994210D904EB4312B6
:103F940002F51061D2F800090028E9DB0020C2F81C
:103FA4000009EAE74FF09040C2F80009E5E7002372
:103FB4000AE0C3B14FF0904CC2F800CB002202617A
:103FC4004FF67F3282600133994211D904EB4312D8
:103FD40002F53060D2F8006B002EEADB4FF0000CE3
:103FE400C2F800CBEAE74FF0006CC2F800CBE5E77B
:103FF4002B6923F480732B610023A3616FF080434A
:1040040063610A9B1BB9A36943F01003A361A2690E
:104014000B4B1343A3610D9B1BB1A36943F008032E
:10402400A361012F04D04046BDE8F04104B07047BD
:10403400A36943F0804343F00403A361F3E700BFA3
:1040440000383C80D0F8083813F0060307D0022B60
:1040540007D0062B01D00F207047022070470020A4
:1040640070470220704710B591F800C04B78012BBF
:1040740023D000F5006ED0F81C380CF00F04012298
:10408400A24043EA0243C0F81C3800EB4C10D0F8BD
:10409400003B13F4004F0ED1D0F8003B8A68C2F302
:1040A4000A02C97842EA8142134343F0805343F43D
:1040B4000043C0F8003B002010BDD0F81C280CF0D1
:1040C4000F0E03FA0EF39BB21343C0F81C3800EB37
:1040D4004C10D0F8003913F4004FECD1D0F800396B
:1040E4008A68C2F30A02C97842EA814242EA8C5CD5
:1040F40043EA0C0343F0805343F40043C0F800390F
:10410400D9E7000030B40B784A78012A26D000EBB6
:104114004313D3F8002B002A52DBD0F83C480A782A
:1041240002F00F024FF0010C0CFA02F224EA0242F0
:10413400C0F83C28D0F81C28097801F00F010CFACB
:1041440001FC22EA0C42C0F81C28D3F8001B234AC5
:104154000A40C3F8002B002030BC704700EB431327
:10416400D3F80029002A1EDBD0F83C580A7802F064
:104174000F02012404FA02F292B225EA0202C0F804
:104184003C28D0F81C28097801F00F018C40A4B217
:1041940022EA0404C0F81C48D3F80019104A0A4063
:1041A400C3F80029D7E7D3F8002942F00062C3F826
:1041B4000029D3F8002942F08042C3F80029D3E74C
:1041C400D3F8002B42F00062C3F8002BD3F8002B85
:1041D40042F08042C3F8002B9FE700BF0078F3EF62
:1041E400007833EC70B40B784C78012C27D000EBBA
:1041F400431000F530631C69E40CE4041C611C6981
:1042040024F0FF5424F4C0141C614C690CB18C6874
:104214004C611C6944F400241C611C698D68C5F35D
:10422400120C44EA0C041C61012A66D0D0F8003B4D
:1042340043F00443C0F8003B002070BC70474C6955
:104244006CBB00EB4314D4F8105925F0FF5525F44A
:10425400C015C4F81059D4F8105945F40025C4F811
:104264001059D4F81059ED0CED04C4F81059012A72
:1042740034D000EB4313D3F8002942F00442C3F8CE
:1042840000294B69002BD7D0D0F834380A7802F0D3
:104294000F0101228A401343C0F83438CCE700EB05
:1042A400431404F510642569ED0CED0425612569BA
:1042B40025F0FF5525F4C01525618D684E69AE4281
:1042C40000D94D61256945F40025256125694E69AC
:1042D400C6F3120C45EA0C052561C8E70A691AB150
:1042E40000EB4311C1F8142900EB4310D0F8002966
:1042F40042F00442C0F800299EE7CA68002A95D01B
:104304005A6193E710B59DF8084084B903334FEA26
:10431400930E4FF0000C08E000EB023303F58053DA
:1043240051F8044B1C600CF1010CF445F4D300204B
:1043340010BD0000F0B583B00B784C78012C33D05D
:1043440000EB431303F5306CDCF81040E40CE40498
:10435400CCF81040DCF8104024F0FF5424F4C014CE
:10436400CCF810404C69002C40F0CA80DCF81040B6
:104374008D68C5F312052C43CCF81040DCF81040CE
:1043840044F40024CCF81040012A00F0D380CA7809
:10439400012A00F0D680D3F8002B42F00442C3F87F
:1043A400002B002003B0F0BD4C6984BB00EB431428
:1043B400D4F8105925F0FF5525F4C015C4F8105948
:1043C400D4F8105945F40025C4F81059D4F81059FC
:1043D400ED0CED04C4F81059012A4FD000EB43133F
:1043E400D3F8004944F00444C3F80049CC78012CC4
:1043F4006DD04B69002BD4D0D0F834380A7802F051
:104404000F0101228A401343C0F83438C9E700EB96
:104414004314D4F81059ED0CED04C4F81059D4F831
:10442400105925F0FF5525F4C015C4F81059D4F8D7
:1044340010598E684F6907EB060C0CF1FF3CBCFB6E
:10444400F6FC494E06EACC4C45EA0C05C4F8105972
:10445400D4F810594E69C6F312063543C4F81059FE
:1044640004F51064CD78012DB6D1256925F0C04539
:104474002561256945F000552561ADE70A691AB142
:1044840000EB4314C4F81429CA78012A08D000EBBD
:104494004313D3F8002942F00442C3F8002980E70B
:1044A400D0F8082812F4807F08D100EB4311D1F82A
:1044B400002942F00052C1F80029E8E700EB43115B
:1044C400D1F8002942F08052C1F80029DFE7D0F882
:1044D400084814F4807F0CD1D3F8004944F0005408
:1044E400C3F8004900928B8A0A78C968FFF70AFF6B
:1044F40057E7D3F8004944F08054C3F80049F1E782
:104504008D682C44013CB4FBF5F4DCF810501FFA20
:1045140084FE154E06EAC4442543CCF81050DCF85A
:1045240010508C680EFB04F4C4F312042C43CCF832
:10453400104029E7CA68002A3FF429AFCCF81420B8
:1045440025E7D0F8082812F4807F06D1D3F8002B91
:1045540042F00052C3F8002B1DE7D3F8002B42F0C1
:104564008052C3F8002B16E70000F81F8446084663
:10457400D11C8908002305E00CF58052126840F82C
:10458400042B01338B42F7D370470B784A78012A06
:1045940014D000EB4310D0F8002B002A06DB2BB11B
:1045A400D0F8003B23F08043C0F8003BD0F8003B38
:1045B40043F40013C0F8003B0020704700EB4310A5
:1045C400D0F80029002A06DB2BB1D0F8003923F0FB
:1045D4008043C0F80039D0F8003943F40013C0F820
:1045E4000039E9E70B784A78012A0ED000EB431032
:1045F400D0F8003B23F40013C0F8003BCB78023B17
:10460400DBB2012B15D90020704700EB4310D0F822
:10461400003923F40013C0F80039CB78023BDBB235
:10462400012BF0D8D0F8003943F08053C0F800399A
:10463400E9E7D0F8003B43F08053C0F8003BE2E7E1
:10464400D0F8003823F4FE63C0F80038D0F80038FE
:10465400090101F4FE611943C0F8001800207047F5
:10466400D0F8003E23F00303C0F8003ED0F804382D
:1046740023F00203C0F8043800207047D0F8003E4D
:1046840023F00303C0F8003ED0F8043843F00203DB
:10469400C0F80438002070474269806910407047B0
:1046A400D0F8183800F50060C0691840000C704755
:1046B400D0F8183800F50060C069184080B270471F
:1046C40000EB4111D1F8082B00F50060406910405F
:1046D400704710B4D0F81048D0F8343801F00F0205
:1046E400D340DB01DBB2234300EB411000F5106043
:1046F400806818405DF8044B7047406900F0010081
:104704007047D0F8003923F4FF6323F00703C0F89F
:104714000039D0F8043843F48073C0F8043800201A
:104724007047000010B4046C154B9C4203D9D0F8B8
:10473400003B002B16DB0024C0F8104BD0F8104BC4
:1047440044F40024C0F8104BD0F8104B44F0180483
:10475400C0F8104BD0F8104B44F0C044C0F8104BD4
:10476400012903D000205DF8044B7047C0F8142BD6
:10477400D0F8003B43F08023C0F8003BF2E700BFD1
:104784000A30544F82B04FF0E0231B690193019B20
:10479400B0F1FF3F00D0013038B14FF0E0231B6986
:1047A40013F4803FF8D00138F6E702B0704710B533
:1047B400D0F8BC4284B1D0F8C0327BB194F8000286
:1047C400FF280DD09B6894F8012221469847FF23C7
:1047D40084F80032002010BD0320FCE70020FAE733
:1047E4000020F8E74323038000487047440000207A
:1047F400432303800048704788000020432303803C
:1048040000487047D80000200A23038000487047FE
:10481400CC00002038B5D0F8BC5275B1044601F084
:10482400DCFBC5F80C02D4F8C032DB6805F5037173
:10483400D5F804029847002038BD0320FCE710B5E2
:10484400D0F8C442D0F8BC3253B301EB810200EB80
:10485400820292694AB1C1EBC10C04EB8C04646C12
:10486400B2FBF4FC04FB1C2272B10022C3F8142234
:10487400D0F8C0221469ACB10A4603F50471D3F828
:104884000802A047002010BD01EB810300EB830365
:1048940000249C612346224601F0E8FB2046F2E70F
:1048A4000320F0E70020EEE7F0B583B0D0F8BC6257
:1048B40000238DF80730ADF80430002E6CD0074685
:1048C4000C460B7813F060052AD0202D5ED1CA88DF
:1048D400F2B113F0800F0FD0D0F8C0329B6831468C
:1048E40060789847E288072A28BF0722314638466D
:1048F40000F014FE00254CE04B7886F800328B79EA
:1049040086F80132CA88314600F01DFE002540E0D9
:10491400D0F8C0329B68002248789847002538E0D8
:104924004E780B2E2ED8DFE806F006342D2D2D2DD3
:104934002D2D2D2D152490F89C32DBB2032B03D0A2
:1049440000F0C2FA032524E0022201A900F0E6FDEA
:1049540035461EE090F89C32DBB2032B03D000F006
:10496400B3FA032515E001220DF1070100F0D6FD8D
:104974000FE090F89C32DBB2032B0AD000F0A4FACB
:10498400032506E000F0A0FA032502E000F09CFAFB
:104994000325284603B0F0BD0325FAE738B50446DD
:1049A400812101F043FB002525870121204601F0E8
:1049B4003DFBA4F878518221204601F037FBA4F88E
:1049C4004C50A4F84E50D4F8BC324BB1D4F8C03299
:1049D4005B689847D4F8BC0201F00AFBC4F8BC52E7
:1049E400002038BD70B504464FF4077001F0FCFA9E
:1049F400B8B30646C4F8BC02237CBBBB4FF40073B7
:104A040002228121204601F006FB012525874FF46F
:104A1400007302222946204601F0FDFAA4F87851D9
:104A24001023A4F84E30082303228221204601F0EB
:104A3400F2FA0123A4F84C30D4F8C0321B6898472A
:104A44000023C6F81432C6F81832257C15BB4FF47F
:104A54000073D6F804220121204601F00FFB2846FA
:104A640070BD0023C4F8BC320225F8E740230222BB
:104A74008121204601F0CFFA012525874023022217
:104A84002946204601F0C7FAA4F878511023A4F867
:104A94004E30C8E74023D6F804220121204601F015
:104AA400EDFA0025DBE719B1C0F8C0120020704709
:104AB40003207047D0F8BC322BB1C3F80812C3F8F6
:104AC40010220020704703207047D0F8BC321BB17D
:104AD400C3F804120020704703207047D0F8BC22AA
:104AE400A2B108B5D2F814320BB1012008BD0123DC
:104AF400C2F81432D2F81032C362D2F81032D2F8AB
:104B04000822812101F0B2FA0020EFE70320704768
:104B140010B5D0F8BC2292B1047C44B94FF40073B0
:104B2400D2F80422012101F0A9FA204610BD402345
:104B3400D2F80422012101F0A1FA0024F5E70324AC
:104B4400F3E798B108B503460020C3F8B802C3F8E8
:104B5400C002C3F8CC0209B1C3F8B412012183F82E
:104B64009C121A70184601F0EDF908BD0320704735
:104B740010B582B00023ADF8063061B10446C0F828
:104B8400B812CB6A4BB10DF106009847C4F8CC02B9
:104B9400002002B010BD0320FBE70020F9E708B5B0
:104BA40001F031FA08BD08B5D0F8B83213B11B686A
:104BB400984708BD0320FCE708B5D0F8B8320BB11C
:104BC4005B689847002008BD38B5044600F2AA2562
:104BD400284600F065F90123C4F89432B4F8B032E1
:104BE400C4F8983294F8AA1201F01F03012B0DD0D7
:104BF400022B10D02BB101F08001204601F01EFAE7
:104C040003E02946204600F00AFB38BD2946204629
:104C140000F03DFBF9E72946204600F06CFBF4E781
:104C240038B504460D4641BB1346D0F89422032AF6
:104C340001D0084638BDD0F85C11D0F8602191420B
:104C440009D890F89C32DBB2032B0FD0204600F039
:104C540091FC2846EEE7891AC0F85C118A4228BF05
:104C64000A46194600F07EFC2846E3E7D0F8B8323D
:104C74001B69002BEAD09847E8E790F89C32DBB236
:104C8400032B01D00020D5E7D0F8B8329B690BB1D3
:104C94009847CFE70020CDE738B504460D460029F4
:104CA4004AD11346D0F89422022A05D094F8A032AF
:104CB400012B3CD0284638BDC269016A8A420ED80D
:104CC4008A4218D094F89C32DBB2032B27D080217F
:104CD400204601F0B3F9204600F057FCE6E7521AEB
:104CE400C261194600F027FC00231A4619462046E3
:104CF40001F0C4F9DAE783699942E3D8D0F898223D
:104D04009342DFD20022114600F015FC0021C4F8C2
:104D140098120B460A46204601F0B0F9C6E7D4F8CB
:104D2400B832DB68002BD2D020469847CFE7002367
:104D340084F8A0322846BEE790F89C32DBB2032BFD
:104D440001D00020B7E7D0F8B8325B690BB19847BF
:104D5400B1E70020AFE7012380F89C320023C0F8BC
:104D640094324360C0F8A432D0F8B832F3B170B5CD
:104D74000446D0F8BC221AB15B680BB100219847F5
:104D8400402300221146204601F045F90126A4F8EB
:104D940064614025C4F860512B46002280212046DE
:104DA40001F039F9A6842562002070BD0320704704
:104DB40001740020704790F89C32DBB280F89D3279
:104DC400042380F89C320020704790F89C32DBB2B8
:104DD400042B01D00020704790F89D32DBB280F89C
:104DE4009C32F7E7D0F8B82262B108B590F89C324B
:104DF400DBB2032B01D0002008BDD36923B198474F
:104E04000020F9E7032070470020F5E7D0F8B82226
:104E140062B108B590F89C32DBB2032B01D00020BC
:104E240008BD136A23B198470020F9E703207047AF
:104E34000020F5E7D0F8B82262B108B590F89C32AA
:104E4400DBB2032B01D0002008BD536A23B198477D
:104E54000020F9E7032070470020F5E700207047A1
:104E640008B5012380F89C32D0F8B83213B15B68DE
:104E740001799847002008BD0346002002E0013074
:104E8400C0B201331A78002AF9D1704708B54B88AB
:104E9400012B00D008BDC0F8A43200F06BFBF9E789
:104EA4000B7803704B7843708B78CA7843EA0223FB
:104EB40043800B794A7943EA022383808B79CA7948
:104EC40043EA0223C380704710B50446802101F0F1
:104ED400B5F80021204601F0B1F810BD30B583B01B
:104EE40004460D460023ADF806304A88130A013BF8
:104EF400062B00F2AB80DFE803F0041F33A9A98D71
:104F04009A00D0F8B4321B680DF10601007C984772
:104F1400EA88002A00F0A380BDF80630002B00F0D8
:104F240099809A4228BF1A46ADF8062001462046C9
:104F340000F0F4FA03B030BD037C43B9D0F8B832C2
:104F44009B6A0DF10600984702234370E0E7D0F80E
:104F5400B832DB6A0DF10600984702234370D7E7A5
:104F6400D2B2052A52D8DFE802F003101D2A3744D2
:104F7400D0F8B4325B6823B10DF10601007C984788
:104F8400C6E72946FFF7A0FFD4E7D0F8B4329B6800
:104F940023B10DF10601007C9847B9E72946FFF7D4
:104FA40093FFC7E7D0F8B432DB6823B10DF10601F3
:104FB400007C9847ACE72946FFF786FFBAE7D0F8AC
:104FC400B4321B6923B10DF10601007C98479FE7B9
:104FD4002946FFF779FFADE7D0F8B4325B6923B116
:104FE4000DF10601007C984792E72946FFF76CFF14
:104FF400A0E7D0F8B4329B6923B10DF10601007C1F
:10500400984785E72946FFF75FFF93E72946FFF7AF
:105014005BFF8FE7037C33B9D0F8B8325B6B0DF1DB
:105024000600984774E72946FFF74EFF82E7037CA2
:1050340043B9D0F8B8321B6B0DF10600984707232B
:10504400437065E72946FFF73FFF73E72946FFF7FB
:105054003BFF6FE729462046FFF736FF6AE7204605
:1050640000F088FA66E738B504468B88FBB9CB882C
:10507400EBB94B887F2B1AD803F07F0590F89C324C
:10508400DBB2032B0CD080F89E52294600F0E6FFD9
:10509400204600F06FFA35B1022384F89C3209E00F
:1050A400FFF712FF06E0012384F89C3202E0204659
:1050B400FFF70AFF38BD000070B504460E468D7830
:1050C4002E4B1D70012D10D890F89C32DBB2022BB0
:1050D4000FD0032B23D0FFF7F7FE284B1978204677
:1050E400FFF76AFD0325284670BDFFF7EDFE032593
:1050F400F9E78DB145602946FFF755FD054620B116
:1051040031462046FFF7E0FEEDE7204600F032FA94
:10511400032384F89C32E6E700F02CFAE3E7CDB1F0
:1051240041688D4225D0C9B2FFF746FD134B19786B
:1051340061602046FFF737FD0546B0B13146204691
:10514400FFF7C2FE21792046FFF736FD022384F8DB
:105154009C32C8E7022380F89C3245602946FFF759
:105164002BFD204600F006FABDE7204600F002FAC7
:10517400B9E700F0FFF90025B5E700BF3C0B0020BC
:1051840008B5CB88012B0BD190F89C32DBB2022BF3
:1051940009D9032B09D10122011D00F0BFF901E057
:1051A400FFF792FE08BD5BB213B9FFF78DFEF9E776
:1051B4000146002341F8083F012200F0AFF9F1E76E
:1051C40008B590F89C32013B022B12D8CB88022BF5
:1051D4000CD10023C360D0F8A4320BB10223C36006
:1051E400022200F10C0100F099F908BDFFF76CFEF2
:1051F400FBE7FFF769FEF8E708B590F89C32013B3E
:10520400022B09D84B88012B00D008BD0023C0F81D
:10521400A43200F0AFF9F8E7FFF756FEF5E738B52A
:105224000C7804F06004202C06D0402C04D054B137
:10523400FFF74AFE002404E0D0F8B8329B68984790
:105244000446204638BD4D78092D1DD8DFE805F009
:1052540012191C161C08051C0F0BFFF73FFEF0E784
:10526400FFF701FFEDE7FFF727FF0446E9E7FFF744
:1052740087FFE6E7FFF7A4FF2C46E2E7FFF706FE09
:10528400DFE7FFF7B9FFDCE7FFF71EFED9E770B5EC
:1052940005460C460B7803F06003202B07D0402B07
:1052A40005D023B1FFF710FE0026304670BD95F8F7
:1052B4009C32013B022B18D82379012B0FD8D5F847
:1052C400B8329B682146284698470646E388002B57
:1052D400EBD10028E9D1284600F04CF9E5E7214656
:1052E4002846FFF7F1FD0026DFE721462846FFF7B1
:1052F400EBFD0026D9E7F8B506460D468B880C78F9
:1053040004F06004202C08D0D9B2402C05D06CB134
:105314002946FFF7D9FD002406E0D6F8B8329B6889
:1053240029463046984704462046F8BD6F78012F39
:105334002FD0032F05D0002F59D02946FFF7C4FDE5
:10534400F2E790F89C32DBB2022B05D0032B12D08B
:105354002946FFF7B9FDE7E709B1802904D12946B9
:105364003046FFF7B1FDDFE700F068FE80213046EC
:1053740000F064FED8E76B8823B919B1802901D005
:10538400EB881BB1304600F0F5F8CDE700F056FE8F
:10539400F8E790F89C32DBB2022B05D0032B12D035
:1053A4002946FFF791FDBFE709B1802904D12946B9
:1053B4003046FFF789FDB7E700F040FE8021304614
:1053C40000F03CFEB0E76B88002BADD111F07F0FED
:1053D4000AD1304600F0CEF8D6F8B8329B68294698
:1053E4003046984704469FE700F030FEF1E790F816
:1053F4009C22D2B2022A06D0032A29D02946FFF7DA
:1054040063FD3C4690E709B1802913D113F0800F66
:1054140015D101F07F0101EB8101890001F5A8712B
:105424003144043100230B600222304600F076F848
:105434003C4679E72946FFF747FD3C4674E701F00F
:105444007F0101EB81018900103131440431E9E726
:105454005BB2002B1FDB01F00F0202EB820200EBB8
:105464008202B2F8642122B3002B27DB01F07F0310
:1054740003EB83039C0004F5A8743444043409B199
:10548400802924D10023236002222146304600F0E3
:1054940045F83C4648E701F00F0202EB820200EBBC
:1054A4008202928C002ADFD12946FFF70DFD3C468B
:1054B4003AE72946FFF708FD3C4635E701F07F034C
:1054C40003EB83039C00103434440434D7E73046A0
:1054D40000F06CFD10B101232360D5E700232360A5
:1054E400D2E7D0B170B50D4616460446FFF7C4FCAA
:1054F400431C5B009BB233802B7003236B7002232D
:1055040007E0EA5401345A1CD2B20021A9540233F0
:10551400DBB22278002AF4D170BD704708B5134677
:105524000222C0F894228361C3610A46002100F07C
:105534009DFD002008BD08B513460A46002100F071
:1055440095FD002008BD08B513460322C0F8942237
:10555400C0F85831C0F85C310A46002100F08EFDD5
:10556400002008BD08B513460A46002100F086FD58
:10557400002008BD08B50422C0F8942200231A466E
:10558400194600F073FD002008BD08B50522C0F8D7
:10559400942200231A46194600F070FD002008BD2D
:1055A40082B0002100910B4B5A6C42F480425A6441
:1055B4005A6C02F480420092009A01911A6C42F0F3
:1055C40080521A641B6C03F080530193019B02B058
:1055D400704700BF0038024070B588B000230393C1
:1055E4000493059306930793026803F1804303F53C
:1055F40090339A4201D008B070BD0446002500954E
:1056040003F58C335A6C42F480725A645A6C02F477
:1056140080720092009A01951A6B42F001021A639B
:105624001A6B02F001020192019A02951A6B42F080
:1056340002021A631B6B03F002030293029BC02352
:1056440003930326049603A91748FBF78BFF0396DD
:105654000496059503A91548FBF784FF1448154BD8
:10566400036045608560C5604FF4806303614FF457
:10567400006343614FF4005383614FF48073C3614B
:105684004FF4803303620423436286624FF08073D5
:10569400C3620563FBF712FE18B9054BA3639C6351
:1056A400A9E7FAF7E7FFF8E7000002400004024028
:1056B4002006002070640240F0B589B000230393F3
:1056C40004930593069307930268334B9A4201D0DF
:1056D40009B0F0BD044600250195304E336B43F00C
:1056E40002033363336B03F002030193019BC02372
:1056F4000393122304930123059306930427079726
:1057040003A92748FBF72EFF0295336C43F40013DB
:105714003364336C03F400130293029B2148224B3D
:1057240003604FF0007343608560C5604FF480638D
:10573400036145614FF4005383614FF48073C36187
:105744004FF44033036247628562C5620563FBF729
:10575400B5FDD8B9134BA3639C631448144B036081
:105764004FF000734360402383600023C3604FF411
:105774008062026143618361C36103624362FBF738
:105784009DFD30B9094B63639C63A1E7FAF772FF8F
:10579400E0E7FAF76FFFF5E70054004000380240F5
:1057A400000402408006002010600240E006002051
:1057B400B860024008B50268084B9A4200D008BDA0
:1057C400074B0122C3F83C2E002204212920FBF7B9
:1057D400B1FC2920FBF7E6FCF1E700BF00280040FC
:1057E4000000474270B588B00023039304930593E7
:1057F400069307930268344B9A4201D008B070BDF7
:1058040004460025019503F584335A6C42F4805212
:105814005A645A6C02F480520192019A02951A6BEE
:1058240042F002021A631B6B03F002030293029B11
:105834003823039302230493012606960523079332
:1058440003A92248FBF78EFE2148224B03604FF048
:10585400C06343608560C5604FF480630361456144
:105864004FF4804383614FF48073C3614FF440333A
:105874000362042343628662C5620563FBF71EFD6F
:10588400D8B9134BE3649C631348144B03604FF083
:10589400C0634360402383600023C3604FF480628D
:1058A400026143618361C36103624362FBF706FDE6
:1058B40030B9094BA3649C63A0E7FAF7DBFEE0E789
:1058C400FAF7D8FEF5E700BF0030014000040240BB
:1058D4004007002010640240A007002058640240E2
:1058E40010B58CB000230793089309930A930B9384
:1058F40003683E4A93420DD03D4A934234D03D4A18
:10590400934245D03C4A93424FD03C4A934260D0A4
:105914000CB010BD00240194394B5A6C42F00102C2
:105924005A645A6C02F001020192019A02941A6BB1
:1059340042F001021A631B6B03F001030293029B02
:105944004FF4807307931223089301230B9307A941
:105954002C48FBF707FE224602211920FBF7EAFB3D
:105964001920FBF71FFCD3E700220392244B196C88
:1059740041F0020119641B6C03F002030393039BBF
:1059840003211D20FBF7D6FB1D20FBF70BFCBFE713
:10599400002304931A4B5A6C42F480325A645B6CB1
:1059A40003F480330493049BB2E700220592144B62
:1059B400596C41F4003159645B6C03F40033059372
:1059C400059B02211920FBF7B5FB1920FBF7EAFB25
:1059D4009EE7002306930A4B5A6C42F480225A64D1
:1059E4005B6C03F480230693069B91E7000001405F
:1059F40000040040004001400044014000480140D0
:105A0400003802400000024000B589B0002303932F
:105A140004930593069307930368294A934208D095
:105A2400284A93421CD0284A934231D009B05DF8E9
:105A340004FB00230093254B1A6B42F001021A6306
:105A44001B6B03F001030093009B042303930223C5
:105A540004930323079303A91D48FBF783FDE5E79C
:105A640000230193194B1A6B42F002021A631B6B59
:105A740003F002030193019B4FF480730393022309
:105A840004930323079303A91248FBF76BFDCDE7A7
:105A9400002302930D4B1A6B42F002021A631B6B34
:105AA40003F002030293029B4FF400730393022357
:105AB40004930323079303A90648FBF753FDB5E7B3
:105AC40000400140004401400048014000380240C9
