:020000040800F2
:1000000000000120B9900008A58A0008AD8A000808
:10001000AF8A0008B18A0008B38A00080000000017
:10002000000000000000000000000000B58A000889
:10003000B78A000800000000B98A0008BB8A0008DF
:100040000991000809910008099100080991000828
:100050000991000809910008099100080991000818
:10006000099100080991000809910008C58A000853
:1000700009910008099100080991000809910008F8
:10008000099100080991000809910008000000008A
:1000900000000000000000000000000009910008BE
:1000A00009910008D58A0008099100080991000803
:1000B00009910008ED8A00080991000809910008DB
:1000C00009910008099100080991000809910008A8
:1000D000099100080991000809910008000000003A
:1000E00009910008FD8A000809910008000000003D
:1000F0000000000000000000000000000D8B000860
:100100000000000009910008099100080991000809
:1001100000000000000000000000000000000000DF
:100120001D8B0008099100082D8B00083D8B0008ED
:100130004D8B0008000000000000000000000000DF
:100140000000000000000000000000005D8B0008BF
:1001500009910008099100086D8B000809910008B9
:10016000099100080991000800000000000000004B
:10017000000000000000000000000000000000007F
:1001800000000000099100080000000000000000CD
:0401900009910008C9
:1001C00001F0FF01102A2BDB10F0070F08D010F808
:1001D000013B013A8B422DD010F0070F42B3F6D10C
:1001E000F0B441EA012141EA014122F007047FF025
:1001F00000070023F0E80256083C85EA010586EA7C
:10020000010685FA47F5A3FA87F586FA47F6A5FAB7
:1002100087F68EB9EED1F0BC01F0FF0102F00702C3
:1002200032B110F8013B013A83EA010313B1F8D16E
:100230000020704701387047002D06BF354603384F
:10024000073815F0010F07D1013015F4807F02BF88
:10025000013015F4C03F0130F0BC0138704700BFD9
:10026000844641EA000313F003036DD1403A41D3C1
:1002700051F8043B40F8043B51F8043B40F8043B80
:1002800051F8043B40F8043B51F8043B40F8043B70
:1002900051F8043B40F8043B51F8043B40F8043B60
:1002A00051F8043B40F8043B51F8043B40F8043B50
:1002B00051F8043B40F8043B51F8043B40F8043B40
:1002C00051F8043B40F8043B51F8043B40F8043B30
:1002D00051F8043B40F8043B51F8043B40F8043B20
:1002E00051F8043B40F8043B51F8043B40F8043B10
:1002F000403ABDD2303211D351F8043B40F8043BB0
:1003000051F8043B40F8043B51F8043B40F8043BEF
:1003100051F8043B40F8043B103AEDD20C3205D3BF
:1003200051F8043B40F8043B043AF9D2043208D0B7
:10033000D2071CBF11F8013B00F8013B01D30B8829
:1003400003806046704700BF082A13D38B078DD007
:1003500010F003038AD0C3F10403D21ADB071CBFD9
:1003600011F8013B00F8013B80D331F8023B20F843
:10037000023B7BE7043AD9D3013A11F8013B00F87C
:10038000013BF9D20B7803704B7843708B78837004
:100390006046704700000000000000000000000000
:1003A000A2EB0300704700BF02780B78012A28BF38
:1003B0009A42F5D16DE9044540EA0104CDE90267AE
:1003C0006FF0000C4FEA447212B380EA010414F09B
:1003D000070F6AD100F0070420F0070004F00305BE
:1003E00021F007014FEAC505F0E8042314F0040FDB
:1003F000F1E804670CFA05F462EA040266EA04060E
:100400000AD063EA0403624667EA0407664603E02B
:10041000F0E80423F1E8046782FA4CF582EA060466
:10042000A4FA8CF46CBB83FA4CF583EA0705A5FAB1
:100430008CF595B950E9022351E9026782FA4CF52F
:1004400082EA0604A4FA8CF483FA4CF583EA0705E1
:10045000A5FA8CF52543DBD09CB92DBAB5FA85F405
:1004600024F0070427FA04F1DDE9026723FA04F314
:1004700003F0FF0001F0FF01FDE80445A0EB0100DF
:10048000704724BAB4FA84F424F0070426FA04F17D
:10049000DDE9026722FA04F202F0FF0001F0FF0139
:1004A000FDE80445A0EB0100704714F0030F3CD1B8
:1004B00010F0030428D150F8082B51F8083B82FAB9
:1004C0004CF582EA0305A5FA8CF55DB950F8042CC9
:1004D00051F8043C82FA4CF582EA0305A5FA8CF542
:1004E000002DE8D02DBAB5FA85F424F0070423FADC
:1004F00004F122FA04F202F0FF0001F0FF01FDE82E
:100500000445A0EB010070474FEAC40420F003004B
:1005100050F8082B21F0030151F8083B0CFA04F4C1
:1005200062EA040263EA0403C9E710F003041AD084
:10053000A1EB040120F00300E40750F8042B06D0DF
:100540000FD28B785FFAA2F4E41A06D12BB1CB78E4
:100550005FFAB2F4E41A00D11BB920465DF8104BE3
:10056000704701F1040150F8042BCC0721F003017E
:1005700051F8043B48D824D222F07F4482FA4CF54B
:1005800094EA1325A5FA8CF50AD165B951F8043B14
:1005900084EA0204B4EB036F0ED150F8042BEBE7AE
:1005A0004FEA132355E035F07F454DD10878FDE83B
:1005B0000445C0F1000070474FEA126203F0FF03E8
:1005C00047E002EA1C4482FA4CF594EA1345A5FA86
:1005D0008CF50AD165B951F8043B84EA0204B4EB06
:1005E000034F0CD150F8042BEBE74FEA134330E0F4
:1005F00015EA1C4528D10B884FEA124229E04FEA40
:10060000124203EA1C4324E002F0FF0482FA4CF594
:1006100094EA1365A5FA8CF50AD165B951F8043B43
:1006200084EA0204B4EB032F09D150F8042BEBE762
:100630004FEA13630DE015F0FF0F05D10B684FEA89
:10064000122223F07F4304E04FF00000FDE8044550
:10065000704712BA1BBA82FA4CF482EA0304A4FA75
:100660008CF5B5FA85F402FA04F203FA04F34FEAC2
:100670001260FDE80445A0EB136070470000000025
:1006800090F800F06DE9024520F007016FF0000CD2
:1006900010F0070491F820F040F049804FF000047A
:1006A0006FF00700D1E9002391F840F000F1080055
:1006B00082FA4CF2A4FA8CF283FA4CF3A2FA8CF38D
:1006C0004BBBD1E9022382FA4CF200F10800A4FAF4
:1006D0008CF283FA4CF3A2FA8CF3E3B9D1E9042348
:1006E00082FA4CF200F10800A4FA8CF283FA4CF37F
:1006F000A2FA8CF37BB9D1E9062301F1200182FA39
:100700004CF200F10800A4FA8CF283FA4CF3A2FA3E
:100710008CF3002BC6D0002A04BF04301A4612BA4C
:10072000B2FA82F2FDE8024500EBD2007047D1E94F
:10073000002304F00305C4F100004FEAC50514F0DE
:10074000040F91F840F00CFA05F562EA05021CBFAF
:1007500063EA050362464FF00004A9E781F0004117
:1007600002E000BF83F0004330B54FEA41044FEA96
:10077000430594EA050F08BF90EA020F1FBF54EA31
:10078000000C55EA020C7FEA645C7FEA655C00F0CD
:10079000E2804FEA5454D4EB5555B8BF6D420CDD9E
:1007A0002C4480EA020281EA030382EA000083EA21
:1007B000010180EA020281EA0303362D88BF30BDC1
:1007C00011F0004F4FEA01314FF4801C4CEA113117
:1007D00002D0404261EB410113F0004F4FEA033376
:1007E0004CEA133302D0524263EB430394EA050F01
:1007F00000F0A780A4F10104D5F1200E0DDB02FA70
:100800000EFC22FA05F2801841F1000103FA0EF203
:10081000801843FA05F359410EE0A5F120050EF1C9
:10082000200E012A03FA0EFC28BF4CF0020C43FAFA
:1008300005F3C01851EBE37101F0004507D54FF007
:10084000000EDCF1000C7EEB00006EEB0101B1F557
:10085000801F1BD3B1F5001F0CD349085FEA30009D
:100860004FEA3C0C04F101044FEA445212F5800FA8
:1008700080F09A80BCF1004F08BF5FEA500C50F145
:10088000000041EB045141EA050130BD5FEA4C0C28
:10089000404141EB0101013C28BFB1F5801FE9D285
:1008A00091F0000F04BF01460020B1FA81F308BFA8
:1008B0002033A3F10B03B3F120020CDA0C3208DD74
:1008C00002F1140CC2F10C0201FA0CF021FA02F14F
:1008D0000CE002F11402D8BFC2F1200C01FA02F1BF
:1008E00020FA0CFCDCBF41EA0C019040E41AA2BFE4
:1008F00001EB0451294330BD6FEA04041F3C1CDAAC
:100900000C340EDC04F11404C4F1200220FA04F0CB
:1009100001FA02F340EA030021FA04F345EA030175
:1009200030BDC4F10C04C4F1200220FA02F001FA37
:1009300004F340EA0300294630BD21FA04F02946B9
:1009400030BD94F0000F83F4801306BF81F4801152
:100950000134013D4EE77FEA645C18BF7FEA655CC5
:1009600029D094EA050F08BF90EA020F05D054EA97
:10097000000C04BF1946104630BD91EA030F1EBF9C
:100980000021002030BD5FEA545C05D140004941A0
:1009900028BF41F0004130BD14F580043CBF01F593
:1009A000801130BD01F0004545F0FE4141F4700179
:1009B0004FF0000030BD7FEA645C1ABF1946104654
:1009C0007FEA655C1CBF0B46024650EA013406BF55
:1009D00052EA033591EA030F41F4002130BD00BF14
:1009E00090F0000F04BF0021704730B54FF48064D1
:1009F00004F132044FF000054FF0000150E700BF52
:100A000090F0000F04BF0021704730B54FF48064B0
:100A100004F1320410F0004548BF40424FF000019D
:100A20003EE700BF42004FEAE2014FEA31014FEAE0
:100A300002701FBF12F07F4393F07F4F81F060512F
:100A4000704732F07F4208BF704793F07F4F04BF7A
:100A500041F40021704730B54FF4607401F0004557
:100A600021F000411CE700BF50EA010208BF7047B7
:100A700030B54FF000050AE050EA010208BF7047A8
:100A800030B511F0004502D5404261EB41014FF411
:100A9000806404F132045FEA915C3FF4D8AE4FF019
:100AA00003025FEADC0C18BF03325FEADC0C18BFFC
:100AB000033202EBDC02C2F1200300FA03FC20FA4D
:100AC00002F001FA03FE40EA0E0021FA02F114449A
:100AD000BDE600BF70B54FF0FF0C4CF4E06C1CEAB3
:100AE00011541DBF1CEA135594EA0C0F95EA0C0F24
:100AF00000F0DEF82C4481EA030621EA4C5123EA97
:100B00004C5350EA013518BF52EA033541F48011C5
:100B100043F4801338D0A0FB02CE4FF00005E1FB78
:100B200002E506F00042E0FB03E54FF00006E1FBC2
:100B300003569CF0000F18BF4EF0010EA4F1FF0405
:100B4000B6F5007F64F5407404D25FEA4E0E6D4145
:100B500046EB060642EAC62141EA55514FEAC52056
:100B600040EA5E504FEACE2EB4F1FD0C88BFBCF5D2
:100B7000E06F1ED8BEF1004F08BF5FEA500E50F183
:100B8000000041EB045170BD06F0004646EA010149
:100B900040EA020081EA0301B4EB5C04C2BFD4EB7B
:100BA0000C0541EA045170BD41F480114FF0000E74
:100BB000013C00F3AB8014F1360FDEBF002001F0E2
:100BC000004170BDC4F10004203C35DA0C341BDC5C
:100BD00004F11404C4F1200500FA05F320FA04F02E
:100BE00001FA05F240EA020001F0004221F0004162
:100BF00010EBD37021FA04F642EB06015EEA430ED5
:100C000008BF20EAD37070BDC4F10C04C4F1200504
:100C100000FA04F320FA05F001FA04F240EA0200B7
:100C200001F0004110EBD37041F100015EEA430E88
:100C300008BF20EAD37070BDC4F1200500FA05F2A8
:100C40004EEA020E20FA04F301FA05F243EA020327
:100C500021FA04F001F0004121FA04F220EA020036
:100C600000EBD3705EEA430E08BF20EAD37070BD7C
:100C700094F0000F0FD101F00046400041EB01015C
:100C800011F4801F08BF013CF7D041EA060195F03E
:100C9000000F18BF704703F00046520043EB0303F8
:100CA00013F4801F08BF013DF7D043EA06037047E5
:100CB00094EA0C0F0CEA135518BF95EA0C0F0CD0F0
:100CC00050EA410618BF52EA4306D1D181EA030136
:100CD00001F000414FF0000070BD50EA410606BF30
:100CE0001046194652EA430619D094EA0C0F02D175
:100CF00050EA013613D195EA0C0F05D152EA0336BA
:100D00001CBF104619460AD181EA030101F00041D7
:100D100041F0FE4141F470014FF0000070BD41F020
:100D2000FE4141F4780170BD70B54FF0FF0C4CF4FA
:100D3000E06C1CEA11541DBF1CEA135594EA0C0F19
:100D400095EA0C0F00F0A7F8A4EB050481EA030E66
:100D500052EA03354FEA013100F088804FEA03334D
:100D60004FF0805545EA131343EA12634FEA02221B
:100D700045EA111545EA10654FEA00260EF00041DC
:100D80009D4208BF964244F1FD0404F5407402D22E
:100D90005B084FEA3202B61A65EB03055B084FEABF
:100DA00032024FF480104FF4002CB6EB020E75EBBC
:100DB000030E22BFB61A754640EA0C005B084FEAE4
:100DC0003202B6EB020E75EB030E22BFB61A754661
:100DD00040EA5C005B084FEA3202B6EB020E75EBAC
:100DE000030E22BFB61A754640EA9C005B084FEA24
:100DF0003202B6EB020E75EB030E22BFB61A754631
:100E000040EADC0055EA060E18D04FEA051545EA1F
:100E100016754FEA06164FEAC30343EA52734FEAC8
:100E2000C2025FEA1C1CC0D111F4801F0BD141EA41
:100E300000014FF000004FF0004CB6E711F4801FA6
:100E400004BF01430020B4F1FD0C88BFBCF5E06F86
:100E50003FF6AFAEB5EB030C04BFB6EB020C5FEA96
:100E6000500C50F1000041EB045170BD0EF0004EEB
:100E70004EEA113114EB5C04C2BFD4EB0C0541EA1D
:100E8000045170BD41F480114FF0000E013C90E61A
:100E900045EA060E8DE60CEA135594EA0C0F08BFDE
:100EA00095EA0C0F3FF43BAF94EA0C0F0AD150EADD
:100EB00001347FF434AF95EA0C0F7FF425AF104670
:100EC00019462CE795EA0C0F06D152EA03353FF498
:100ED000FDAE1046194622E750EA410618BF52EA15
:100EE00043067FF4C5AE50EA41047FF40DAF52EAE9
:100EF00043057FF4EBAE12E74FF0FF3C06E000BF86
:100F00004FF0010C02E000BF4FF0010C4DF804CD92
:100F10004FEA410C7FEA6C5C4FEA430C18BF7FEA52
:100F20006C5C1BD001B050EA410C0CBF52EA430C80
:100F300091EA030F02BF90EA020F0020704710F100
:100F4000000F91EA030F58BF994208BF90422CBF8F
:100F5000D8176FEAE37040F0010070474FEA410C88
:100F60007FEA6C5C02D150EA013C07D14FEA430CA6
:100F70007FEA6C5CD6D152EA033CD3D05DF8040B17
:100F8000704700BF8446104662468C461946634649
:100F900000E000BF01B5FFF7B7FF002848BF10F120
:100FA000000F01BD4DF808EDFFF7F4FF0CBF012065
:100FB00000205DF808FB00BF4DF808EDFFF7EAFFE1
:100FC00034BF012000205DF808FB00BF4DF808ED9C
:100FD000FFF7E0FF94BF012000205DF808FB00BF91
:100FE0004DF808EDFFF7CEFF94BF012000205DF81B
:100FF00008FB00BF4DF808EDFFF7C4FF34BF012028
:1010000000205DF808FB00BF4FEA410C7FEA6C5CF2
:1010100002D150EA013C0AD14FEA430C7FEA6C5CF2
:1010200002D152EA033C02D14FF0000070474FF06A
:10103000010070474FEA410212F5001215D211D596
:101040006FF47873B3EB625212D94FEAC12343F0C5
:10105000004343EA505311F0004F23FA02F018BF47
:10106000404270474FF00000704750EA013005D110
:1010700011F0004008BF6FF0004070474FF00000D3
:10108000704700BF4FEA4102B2F1E04324BFB3F51D
:10109000001CDCF1FE5C0DD901F0004C4FEAC002EF
:1010A0004CEA5070B2F1004F40EB830008BF20F0D3
:1010B0000100704711F0804F21D113F13872BCBF8D
:1010C00001F00040704741F480114FEA5252C2F1E2
:1010D0001802C2F1200C10FA0CF320FA02F018BF2B
:1010E00040F001004FEAC1234FEAD32303FA0CFC7E
:1010F00040EA0C0023FA02F34FEA4303CCE77FEA0D
:10110000625307D150EA01331EBF4FF0FE4040F456
:101110004000704701F0004040F0FE4040F4000005
:10112000704700BF53B94AB9002908BF00281CBF47
:101130004FF0FF314FF0FF3000F0E2B8ADF1080C96
:101140006DE904CE15F0D4F9DDF804E0DDE9022301
:1011500004B0704700F1340191E838009C46A6467F
:101160004CF8045D90E8FF0FE54600BD90EC210BC4
:10117000704700BF80EC210B704700BF90EC200B44
:10118000704700BF80EC200B704700BFD0EC200BF5
:10119000704700BFC0EC200B704700BFF0EC0201AD
:1011A000F0EC0211F0EC0221F0EC0231F0EC024123
:1011B000F0EC0251F0EC0261F0EC0271F0EC028113
:1011C000F0EC0291F0EC02A1F0EC02B1F0EC02C103
:1011D000F0EC02D1F0EC02E1F0EC02F1704700BF5C
:1011E000E0EC0201E0EC0211E0EC0221E0EC023163
:1011F000E0EC0241E0EC0251E0EC0261E0EC027153
:10120000E0EC0281E0EC0291E0EC02A1E0EC02B142
:10121000E0EC02C1E0EC02D1E0EC02E1E0EC02F132
:10122000704700BFB0FC0181B0FC0191B0FC01A18E
:10123000B0FC01B1704700BFA0FC0181A0FC01918E
:10124000A0FC01A1A0FC01B1704700BFEC4600B5B5
:101250002DE900502DE9FF1F4FF000032DE90C0090
:1012600001A915F0FFFBDDF840E012B0704700BFA8
:10127000EC4600B52DE900502DE9FF1F4FF00003AB
:101280002DE90C0001A915F029FCDDF840E012B0B1
:10129000704700BFEC4600B52DE900502DE9FF1F57
:1012A0004FF000032DE90C0001A915F039FCDDF821
:1012B00040E012B0704700BFEC4600B52DE9005089
:1012C0002DE9FF1F4FF000032DE90C0001AB15F0D5
:1012D000FDFBDDF840E012B0704700BFEC4600B502
:1012E0002DE900502DE9FF1F4FF000032DE90C0000
:1012F00001AA15F071FCDDF840E012B0704700BFA4
:10130000704700BF10B5054C237833B9044B13B1B7
:101310000448AFF300800123237010BD900B002020
:10132000000000008878010808B5034B1BB1034991
:101330000348AFF3008008BD00000000940B0020BC
:101340008878010800B583B00191054B19606423CA
:10135000032201A904F0E1FB03B05DF804FB00BF28
:10136000AC0B002008B5044B1B6803F44033194351
:10137000FFF7E8FF08BD00BFAC0B002008B5034B2A
:101380001B781943FFF7DEFF08BD00BFAC0B002040
:10139000012800D070474FF6FF739942FAD110B57B
:1013A0000A4B18680A4B18600A4B0B4C1C6008204B
:1013B00058600A4B0A4A1A600F225A6007F0A6FECC
:1013C000046001234360074B586010BD30000020CB
:1013D000C40B0020BC0B002000000240B00B00201A
:1013E000000402400000002043681A685B681B0488
:1013F000936100BF00BF00BF00BF704743681A6819
:101400005B6893617047000010B50C46FFF7F8FA6F
:1014100010A3D3E90023FFF75DFB4FF040420C4BD4
:10142000FFF782FCFFF72EFE00EE100A617B4B1CDB
:1014300004EB0313D3ED017A67EE807A04EB011419
:1014400094ED060A37EE800A10BD00BFAFF30080AE
:10145000FFFF5F41FCA9F1D24D62004070B58AB038
:10146000044660B30022002A39D1334B02EB42011B
:10147000080103EB01111C5000230B734B681D681E
:101480005B68286893FAA3FCBCFA8CFC4FEA4C0C0E
:101490004FF0030E0EFA0CFC20EA0C0093FAA3F3B3
:1014A000B3FA83F35B004FF0010C0CFA03F3034330
:1014B0002B604B6819685B688B616244D3E701ADB0
:1014C0001E4E0FCE0FC50FCE0FC5336825F8023B59
:1014D0001B0C2B70232101A801F028F9C2E7184B3F
:1014E00018685968026891FAA1F3B3FA83F35B00B4
:1014F000032404FA03F322EA030391FAA1F103603F
:101500001048056843682A6893FAA3F1B1FA81F19B
:10151000490004FA01F122EA010293FAA3F3B3FAB3
:1015200083F35B00012101FA03F313432B6003688B
:1015300042689A610AB070BD00000020A0780108DE
:10154000BC0B0020B00B002070B50024144B1C70A5
:101550002CBB144B04EB4400020103EB00169B5818
:101560007BB13046FFF740FF0E4A04EB44031801FD
:101570000D49105800F0ACF9307320B93046FFF730
:101580003DFF0134E4E704EB44031B01064A07492D
:10159000B1F900100348C05800F0F2F9EEE770BD51
:1015A000BA0B002000000020C40B0020B80B002064
:1015B0002DE9F8430024184B1C7044BB04EB440293
:1015C0001301164E1E44337BFBB1DFF850806500DB
:1015D0001701737BB373013303F001037373304658
:1015E000FFF702FF727B2B19134401331B010C4AD6
:1015F00058F8031058F8070000F0D0F958F8070021
:1016000000F0B0F93046FFF7F9FE0134D5E7024BA0
:1016100001221A70BDE8F883BA0B002000000020F8
:10162000C40B00202DE9F041154B03221A70002451
:1016300004BB04EB4405134B03EB05152B7BBBB13B
:10164000104F660004EB44084FEA0810A968012314
:101650008A880968385800F0C5F995F80D80294640
:10166000FFF7D2FE2644464407EB061686ED070A2E
:101670000134DDE7024B01221A70BDE8F08100BFA2
:10168000BA0B002000000020044B1B78DBB2012BBA
:1016900000D07047014B02221A70FAE7BA0B002003
:1016A00008B5044B1B6913F4807F00D008BDFFF719
:1016B000EBFFFBE7000002402DE9F0432DED028B2C
:1016C00083B005460E460024274600E00134002C76
:1016D00036D104EB4403204A02EB03131B7B002B9F
:1016E000F4D004EB440302EB031393F80E8004EBF5
:1016F0004401414402EB011292ED078AF0EEC87AF0
:1017000017EE900AFFF78EF911A3D3E90023FFF734
:1017100053FC0028DAD008EB0418A6EB070918EEF2
:10172000100AFFF77FF9CDE9000143460B4A49460D
:1017300028460FF0ADFD0028C8DD07440544C5E785
:10174000384603B0BDEC028BBDE8F083AFF30080F8
:1017500072A774B0FEFF234000000020C478010887
:101760002DE9F04F9DB0064609910024A246002CB9
:101770005FD104EB4403314A02EB03131B7B0BB92B
:101780000134F4E7A0460DF12809B8F1010F25D87E
:101790000AADA9EB0505294904EB440343445A1C4F
:1017A000100101EB0212576801EB031351F800B06E
:1017B000C5F148059869FFF735F9CDE902013846CA
:1017C000FFF730F9CDE900015B461D4A294648463E
:1017D0000FF05EFD814408F10108D6E7174A04EBDB
:1017E00044031D0102EB031359680868D0F800C0D8
:1017F0009B68186800680DF1280ECDF818E04FF0CE
:10180000020ECDF814E05B68049303904B680293DA
:10181000CDF804C05359009323460A4A0999A1EB15
:101820000A0130460FF034FD0028A9DD8244064449
:10183000A6E750461DB0BDE8F08F00BF00000020B5
:10184000D4780108F078010808B54FF6FF7101203F
:10185000FFF79EFD08BD00B583B08900C9B241F015
:1018600040018DF804108DF805206423022201A99F
:1018700004F053F903B05DF804FB00B585B0002314
:10188000ADF80C30ADF80830FF238DF80930890031
:10189000C9B241F020018DF808104FF47A7300931B
:1018A000022303AA02A904F014FA9DF80D0005B062
:1018B0005DF804FB00B583B006238DF80730642380
:1018C00001220DF1070104F028F903B05DF804FBD3
:1018D0002DE9F04104460D46FFF7ECFF642001F0CE
:1018E000E5F82A7800212046FFF7B5FF6A78012144
:1018F0002046FFF7B0FFAA7802212046FFF7ABFF92
:10190000EA7803212046FFF7A6FF0A2001F0CEF86F
:1019100000212046FFF7B1FF064601212046FFF7D0
:10192000ACFF074602212046FFF7A7FF80460321B0
:101930002046FFF7A2FF2B78B34202D00020BDE87B
:10194000F0816B78BB4201D00020F8E7AB784345CB
:1019500001D00020F3E7EB78834201D00020EEE7CE
:101960000120ECE700B583B008238DF8073064232D
:1019700001220DF1070104F0D0F803B05DF804FB7B
:1019800008B59446537803F01F0353700B43DAB243
:101990008CF801200121FFF75EFF08BD08B59446D1
:1019A000137803F00F0313700B43DAB28CF80020A6
:1019B0000021FFF750FF08BD00B583B06423032268
:1019C00001A904F0A2FA9DF804309DF8050040EA50
:1019D00003239DF8060040EA032040F3170003B0FC
:1019E0005DF804FB2DE9F04180460E4615461F4682
:1019F00000242946304601F009FD012807D101F0F5
:101A000055F80134E4B2BC42F3DB002002E040466A
:101A1000FFF7D2FFBDE8F081012800D0704708B57C
:101A20004FF6FF73994200D008BD074B074A1A6072
:101A30000F225A60082007F069FB054B036003235F
:101A40004360044B5860EFE7C80B002000040240DD
:101A5000000002403400002008B5DFED087A20EED7
:101A6000270AF0EE047A80EE270A0EF0FDFABCEEAB
:101A7000C00A10EE103A98B208BD00BF00007F43C4
:101A800043681A685B681B049361704743681A686F
:101A90005B689361704710B52DED028B0446B0EE84
:101AA000408AFFF7EDFFB0EE480AFFF7D5FF014689
:101AB0002068FFF757FC84ED058A2046FFF7E6FF14
:101AC000BDEC028B10BD0000F0B58BB00C46054696
:101AD00050B349B30022002A3CD12D4B02EBC20186
:101AE00003EB810643F82150B46073681F685B689C
:101AF000396893FAA3F0B0FA80F040004FF0030C7D
:101B00000CFA00F021EA000193FAA3F3B3FA83F38D
:101B10005B00012000FA03F30B433B607368196814
:101B20005B688B610244D6E7EC461A4E0FCEACE8F8
:101B30000F000FCEACE80F0096E803004CF8040B42
:101B40002CF8021B090C8CF800102721684600F0C5
:101B5000EDFDBFE7104804684368226893FAA3F1DB
:101B6000B1FA81F14900032505FA01F122EA0102E7
:101B700093FAA3F3B3FA83F35B00012101FA03F3B1
:101B800013432360036842689A610BB0F0BD00BF45
:101B90003400002054790108C80B00200000000028
:101BA000F8B50024002C42D104EBC403224A52F8B9
:101BB0002330002B39D004EBC40302EB8303986875
:101BC00098B304EBC40502EB8505297B00F05EF9B0
:101BD000687350B3184E04EBC405AF0006EB8505DF
:101BE00040F2FD12297BA86800F04AF9286AFEF746
:101BF00019FF02460B460EA1D1E90001FFF794F848
:101C0000FFF740FA00EE100A0EF02EFAFCEEC07A52
:101C10009FED0A0A17EE903A9AB2297BA86800F065
:101C200021F90021F059FFF7A9FB0134BAE7F8BD0B
:101C3000CDCCCCCC4C62E04034000020EFD6A335B4
:101C400038B5002494B904EBC403094A02EB8303BA
:101C50005B7B4BB104EBC40502EB8505297BA868CF
:101C600000F0E6F885ED040A0134EBE738BD00BF6B
:101C70003400002010B52DED028BB0EE408A002418
:101C800064B904EBC400074B03EB8000437B1BB13A
:101C9000B0EE480AFFF7FFFE0134F1E7BDEC028B1E
:101CA00010BD00BF340000202DE9F04383B005468D
:101CB0000E4600242746FCB904EBC403104A02EB8D
:101CC00083035B7BB3B104EBC40302EB83034FEAF2
:101CD0000419A6EB07081869FEF7A4FECDE9000178
:101CE0004B46084A414628460FF0D2FA002801DD4B
:101CF000054407440134DEE7384603B0BDE8F0830D
:101D0000340000207C7901082DE9F04F2DED028B85
:101D10008FB082460C9100242646002C43D104EB60
:101D2000C403244A02EB83035B7B002B39D090462B
:101D300004EBC405AF0002EB8505D5F80490D9F893
:101D400000301B680D9395F80CB095ED068AD5ED23
:101D5000078A286AFEF766FECDE90A0118EE900AA6
:101D6000FEF760FECDE9080118EE100AFEF75AFEF4
:101D7000CDE90601CDF810B0AB680393D9F8043073
:101D800002930D9B019358F80730009323460A4AAB
:101D90000C99891B50460FF07BFA002801DD824424
:101DA00006440134B9E730460FB0BDEC028BBDE804
:101DB000F08F00BF340000208C79010808B54FF681
:101DC000FF710120FFF728FE08BD00B587B04FF472
:101DD0007A7302930223019305AB00930123994088
:101DE00001F0F8FE9DF814009DF8153043EA00203C
:101DF00007B05DF804FB00B587B04FEA132C8DF8EF
:101E000014C08DF815304FF47A73029302230193B6
:101E100005AB00930123994001F02AFE07B05DF85D
:101E200004FB08B50422FFF7D0FF00B208BD000094
:101E300008B5FFF7F6FF07EE900AF8EEE77A034BD6
:101E400093ED000A27EE800A08BD00BFD00B0020EA
:101E500008B54FF400430022FFF7CDFF012000F04A
:101E600025FE08BD08B51346044A4FF0000CC2F821
:101E700000C00522FFF7BFFF08BD00BFD00B002048
:101E800008B513460022FFF7B6FF08BD38B5054672
:101E90000C4602230322490002F00EF808B100208C
:101EA00038BD21462846FFF7D3FF0120F8E70000A0
:101EB000F0B58BB00024049405940694079408941C
:101EC0000994304B1A6B42F004021A631A6B02F049
:101ED00004020392039A1A6B42F080021A631A6B8F
:101EE00002F080020292029A1A6B42F001021A6317
:101EF0001A6B02F001020192019A1A6B42F002027F
:101F00001A631B6B03F002030093009B1E484FF003
:101F1000005383611D4F1E4BBB611E4E4FF060434B
:101F2000B3614FF4005304930125059504A904F00F
:101F300044FD04950594089504A9384604F03DFD38
:101F400048F23A030493059506940794089404A96B
:101F5000384604F032FD4FF48053049305940894FE
:101F600004A9304604F029FD4FF46043049305951D
:101F700006940794089404A9304604F01EFD0BB0A3
:101F8000F0BD00BF003802400008024000000240DF
:101F900000003A800004024010B582B00024009492
:101FA000264B1A6B42F480021A631A6B02F4800209
:101FB0000092009A01941A6B42F400121A631B6B90
:101FC00003F400130193019B224601210B2000F032
:101FD00025FF0B2000F05AFF224603212F2000F09E
:101FE0001DFF2F2000F052FF22460121382000F073
:101FF00015FF382000F04AFF224602213A2000F067
:102000000DFF3A2000F042FF224603213B2000F062
:1020100005FF3B2000F03AFF224602213C2000F061
:10202000FDFE3C2000F032FF22460321462000F056
:10203000F5FE462000F02AFF02B010BD0038024035
:1020400072B6FEE700B585B00023009301930293BA
:1020500003933F483F4A02604FF44032426083603E
:1020600001220261037680F820304FF08051C16276
:102070004FF000618162C3600821C16180F83020A7
:10208000436100F0C1FD00284FD1112300930123CB
:1020900001930723029369462D4800F0E1FD0028D3
:1020A00045D106230093022301936946284800F096
:1020B000D7FD00283DD107230093032301936946F0
:1020C000234800F0CDFD002835D1112300930423CF
:1020D000019369461E4800F0C3FD70BB08230093BE
:1020E0000523019369461A4800F0BAFD38BB09235D
:1020F0000093062301936946154800F0B1FD00BB2B
:1021000010230093072301936946114800F0A8FDAE
:10211000C8B9112300930823019369460C4800F0C5
:102120009FFD90B905B05DF804FBFFF789FFFFF74D
:1021300087FFFFF785FFFFF783FFFFF781FFFFF7BB
:102140007FFFFFF77DFFFFF77BFFFFF779FF00BF02
:10215000D40B00200020014008B50A480A4B036058
:102160000A4B436000238360C3604FF480420261E6
:1021700043618361C361036201F09CFB00B908BD48
:10218000FFF75EFFBC0E002000540040801A0600DE
:1021900008B50D480D4B03604FF482734360002374
:1021A0008360C360036143614FF400728261302237
:1021B000C2610362436283620A23C36203F04EFC7E
:1021C00000B908BDFFF73CFF300F00200030014090
:1021D00000B58DB00023089309930A930B930393E2
:1021E0000493059306930793019302931B481C4A9B
:1021F00002600122426083604AF20F42C2600361C2
:102200004361836104F006F9F8B94FF480530893F1
:1022100008A9124804F0FDF9C8B906230393502316
:102220000493022305930F23079303A90B4804F09B
:10223000A4FA70B900230193029301A9074804F09E
:10224000C5FA40B90DB05DF804FBFFF7F9FEFFF7E2
:10225000F7FEFFF7F5FEFFF7F3FE00BF880F002043
:102260000000014000B587B000230293039304935C
:102270000593009301931448144A02608B22426034
:1022800083604EF65F22C2600361836104F0C2F88E
:1022900098B94FF48053029302A90B4804F0B9F99E
:1022A00068B920230093002301936946064804F08F
:1022B0008DFA30B907B05DF804FBFFF7C1FEFFF7F8
:1022C000BFFEFFF7BDFE00BF60100020000400400D
:1022D00000B58DB00023089309930A930B930193E3
:1022E00002930393049305930693079319481A4A9C
:1022F00002608122426083604FF6FF72C260036118
:10230000836104F087F8E0B94FF48053089308A97B
:10231000104804F07EF9B0B90E4804F0A7F8A0B94F
:1023200060230193002202920392059201A90948B9
:1023300004F0FAF858B9074806F0CCFA0DB05DF889
:1023400004FBFFF77DFEFFF77BFEFFF779FEFFF74B
:1023500077FE00BFF01000200040014000B589B0BA
:102360000023019302930393049305930693079329
:102370001448154A02608122426083604FF6FF7262
:10238000C2600361836104F045F8A0B90D4804F010
:102390006DF890B960230193002202920392059296
:1023A00001A9084804F0C0F848B9064806F092FAB6
:1023B00009B05DF804FBFFF743FEFFF741FEFFF7AE
:1023C0003FFE00BFD00F00200044014000B589B09F
:1023D00000230193029303930493059306930793B9
:1023E0001448154A02608122426083604FF6FF72F2
:1023F000C2600361836104F00DF8A0B90D4804F0D8
:1024000035F890B96023019300220292039205925D
:1024100001A9084804F088F848B9064806F05AFAB5
:1024200009B05DF804FBFFF70BFEFFF709FEFFF7AD
:1024300007FE00BF181000200048014010B590B002
:1024400000240B940C940D940E940F940A9428225B
:10245000214668460EF034FC2748284B0360446050
:102460007F238360FF23C36004614461846102F0C1
:10247000E6FF002838D100238DF82C308DF82D3060
:102480008DF82E300E930F9301220BA91A4803F0FA
:1024900043F858BB01228DF828208DF829208DF8AB
:1024A0002A2021238DF82B300AA9134803F0B3F812
:1024B000F0B900238DF800308DF801308DF802302E
:1024C0000193039304930E4A059206930793012206
:1024D0008DF820204FF4807309936946064803F075
:1024E00007F938B910B010BDFFF7AAFDFFF7A8FD36
:1024F000FFF7A6FDFFF7A4FD100F00200028004005
:102500000080808008B50B480B4B03604FF4E1332B
:10251000436000238360C3604FF4C06202610C22F9
:1025200042618361C36104F019FA00B908BDFFF785
:1025300087FD00BF381100200010014000B587B0B2
:10254000002302930393049305930093019313488C
:10255000134A02605322426083604FF0FF32C26030
:102560000361836103F056FF90B94FF480530293E7
:1025700002A90A4804F04DF860B9002300930193C2
:102580006946064804F022F930B907B05DF804FB4B
:10259000FFF756FDFFF754FDFFF752FDA81000208E
:1025A000000C004000B599B0302200210DEB020074
:1025B0000EF086FB00230793089309930A930B936D
:1025C000029303930493059306930093284A116C96
:1025D00041F080511164126C02F080520092009A16
:1025E0000193244A136823F4404343F400431360E7
:1025F000136803F440430193019B05230C934FF4AC
:1026000080330D9301230E93022312934FF4800322
:102610001393192314934FF4A8731593042316935B
:10262000072317930CA802F0B1FAD8B90F23079328
:1026300002210891002309934FF480520A920B93D0
:1026400007A802F0F5FC78B9022302934FF48073D7
:10265000059302A802F0D4FD40B902F091FC19B034
:102660005DF804FBFFF7ECFCFFF7EAFCFFF7E8FC82
:10267000003802400070004008B500F0EBF9FFF7A9
:1026800091FFFFF715FCFFF787FCFFF7DBFCFFF777
:1026900063FDFFF77DFDFFF79BFDFFF7E3FDFFF710
:1026A00017FEFFF75BFEFFF791FEFFF7C7FEFFF790
:1026B00029FF06F06DFAFFF741FF0448044A01467E
:1026C00000F0A0F800F004F9FCE700BF300F002094
:1026D000BC0E002002880B889A4200D0704700236D
:1026E00003800B80FAE70000012800D070474FF606
:1026F000FF739942FAD110B5094B0A4A1A604FF498
:1027000000525A6040F2044006F000FD044640F2D8
:10271000044200210EF0D4FA034B1C6010BD00BF30
:1027200080110020000802407C11002038B50446CA
:102730000D4606F0C7FA0028FBD12946204606F0D0
:102740008FFA38BD08B581B20148FFF7EFFF08BD29
:102750008811002010B5044601460230FFF7BAFF89
:1027600063882088C01A18BF012010BD38B5044600
:10277000FFF7F0FF10B90025284638BD23885A1C02
:10278000228023441D792146A01CFFF7A3FFF3E715
:1027900030B589B0EC46184C0FCCACE80F0094E88B
:1027A0000F00ACE80700ACF800301E216846FFF7C8
:1027B000BDFF02E00A2004F039FF104B1868FFF754
:1027C000C9FF0028F6D002E0012004F02FFF0B4BD8
:1027D0001868FFF7CBFF0028F6D16C46084D0FCDE7
:1027E0000FC495E8030044F8040B217015216846D6
:1027F000FFF79CFF09B030BD007A01087C11002072
:10280000207A0108F0B587B005460E46174606F057
:102810003DFA0028FBD1284806F04EFA274B6C46BB
:102820000FCB07C423800E216846FFF77FFFFFF719
:10283000AFFF2846FEF712FE4FF47A7004F0F6FE62
:102840006C461F4D0FCD0FC495E8030084E80300CC
:1028500018216846FFF76AFFFEF776FE194D4FF420
:1028600080712846FEF77CFFFFF76CFFFFF790FFB3
:1028700039463046FFF728F94FF47A7004F0D6FE57
:10288000EC46114C0FCCACE80F0094E803008CE848
:10289000030018216846FFF749FFFFF781F94FF45D
:1028A00080712846FFF730FAFFF74CFFFFF770FF03
:1028B000FEF77EFE07B0F0BDE5290008387A010872
:1028C000487A010888110020607A010800000000A1
:1028D00010B586B0FEF7E4FE294B1B78DBB2022B65
:1028E0003CD0FFF7ADF94FF480712648FFF7DCF9D3
:1028F000FFF728FF244B5869FEF794F81EA3D3E98D
:102900000023FDF731FFFEF7BDFB00EE100AF0EEED
:10291000047AB4EEE70AF1EE10FA01DD9FED1B0A2E
:10292000FFF7A8F91A4B1A685B68516903EA0100BE
:1029300023EA010343EA004393610DF1040C154CB3
:102940000FCCACE80F002368ACF80030122101A8CE
:10295000FFF7ECFEFFF71CFF06B010BDFEF762FEAE
:10296000FEF726FE4FF480710648FEF7A5FEFFF73E
:10297000E9FEB6E7AFF300809A9999999999C93F12
:10298000BA0B002088110020340000200000000055
:1029900080110020787A0108034608468B4200DA4D
:1029A0001846704770B504460D461646014602307B
:1029B000FFF790FE6188C1F580613046FFF7ECFFBC
:1029C00000220AE0638803F1010CA4F802C015F8A4
:1029D00002C0234483F804C0013283B29342F1D889
:1029E00070BD000008B50A880146024B1868FFF761
:1029F000D9FF08BD7C11002008B54FF6FF710120FA
:102A0000FFF772FE08BD000010B504460E4B1878A3
:102A10004FF47A73B3FBF0F30C4A1068B0FBF3F099
:102A200000F042FA68B90F2C01D901200AE0002217
:102A300021464FF0FF3000F0F1F9054B1C600020FB
:102A400000E0012010BD00BF5800002070010020F0
:102A50005C00002008B50B4B1A6842F400721A6043
:102A60001A6842F480621A601A6842F480721A602E
:102A7000032000F0C1F90120FFF7C6FF05F0E4FCD8
:102A8000002008BD003C0240034A1168034B1B783C
:102A90000B441360704700BF8812002058000020CC
:102AA000014B1868704700BF8812002038B50446F3
:102AB000FFF7F6FF0546B4F1FF3F02D0044B1B7849
:102AC0001C44FFF7EDFF401BA042FAD338BD00BF06
:102AD000580000204A4B5A6822F440325A605A6823
:102AE00041680A435A600268536823F48073536054
:102AF00002685368016943EA01235360026853681E
:102B000023F0407353600268536881680B4353603D
:102B10000268936823F40063936002689368C16855
:102B20000B439360826A374B9A4257D0026893688E
:102B300023F07063936002689368816A0B4393602B
:102B40000268936823F04053936002689368C16AF7
:102B50000B4393600268936823F00203936002685A
:102B60009368017E43EA4103936090F82030002B84
:102B70003FD00268536843F40063536002685368AF
:102B800023F46043536001684B68426A013A43EAA8
:102B900042334B600268D36A23F47003D362016846
:102BA000CB6AC269013A43EA0253CB620268936876
:102BB00023F4007393600268936890F8301043EA3E
:102BC000412393600268936823F4806393600268F2
:102BD0009368416943EA8123936070470268936870
:102BE00023F0706393600268936823F0405393600E
:102BF000B0E70268536823F400635360CAE700BF7C
:102C0000002301400100000F38B310B50446036CE7
:102C100043B1236C13F0100F0BD00120002384F874
:102C20003C3010BD05F02CFC0023636484F83C307C
:102C3000EFE7236C23F4885323F0020343F00203ED
:102C400023642046FFF746FF00206064236C23F0D6
:102C5000030343F001032364E0E701207047000011
:102C600030B482B00023019390F83C30012B00F087
:102C7000BB80012380F83C300B68092B41D90468E4
:102C8000E2689BB203EB43031E3B4FF0070C0CFAC8
:102C900003F322EA0303E3600468E2680B8803EBB2
:102CA00043031E3B8D6805FA03F31343E3604B684F
:102CB000062B3DD80468626B03EB8303053B4FF0A2
:102CC0001F0C0CFA03F322EA030363630468626BCC
:102CD0004B6803EB8303053BB1F800C00CFA03F328
:102CE000134363630268414B9A4251D002683F4BE1
:102CF0009A4256D0002380F83C30184602B030BCCF
:102D00007047046822699BB203EB43034FF0070C42
:102D10000CFA03F322EA03032361046822690B8897
:102D200003EB43038D6805FA03F313432361BEE706
:102D30000C2B16D805682A6B03EB8303233B1F2457
:102D400004FA03F322EA03032B6305682A6B4B683A
:102D500003EB8303233B0C8804FA03F313432B6335
:102D6000C0E70568EA6A03EB8303413B1F2404FACA
:102D700003F322EA0303EB620568EA6A4B6803EB9C
:102D80008303413B0C8804FA03F31343EB62A9E786
:102D90000B68122BAAD1164A536843F48003536080
:102DA000A4E70B68103B012BA4D8114A536843F4E5
:102DB000000353600B68102B9CD10E4B1B6802F173
:102DC000467202F52E3202F28332A2FB03239B0CE1
:102DD00003EB83035B00019302E0019B013B019342
:102DE000019B002BF9D185E7022087E700200140F5
:102DF0000023014070010020074AD36823F4E063F8
:102E00001B041B0C000200F4E060034343F0BF63AB
:102E100043F40033D360704700ED00E000B5194B78
:102E2000DB68C3F30223C3F1070CBCF1040F28BF16
:102E30004FF0040C03F1040EBEF1060F18D9033B4A
:102E40004FF0FF3E0EFA0CFC21EA0C0199400EFAFD
:102E500003F322EA0303194300280BDB0901C9B27B
:102E600000F1604000F5614080F800135DF804FB5C
:102E70000023E5E700F00F000901C9B2024B195425
:102E8000F4E700BF00ED00E014ED00E0002807DBF0
:102E900000F01F02400901239340024A42F820300B
:102EA000704700BF00E100E00138B0F1807F0BD235
:102EB0004FF0E0235861054AF02182F823100020EA
:102EC000986107221A6170470120704700ED00E009
:102ED00010B40368D9B210390C4AA2FB014212099E
:102EE0000B4CA25CC2655F2909D923F47F7323F0E0
:102EF000030304338365806D5DF8044B704723F44E
:102F00007F7323F003038365F5E700BFABAAAAAA8A
:102F10008C7A0108836A826992B9012B0AD0022B4C
:102F200002D00BB100207047C36A13F0807F28D114
:102F300000207047C36AB3F1C07F24D000207047DF
:102F4000B2F5005F09D0022B25D9032B25D1C36A26
:102F500013F0807F23D100207047032B03D8DFE8D4
:102F600003F01404140A00207047C36A13F0807F32
:102F70000DD100207047C36AB3F1C07F09D0002093
:102F800070470120704701207047012070470120E1
:102F900070470120704701207047002070470120D2
:102FA0007047000070B50446FFF77AFD002C5BD037
:102FB0000546002384F83430022384F83530226833
:102FC000136823F00103136023681A6812F0010FDD
:102FD0000AD0FFF765FD431B052BF5D92023636558
:102FE000032084F8350070BD1A68204810406168DD
:102FF000A2680A43E1680A4321690A4361690A43F6
:10300000A1690A43E1690A43216A0A430243616AEA
:1030100004291ED01A602668756925F00705636AC1
:103020001D43042B07D1A36A1D43E36A1BB120464D
:10303000FFF770FF90B975612046FFF749FFE26D19
:103040003F239340836000206065012384F835307E
:10305000C9E7E16A206B01430A43DBE7402363656C
:10306000012084F83500BEE70120BCE73F8010F066
:10307000F0B583B0044600230193724B1D68724B78
:10308000A3FB0535AD0A876D3E68C26D08239340EA
:10309000334210D003681A6812F0040F0BD01A687C
:1030A00022F004021A60C26D08239340BB60436D96
:1030B00043F001034365E26D01239340334209D09D
:1030C0002268526912F0800F04D0BB60636D43F038
:1030D00002036365E26D04239340334209D0226802
:1030E000126812F0020F04D0BB60636D43F004035A
:1030F0006365E26D10239340334224D02268126846
:1031000012F0080F1FD0BB6023681A6812F4802FDA
:103110000DD01B6813F4002F04D1236C9BB1204603
:10312000984710E0A36C73B1204698470BE01A68EB
:1031300012F4807F03D11A6822F008021A60236C0F
:103140000BB120469847E26D20239340334255D07F
:103150002268126812F0100F50D0BB6094F835301E
:10316000DBB2052B0ED023681A6812F4802F33D0FF
:103170001B6813F4002F2AD1636C002B3ED020462D
:1031800098473BE02268136823F016031360226817
:10319000536923F080035361236CA3B12268136841
:1031A00023F008031360E26D3F239340BB600023CC
:1031B00084F83430012384F83530236D002B3FD060
:1031C000204698473CE0A36C002BE7D1EBE7E36B8C
:1031D000A3B12046984711E01A6812F4807F09D104
:1031E0001A6822F010021A60002384F83430012398
:1031F00084F83530E36B0BB120469847636DFBB123
:10320000636D13F0010F17D0052384F83530226861
:10321000136823F001031360019B01330193AB4258
:1032200004D823681B6813F0010FF5D1002384F83C
:103230003430012384F83530E36C0BB120469847D5
:1032400003B0F0BD70010020B5814E1B00230F2B91
:1032500000F2D28070B582B060E085685E00032421
:10326000B44025EA0405CC68B4402C43846045682A
:1032700025EA02054C68C4F300129A402A434260D2
:103280005AE0DC08083450F8246003F00702950087
:103290000F22AA4026EA020E0A69AA4042EA0E025A
:1032A00040F824205CE0042200E0002202FA0EF242
:1032B0002A430234514D45F82420514A14686FEADC
:1032C0000C0224EA0C054E6816F4803F01D04CEA4B
:1032D00004054B4C2560646802EA04054E6816F448
:1032E000003F01D04CEA0405454C6560A46802EA41
:1032F00004054E6816F4801F01D04CEA0405404CCA
:10330000A560E46822404D6815F4001F01D04CEA26
:1033100004023B4CE26001330F2B6BD801229A4030
:103320000C6804EA020C32EA0404F4D14C6804F09C
:103330000304013C012C90D94A6802F00302032ADD
:1033400009D0C4685D000322AA4024EA02048A6806
:10335000AA402243C2604A6802F00302022A90D0C7
:1033600004684FEA430E032202FA0EF224EA020432
:103370004A6802F0030202FA0EF2224302604A682F
:1033800012F0805FC7D0002201921E4A546C44F4B0
:1033900080445464526C02F480420192019A9C0869
:1033A000A51C164A52F8255003F003024FEA820E7C
:1033B0000F2202FA0EF225EA0205134A90423FF468
:1033C00074AF02F5806290420ED002F580629042A6
:1033D0000CD002F5806290420AD002F580629042E1
:1033E0003FF461AF072261E701225FE702225DE758
:1033F00003225BE702B070BD704700BF0038014098
:10340000003C0140003802400000024003691942BC
:1034100001D0012070470020704703685A6912F4F8
:10342000806F01D1002070476FF480625A610023E1
:103430000363202280F83D2080F83E30026C42F089
:103440000402026480F83C30012070472DE9F0410D
:1034500007460D4690461E4624E0FFF721FB069BDB
:10346000C01AB04200D8EEB900233B63202287F88F
:103470003D2087F83E303A6C42F020023A6487F8EB
:103480003C3001201EE03B689C6925EA040C1FFAD1
:103490008CFCBCFA8CFC4FEA5C1CE04511D1B6F107
:1034A000FF3FDAD1C5F30743012BECD13B685B69E1
:1034B00025EA030C1FFA8CFCBCFA8CFC4FEA5C1C5E
:1034C000EBE70020BDE8F0812DE9F04105460E460E
:1034D000174698463DE01A6842F400721A602B685D
:1034E0006FF480625A6100232B63202285F83D200F
:1034F00085F83E302A6C42F004022A6485F83C309C
:10350000012034E0FFF7CCFAA0EB0800B84200D865
:10351000FFB900232B63202285F83D2085F83E303B
:103520002A6C42F020022A6485F83C3001201EE01B
:103530002B689C6926EA0404A4B2003C18BF01244D
:10354000A4B12B685A6912F4806FC4D1B7F1FF3F60
:10355000D8D1C6F30743012BEAD12B685C6926EA70
:103560000404A4B2003C18BF0124E9E70020BDE830
:10357000F08170B504460D46164623685B6913F06A
:10358000800F1CD12046FFF748FFD0B9B5F1FF3FAF
:10359000F3D0FFF785FA801BA84201D8002DECD1AB
:1035A00000232363202284F83D2084F83E30226CDF
:1035B00042F02002226484F83C30012000E0002028
:1035C00070BD0120FCE700002DE9F04385B0044602
:1035D0000D4691461F46DDF830800D9E0368196840
:1035E00041F4807119600096434600224FF00111AA
:1035F000FFF72CFF60B9236805F0FE051D61334617
:10360000424626492046FFF75FFF68B1012008E0E7
:1036100023681B6813F4807F02D04FF40073236487
:10362000032005B0BDE8F0830023039323685A69A3
:1036300003929B690393039B324641462046FFF762
:1036400098FF30B9012F0FD123685FFA89F61E6108
:10365000E7E7236C042B01D00120E2E7226813681E
:1036600043F400731360F7E723684FEA19221A61E5
:10367000324641462046FFF77CFF20B923685FFAB7
:1036800089F61E61CDE7236C042B01D00120C8E729
:103690002268136843F400731360F7E70200010027
:1036A0002DE9F04784B004460D46164699460C9F16
:1036B000DDF834800268136843F4806313600368A4
:1036C000196841F480711960CDF800803B460022F2
:1036D0004FF00111FFF7BAFE70B95FFA85FA23685F
:1036E00005F0FE051D6143463A4641492046FFF775
:1036F000EBFE68B1012008E023681B6813F4807FAB
:1037000002D04FF400732364032004B0BDE8F087B7
:103710000023039323685A6903929B690393039BD5
:10372000424639462046FFF724FF80B9B9F1010F20
:1037300018D12368F6B21E61424639462046FFF78B
:1037400018FF68B3236C042B24D00120DDE7236C21
:10375000042B01D00120D8E72268136843F40073DA
:103760001360F7E72368320A1A6142463946204659
:10377000FFF7FFFE18B92368F6B21E61DCE7236C81
:10378000042B01D00120C0E72268136843F40073C2
:103790001360F7E72268136843F400731360D4E7FB
:1037A0002268136843F480731360CDF800803B46B1
:1037B00000224FF001112046FFF748FE68B9226849
:1037C0004AF00103136143463A4609492046FFF790
:1037D0007BFE002899D0012097E723681B6813F42B
:1037E000807F02D04FF40073236403208DE700BF75
:1037F0000200010070B504460D46164623685B6959
:1038000013F0040F1CD12046FFF707FED0B9B5F125
:10381000FF3FF3D0FFF744F9801BA84201D8002DE9
:10382000ECD100232363202284F83D2084F83E302D
:10383000226C42F02002226484F83C30012000E037
:10384000002070BD0120FCE770B505460C46164609
:103850002B68596911F0400F29D1596911F0100FE7
:1038600015D1FFF71DF9801BA04201D8002CEFD124
:1038700000232B63202285F83D2085F83E302A6CFA
:1038800042F020022A6485F83C30012070BD6FF0C0
:1038900010025A6100232B63202285F83D2085F811
:1038A0003E302A6C2A6485F83C300120EEE7002087
:1038B000ECE70000002800F0CC8070B5044690F8DA
:1038C0003D30002B77D0242384F83D3022681368E4
:1038D00023F0010313602268136843F4004313606C
:1038E0002268136823F40043136001F057FC6268F8
:1038F0005A4B9A4264D85A4B98428CBF00230123FA
:10390000002B40F0A8805749A1FB00318B0C2568A3
:103910006A6822F03F0242EA91426A6021680A6ABC
:1039200022F03F0266684D4DAE424FD8013313433B
:103930000B622168CA6922F44F4222F0FF026668D6
:10394000464B9E424CD8431E7600B3FBF6F3013340
:1039500040F6FC70034278D0C3F30B031343CB61F2
:1039600021680B6823F0C003E269206A0243134315
:103970000B6021688B6823F4034323F0FF03226963
:10398000E068024313438B602168CB6823F0FF0398
:103990006269A06902431343CB602268136843F055
:1039A0000103136000202064202384F83D3020634D
:1039B00084F83E0070BD80F83C3004F0D1FD82E711
:1039C000294B98428CBF0023012399E74FF4967549
:1039D00005FB03F3254DA5FB03539B090133A6E724
:1039E000A368BBB9451E06EB460CB5FBFCF50135DB
:1039F000C5F30B05B5FA85F56D0945BBC3B90138AB
:103A000006EB4603B0FBF3F30133C3F30B0343F4BC
:103A10000043A3E7451E06EB860C0CEB8C0CB5FBB4
:103A2000FCF50135C5F30B05B5FA85F56D09E4E73D
:103A3000013806EB860303EB8303B0FBF3F301339A
:103A4000C3F30B0343F4404388E7042386E70123D1
:103A500084E7012070470120ACE700BFA086010089
:103A60007F841E0083DE1B43FF083D00D34D6210A0
:103A70002DE9F04383B004460F46904699460C9ECC
:103A8000FFF70EF8054694F83D00C0B2202803D099
:103A9000022003B0BDE8F0830095192301224B49B1
:103AA0002046FFF7D3FC002840F0898094F83C3092
:103AB000012B00F08680012384F83C3023681A68CB
:103AC00012F0010F03D11A6842F001021A60226855
:103AD000136823F400631360212384F83D304023EE
:103AE00084F83E30002323640A9B6362BDF82C30C7
:103AF0006385638D2385364BE362019500964B46C3
:103B0000424639462046FFF75FFD00285BD1238DF2
:103B1000002B35D02A4631462046FFF72AFD20BB30
:103B2000626A236812781A61626A531C6362218D8B
:103B3000013989B22185638D9BB2013B9BB26385BC
:103B40002368586910F0040FE1D00029DFD05278C3
:103B50001A61636A01336362238D013B2385638DA0
:103B60009BB2013B9BB26385D1E7236C042B01D050
:103B700001208EE72268136843F400731360F7E7AF
:103B80002A4631462046FFF735FE50B1236C042B00
:103B900001D001207DE72268136843F400731360AD
:103BA000F7E72268136843F400731360202384F856
:103BB0003D30002384F83E3084F83C3069E7022031
:103BC00067E7022065E7012063E700BF02001000FD
:103BD0000000FFFF2DE9F04387B004460F469046F2
:103BE0009946109EFEF75CFF054694F83D00C0B272
:103BF000202804D00227384607B0BDE8F08300959E
:103C00001923012288492046FFF720FC002840F0B4
:103C1000438194F83C30012B00F04081012384F86B
:103C20003C3023681A6812F0010F03D11A6842F081
:103C300001021A602268136823F4006313602223D0
:103C400084F83D30402384F83E30002323640E9BEB
:103C50006362BDF83C306385638D2385734BE362FB
:103C6000019500964B46424639462046FFF718FD1F
:103C70000746002840F01481238D5BB90293236826
:103C80005A6902929A690292029A1A6842F4007280
:103C90001A6075E0012B0AD0022B1AD0002305937D
:103CA00023685A6905929B690593059B68E0226821
:103CB000136823F4806313600023039323685A6915
:103CC00003929A690392039A1A6842F400721A6086
:103CD00056E02268136823F4806313602268136837
:103CE00043F4006313600023049323685A69049229
:103CF0009B690493049B43E02A4631462046FFF724
:103D0000A3FD002840F0CE8023681A69636A1A7008
:103D1000636A01336362238D013B2385638D9BB20C
:103D2000013B9BB263852BE000953346002240495E
:103D30002046FFF78BFB002840F0B680226813680E
:103D400043F40073136023681A69636A1A70626A25
:103D5000531C6362238D013B2385638D9BB2013B22
:103D60009BB2638523681B695370636A0133636286
:103D7000238D013B2385638D9BB2013B9BB2638501
:103D8000238D002B7FD0032B54D8012BB4D0022BD2
:103D9000CAD000953346002225492046FFF756FB3E
:103DA000002840F083802268136823F48063136046
:103DB00023681A69636A1A70636A01336362238D28
:103DC000013B2385638D9BB2013B9BB263850095CC
:103DD0003346002216492046FFF738FB002867D1FA
:103DE0002268136843F40073136023681A69636AD6
:103DF0001A70626A531C6362238D013B2385638DB5
:103E00009BB2013B9BB2638523681B695370636A55
:103E100001336362238D013B2385638D9BB2013B9C
:103E20009BB26385ACE700BF020010000000FFFFFB
:103E3000040001002A4631462046FFF705FD002810
:103E400038D123681A69636A1A70626A531C636204
:103E5000238D013B2385638D9BB2013B9BB2638520
:103E60002368596911F0040F8AD01B695370636A83
:103E700001336362238D013B2385638D9BB2013B3C
:103E80009BB263857CE7202384F83D30002384F8CF
:103E90003E3084F83C30AEE60227ACE60227AAE6C4
:103EA0000127A8E60127A6E60127A4E60127A2E646
:103EB0000127A0E601279EE62DE9F04385B00446E0
:103EC000884691461D46FEF7EBFD94F83D30DBB287
:103ED000202B03D0022005B0BDE8F08306460090F9
:103EE0001923012258492046FFF7B0FA002840F074
:103EF000A28094F83C30012B00F09F80012384F8CD
:103F00003C3023681A6812F0010F03D11A6842F09E
:103F100001021A602268136823F4006313602423EB
:103F200084F83D3000232364A3F58033E362012746
:103F300040E023681B6813F4807F02D04FF40073C5
:103F400023640320C7E7A02384F83D302268536927
:103F5000C3F340035269C2F3802294F83DC05FFA74
:103F60008CFCBCF1A00F09D043B93AB9FEF798FD1B
:103F7000801BA842E7D8002DE8D1E4E7202384F88D
:103F80003D3023685A6912F0020F31D11A6842F4A9
:103F900000721A6023686FF480625A6100961923D8
:103FA000012229492046FFF751FA002849D101375B
:103FB0004F4538D22268136843F48073136000962B
:103FC0002B4600224FF001112046FFF73FFA002850
:103FD000AFD1236808F0FE021A61FEF761FD0646C4
:103FE00022685369C3F340035269C2F38022B4E7E5
:103FF0001A6842F400721A600023039323685A6916
:1040000003929B690393039B0096192301220E4997
:104010002046FFF71BFA90B9202384F83D30002397
:1040200084F83C3057E7202384F83D30002384F89F
:104030003C3001204FE702204DE702204BE70120F2
:1040400049E7012047E700BF020010002DE9F043D7
:1040500083B0D0F80080C1EBC10300EB83035A6D3D
:104060001B6D9A4254D807460C469B1AC1EBC102FD
:1040700000EB8202526C9A4200D31A4602F1030905
:104080004FEA990915E006F103094FEA9909C4EBD3
:10409000C40507EB8505A96C3B7C0093B3B2E2B283
:1040A000404603F083F8AB6C3344AB646B6D334430
:1040B0006B6508EB441303F510639B699BB24B459A
:1040C00012D3C4EBC40207EB8202516D136D994207
:1040D0000AD24BB15B1AC4EBC40207EB8202566CE6
:1040E0009E42D0D31E46CEE7C4EBC40007EB800748
:1040F0003A6D7B6D9A420FD804F00F040123A34060
:10410000D8F8344824EA0304C8F83448002000E012
:10411000012003B0BDE8F0830020FAE770B58AB053
:10412000002800F090800546046890F8BD333BB34A
:10413000032385F8BD33E36B13F4807F01D10023A3
:104140002B61286802F0BEFD2C4654F8106BEC463B
:104150000FCCACE80F000FCCACE80F0094E80300E4
:104160008CE803002B1D0ECB304602F0EDFC04461C
:1041700058B1022385F8BD33012420460AB070BD32
:1041800080F8BC3304F0AAFDD2E70021286802F0D1
:104190009FFD234616E0C3EBC30205EB820201211B
:1041A00082F83D1082F83C30A2F84230002182F8BB
:1041B0003F1051649164C3EBC30205EB82021165A9
:1041C0000133DBB269688B42E5D316E0C4EBC4036C
:1041D00005EB8303002283F8FD2183F8FC4183F87B
:1041E000FF21C3F80422C3F80822C4EBC40305EB83
:1041F0008303C3F810220134E4B2A142E6D82C466E
:1042000054F8106BEC460FCCACE80F000FCCACE8C8
:104210000F0094E803008CE803002B1D0ECB304602
:1042200002F09CFD044620B1022385F8BD33012431
:10423000A3E7002385F83830012385F8BD332868CB
:1042400003F070F999E7012497E7026890F8BC330E
:10425000012B19D010B50446012380F8BC33836AC2
:10426000012B09D0206802F027FD206803F04CF9EB
:10427000002084F8BC0310BD8369012BF2D0936B3E
:1042800043F480339363EDE70220704770B5044632
:104290000D460068066C00EB411303F530639A6825
:1042A0002169012911D034498E424ED03DB9C5EB68
:1042B000C50304EB8303D3F81032002B56D0E9B2C8
:1042C000204604F055FD002070BD12F0080F09D003
:1042D0002A498E42F7D912F4004FF4D04FF400422D
:1042E0009A60F0E712F0200F02D020229A60EAE7ED
:1042F00012F0280FE7D121498E4206D912F4004F5F
:1043000003D04FF400429A60DDE7C5EBC50204EB31
:104310008202D2F804121B69C3F31203CB1AC2F84B
:104320001432D2F808320B44C2F8083215B9D2F868
:10433000103223B1E9B2204604F01AFDC3E704F5B8
:104340007172012103F042F9F4E712F4004F03D037
:104350004FF400429A60B6E712F0200F01D02022FD
:104360009A60E9B2204604F003FDACE704F57172EF
:10437000002103F02BF9A2E70A31544F0A30544FC1
:1043800038B5044603681D6C03EB4113D3F8081BD2
:104390000E4A954207D903F5306311F4004F02D05D
:1043A0004FF400429A60204604F0DAFC074B9D422D
:1043B00002D92369012B01D0002038BD04F57172A8
:1043C0000121206803F002F9F6E700BF0A30544FDC
:1043D0002DE9F84F04460568284603F0E2F808B1D5
:1043E000BDE8F88F0646206803F0AAF80028F7D049
:1043F000206803F0A5F810F0020F04D0226853697A
:1044000003F002035361206803F09AF810F0100FD4
:1044100013D02268936923F0100393612F6A07F089
:104420000F08C7F34343022B68D0062B00F08480AB
:104430002268936943F010039361206803F080F8C9
:1044400010F4002F40F08A80206803F079F810F40F
:10445000802F40F0CC80206803F072F80028C0F272
:104460003681206803F06CF810F4006F0AD0D5F89C
:10447000083813F0010F40F044812268536903F4B7
:1044800000635361206803F05BF810F4805F40F034
:104490003C81206803F054F810F4005F40F09181F3
:1044A000206803F04DF810F0080F40F0A28120685A
:1044B00003F046F810F4801F40F0A481206803F058
:1044C0003FF810F4001F40F0A781206803F038F88F
:1044D00010F0804F40F0AA81206803F031F810F00E
:1044E000040F3FF47DAF23685D6815F0040F40F0C2
:1044F000A681226853682B43536071E747F6F07337
:104500001F4295D04FEA171BC8EBC80904EB890975
:10451000C7F30A12D9F80812284602F07BFFCBF342
:104520000A02D9F808321344C9F80832D9F814320B
:104530001A44C9F814227BE7082204F57171284651
:1045400002F068FFC7F30A17C8EBC80204EB820247
:10455000D2F814321F44C2F8147269E7206802F0DE
:10456000F3FF0746B04616E005EB48130122C3F8F7
:10457000082B41462046FFF789FE1BE005EB481358
:104580000822C3F8082B41462046FFF7F9FE14E045
:1045900008F101087F08002F3FF456AF17F0010F14
:1045A000F6D05FFA88F1206802F0DEFF814610F055
:1045B000010FD9D119F0080FE0D119F0100F04D074
:1045C00005EB48131022C3F8082B19F0200F04D074
:1045D00005EB48132022C3F8082B19F4005FD7D04D
:1045E00005EB48134FF40052C3F8082BD0E72068BE
:1045F00002F0B2FF0746B04629E05146204604F0DB
:10460000C3FB19F0080F04D005EB48130822C3F8C8
:10461000082919F0100F04D005EB48131022C3F835
:10462000082919F0400F04D005EB48134022C3F8C5
:10463000082919F0020F04D005EB48130222C3F831
:10464000082919F0800F3DD108F101087F08002FDB
:104650003FF401AF17F0010FF6D05FFA88FA514628
:10466000206802F08AFF814610F0010FC9D008F0DF
:104670000F03012101FA03F2D5F8343823EA0203CB
:10468000C5F8343805EB4813C3F8081923698B4281
:10469000B3D1C8EBC80304EB8303596C9A6C0A448A
:1046A0009A64B8F1000FA8D1C8EBC80304EB8303E8
:1046B0001B6D002BA1D104F571720121206802F05D
:1046C00085FF9AE741462046FFF7C0FCBCE7D5F8D6
:1046D000043823F00103C5F8043894F8F433012BAF
:1046E00008D0204604F08CFB2268536903F0004395
:1046F0005361B6E6002184F8F413204600F045FA31
:10470000F2E7204604F064FBB7E605F500677B6836
:1047100023F001037B601021206802F0F1FA20E011
:1047200005EB46134FF67F31C3F80819D3F800297B
:1047300022F40012C3F80029D3F8002942F00062E5
:10474000C3F80029C3F8081BD3F8002B22F4001289
:10475000C3F8002BD3F8002B42F00062C3F8002B03
:1047600001366368B342DBD8FB6943F00113FB6198
:10477000236BDBB1D7F8843043F00B03C7F88430E8
:104780007B6C43F00B037B64D5F8003823F4FE63A5
:10479000C5F8003804F57172217C206802F016FF1C
:1047A0002268536903F48053536172E67B6943F4D2
:1047B000005343F02B037B613B6943F00B033B61E8
:1047C000E2E7206802F0F1FE206802F08FFBE06073
:1047D000256800F0DDFC0146227B284602F0FAF94C
:1047E000204604F0E2FA2268536903F4005353614F
:1047F00056E6204604F0D3FA2268536903F0080312
:10480000536154E60021204604F006FB22685369F8
:1048100003F48013536151E60021204604F0F6FAB8
:104820002268536903F4001353614EE6204604F0F6
:10483000F9FA2268536903F0804353614CE620463D
:1048400004F0F6FA55E690F8BC33012B0DD010B504
:104850000446012380F8BC3380F83810006802F069
:1048600043FE002084F8BC0310BD0220704738B519
:1048700005468C4611F0800F29D101F00F0ECEEBCA
:10488000CE04A40004F5FC740444211DCEEBCE0E2E
:1048900000EB8E0E00208EF8FD010CF00F0C81F85D
:1048A00000C08A60CB704A780AB1A1F806C0022B1A
:1048B0001DD095F8BC33012B1CD0012385F8BC33E7
:1048C000286802F024FB002085F8BC0338BD01F005
:1048D0000F00C0EBC0018900383129440431C0EB1E
:1048E000C00005EB8000012480F83D40D5E700239F
:1048F0000B71DEE70220E9E710B504460A4611F025
:10490000800F20D101F00F00C0EBC0039B0003F526
:10491000FC732344191DC0EBC00004EB800000238E
:1049200080F8FD3102F00F020A7094F8BC33012BBD
:1049300019D0012384F8BC33206802F037FB002033
:1049400084F8BC0310BD01F00F00C0EBC0039B0056
:1049500038332344191DC0EBC00004EB8000012351
:1049600080F83D30DEE70220ECE710B501F00F04DF
:10497000C4EBC401890001F5FC7101440431C4EBAE
:10498000C40C00EB8C0CCCF80822CCF810320023BD
:10499000CCF814328CF8FD318CF8FC410369012B02
:1049A00006D064B9DAB2006802F070FB002010BDD6
:1049B000C4EBC40C00EB8C0CCCF80C22F1E7DAB29F
:1049C000006802F00BFCF1E701F00F01C1EBC1013F
:1049D00000EB8101D1F81402704710B501F00F040B
:1049E000C4EBC4018900383101440431C4EBC40C68
:1049F00000EB8C0CCCF84820CCF850300023CCF8DD
:104A0000543001238CF83D308CF83C400369012B75
:104A100006D064B9DAB2006802F038FB002010BD9D
:104A2000C4EBC40C00EB8C0CCCF84C20F1E7DAB2F0
:104A3000006802F0D3FBF1E738B501F00F054268DA
:104A4000954239D804460B4611F0800F1FD1C1EBB7
:104A5000C101890001F5FC7101440431C3EBC303BA
:104A600000EB8303002283F8FD2101238B700D707E
:104A700094F8BC33012B21D0012384F8BC33206887
:104A800002F0D7FC8DB1002084F8BC0338BDC5EB23
:104A9000C5018900383101440431C5EBC50300EB81
:104AA0008303012283F83D20DFE704F57172217C46
:104AB000206802F08BFDE6E70120E7E70220E5E74A
:104AC00001F00F034268934231D810B5044611F04B
:104AD000800F1ED1C3EBC301890001F5FC710144B5
:104AE0000431C3EBC30200EB8202002082F8FD0117
:104AF00000228A700B7094F8BC33012B19D001236B
:104B000084F8BC33206802F0C1FC002084F8BC03A8
:104B100010BDC3EBC3018900383101440431C3EB3C
:104B2000C30200EB8202012082F83D00E0E7012091
:104B300070470220ECE710B40468606A31B940EABB
:104B40000240A06200205DF8044B70478C46A36AC7
:104B500000EB1340002308E003F1400104EB810166
:104B6000496800EB11400133DBB20CF1FF318B429D
:104B7000F2D340EA02400CF13F0104EB81014860AE
:104B8000E0E703685962002070477047002800F092
:104B9000DD8170B582B00446036813F0010F3BD08D
:104BA0009E4B9B6803F00C03042B2CD09B4B9B6803
:104BB00003F00C03082B21D06368B3F5803F4FD07E
:104BC000B3F5A02F52D0954B1A6822F480321A60A8
:104BD0001A6822F480221A606368002B50D0FDF717
:104BE0005FFF05468D4B1B6813F4003F14D1FDF7A2
:104BF00057FF401B6428F5D90320AEE1874B5B6863
:104C000013F4800FD8D0854B1B6813F4003F03D0FA
:104C10006368002B00F09C81236813F0020F54D0CE
:104C20007E4B9B6813F00C0F3ED07C4B9B6803F0CF
:104C30000C03082B33D0E368002B68D0784B01229B
:104C40001A60FDF72DFF0546744B1B6813F0020F29
:104C500054D1FDF725FF401B0228F5D903207CE144
:104C60006E4A136843F480331360B5E76B4B1A68E0
:104C700042F480221A601A6842F480321A60ABE76C
:104C8000FDF70EFF0546654B1B6813F4003FC3D0CC
:104C9000FDF706FF401B6428F5D903205DE15F4B5B
:104CA0005B6813F4800FC6D15C4B1B6813F0020FD6
:104CB00003D0E368012B40F04D81584A136823F07C
:104CC000F803216943EAC1031360236813F0080F56
:104CD00042D063696BB3524B0122C3F8802EFDF7BB
:104CE000DFFE05464D4B5B6F13F0020F34D1FDF72D
:104CF000D7FE401B0228F5D903202EE1474A13684E
:104D000023F0F803216943EAC1031360DDE7444B54
:104D100000221A60FDF7C4FE0546404B1B6813F0E5
:104D2000020FD2D0FDF7BCFE401B0228F5D90320AC
:104D300013E13B4B0022C3F8802EFDF7B1FE054680
:104D4000364B5B6F13F0020F06D0FDF7A9FE401B38
:104D50000228F5D9032000E1236813F0040F74D072
:104D60002E4B1B6C13F0805F32D1002301932B4B31
:104D70001A6C42F080521A641B6C03F0805301934A
:104D8000019B0125274B1B6813F4807F22D0A36869
:104D9000012B33D0052B37D0204B1A6F22F00102A4
:104DA0001A671A6F22F004021A67A368002B3BD01F
:104DB000FDF776FE0646194B1B6F13F0020F43D129
:104DC000FDF76EFE801BB0F5FA7FF4D90320C4E036
:104DD0000025D7E7134A136843F480731360FDF787
:104DE0005FFE06460F4B1B6813F4807FCFD1FDF7A3
:104DF00057FE801B0228F5D90320AEE0074A136F47
:104E000043F001031367D0E7044B1A6F42F004022A
:104E10001A671A6F42F001021A67C6E700380240AB
:104E20000000474200700040FDF73AFE0646524B34
:104E30001B6F13F0020F07D0FDF732FE801BB0F599
:104E4000FA7FF4D9032088E0EDB9A369002B00F0C4
:104E50008380494A926802F00C02082A51D0022B42
:104E600017D0464B00221A66FDF71AFE0446424B45
:104E70001B6813F0007F42D0FDF712FE001B0228D2
:104E8000F5D9032069E03C4A136C23F08053136486
:104E9000DBE73A4B00221A66FDF702FE0546364B69
:104EA0001B6813F0007F06D0FDF7FAFD401B0228B7
:104EB000F5D9032051E0E369226A1343626A43EAA9
:104EC0008213A26A5208013A43EA0243E26A43EAC1
:104ED0000263294A5360294B01221A66FDF7E0FD5F
:104EE0000446254B1B6813F0007F06D1FDF7D8FD63
:104EF000001B0228F5D903202FE000202DE0002020
:104F00002BE0012B2BD01C4B5B6803F48001E26982
:104F1000914226D103F03F02216A8A4223D1616A7D
:104F200047F6C0721A40B2EB811F1ED103F4403124
:104F3000A26A5208013AB1EB024F18D103F0706334
:104F4000E26AB3EB026F14D1002006E00120704743
:104F5000012002E0012000E0002002B070BD01202D
:104F6000FBE70120F9E70120F7E70120F5E7012041
:104F7000F3E70120F1E700BF00380240000047429C
:104F8000014B0122DA6470470000474208B5254B07
:104F90009B6803F00C03042B3FD0082B3FD1214B1F
:104FA0005A6802F03F025B6813F4800F12D01D4B69
:104FB0005968C1F388111C480023A1FB0001FCF7CC
:104FC000B1F8184B5B68C3F3014301335B00B0FBDE
:104FD000F3F025E0134B5968C1F3881C4FEA4C11DC
:104FE000B1EB0C006EEB0E0E4FEA8E1343EA9063AA
:104FF0008101091A63EB0E03DB0043EA5173C90018
:1050000011EB0C0C43F10003990200234FEA8C20B2
:1050100041EA9C51FCF786F8D3E7034800E00348D7
:1050200008BD00BF0038024040787D010024F40034
:10503000002800F09B8070B50D4604464F4B1B685E
:1050400003F007038B4208D2CBB24C4A13701368AB
:1050500003F007038B4240F08B80236813F0020FAC
:1050600017D013F0040F04D0454A936843F4E0537B
:105070009360236813F0080F04D0414A936843F407
:10508000604393603E4A936823F0F003A1680B43AA
:105090009360236813F0010F32D06368012B21D095
:1050A0009A1E012A25D9364A126812F0020F61D0E1
:1050B00033498A6822F0030213438B60FDF7F0FC4A
:1050C00006462F4B9B6803F00C036268B3EB820F1C
:1050D00016D0FDF7E5FC801B41F288339842F0D9E9
:1050E000032042E0264A126812F4003FE0D101207A
:1050F0003BE0234A126812F0007FD9D1012034E04E
:105100001E4B1B6803F00703AB4207D9EAB21B4BE7
:105110001A701B6803F00703AB422DD1236813F00C
:10512000040F06D0164A936823F4E053E1680B435A
:105130009360236813F0080F07D0114A936823F493
:105140006043216943EAC1039360FFF71FFF0C4BE3
:105150009B68C3F303130B4AD35CD8400A4B186017
:105160000A4B1868FDF750FC002070BD0120704705
:105170000120FAE70120F8E70120F6E7003C0240B1
:1051800000380240947A0108700100205C00002081
:10519000014B1868704700BF7001002008B5FFF789
:1051A000F7FF044B9B68C3F38223034AD35CD840C8
:1051B00008BD00BF00380240A47A010808B5FFF717
:1051C000E7FF044B9B68C3F34233034AD35CD840E8
:1051D00008BD00BF00380240A47A010870470000F3
:1051E00008B5064BDB6813F0800F00D108BDFFF750
:1051F000F5FF024B80229A73F8E700BF00380240A7
:1052000030B583B00446036813F0050F0ED1236850
:1052100013F0020F36D1236813F0080F00F09A80C4
:10522000227C4E4BC3F8E021002094E04C4B00223E
:105230009A66FDF735FC05464A4B1B6813F0006F74
:1052400006D0FDF72DFC431B022BF5D9032082E08D
:105250006268A3681B0743EA8213424AC2F884309B
:105260003F4B01229A66FDF71BFC05463D4B1B6830
:1052700013F0006FCBD1FDF713FC401B0228F5D9CA
:10528000032068E000230193364B1A6C42F08052F1
:105290001A641B6C03F080530193019B324A13681C
:1052A00043F480731360FDF7FBFB05462E4B1B6830
:1052B00013F4807F06D1FDF7F3FB431B022BF5D9D6
:1052C000032048E0274B1B6F13F4407314D0E268AF
:1052D00002F440729A420FD0224B1A6F22F44072AD
:1052E0001F490120C1F8400E0020C1F8400E1A6786
:1052F0001B6F13F0010F12D1E36803F44072B2F593
:10530000407F1CD0174A936823F4F8139360154923
:105310000B6FE268C2F30B0213430B677BE7FDF7E9
:10532000BFFB05460F4B1B6F13F0020FE4D1FDF7D7
:10533000B7FB401BB0F5FA7FF4D903200BE0094915
:105340008A6822F4F81223F0704323F44073134365
:105350008B60DCE7002003B030BD00BF0010474287
:1053600000004742003802400070004070470000D3
:1053700010B5044603689A6812F4805F03D0DB68B6
:1053800013F4807F0FD123689A6812F4005F03D072
:10539000DB6813F4007F0FD10C4B4FF400325A61DD
:1053A0000123637710BDFFF7E1FF2268D368DBB20A
:1053B00063F4C073D360E6E7204600F069FA226820
:1053C000D368DBB263F42073D360E5E7003C0140AF
:1053D00038B504460268D36823F0A003D360FDF714
:1053E0005FFB05462368DB6813F0200F07D1FDF74C
:1053F00057FB401BB0F57A7FF4D9032000E0002072
:1054000038BD38B50368DA6812F0400F01D00020CB
:1054100038BD04464FF0FF32DA60FDF741FB054628
:105420002368DB6813F0400F07D1FDF739FB431BFE
:10543000B3F57A7FF4D90320EAE70020E8E738B52E
:1054400000285CD00446437F002B41D002236377C1
:105450002368CA225A62236853225A622046FFF701
:10546000D0FF0546002837D12268936823F4E00373
:1054700023F04003936021688A68636820690343CE
:105480006069034313438B602368E2681A612268F2
:105490001369A16843EA014313612268D36823F0CA
:1054A0008003D36023689B6813F0200F1BD0226811
:1054B000136C23F4802313642268136CA1690B43DB
:1054C00013642368FF225A6201236377284638BD9C
:1054D000037703F0C3F8B9E72368FF225A62042375
:1054E00063770125F2E72046FFF772FF0028DED040
:1054F0002368FF225A62042363770125E6E701252A
:10550000E4E7002302E001330A38C0B20928FAD8E0
:105510001B01DBB218437047F8B5037F012B78D02D
:1055200004460E460123037702234377002A47D11E
:1055300003689B6813F0400F01D10023CB703078D3
:10554000FFF7DFFF05047078FFF7DBFF45EA002572
:10555000B078FFF7D6FF0543F07845EA00452368A9
:10556000CA225A62236853225A622046FFF749FF33
:105570000746002836D1236805F07F3525F0FE4523
:105580001D602268936823F48023936021688B68F0
:10559000F2683069024313438B602268D36823F0BA
:1055A0008003D36023689B6813F0200F23D0236807
:1055B000FF225A6201236377002323773846F8BD20
:1055C00003689B6813F0400F01D10023CB7035783E
:1055D0007078000240EA0540B5782843F57840EA43
:1055E0000545BCE72368FF225A6204236377002342
:1055F00023770127E2E72046FFF7EAFE0028D6D00E
:105600002368FF225A62042363770023237701274C
:10561000D4E70227D2E770B5037F012B66D004469A
:105620000E4601230377022343773AB94B7813F0F0
:10563000100F03D003F0EF030A334B70002A33D16D
:10564000F078FFF75EFF05047078FFF75AFF45EA30
:105650000025B078FFF755FF0543307845EA40351F
:105660002368CA225A62236853225A622046FFF7EF
:10567000C8FE064618BB236825F07F4525F0C00507
:105680005D602268D36823F08003D36023689B6841
:1056900013F0200F1CD02368FF225A620123637786
:1056A00000232377304670BDF5787078000240EA19
:1056B0000540B5782843357840EA4535D0E723687A
:1056C000FF225A6204236377002323770126E9E748
:1056D0002046FFF77DFE0028DDD02368FF225A62B6
:1056E00004236377002323770126DBE70226D9E72B
:1056F000F0B583B00D46634B1B686349A1FB0313F0
:10570000DB0A4FF47A7101FB03F30193037F012B52
:1057100000F0B58004460123037702234377002A73
:1057200061D103689B6813F0400F01D10023EB7037
:10573000EF692878FFF7E5FE06046878FFF7E1FED9
:1057400046EA0026A878FFF7DCFE0643E87846EA3A
:10575000004695F82000FFF7D4FE46EA00663E4377
:105760006B691E436868AB6918432368CA225A6292
:10577000236853225A626B6AB3F5807F4DD022684A
:10578000936823F4007393602268D368DBB263F4F8
:105790002073D360019B5A1E0192002B67D02368AF
:1057A000DA6812F0020FF5D01E622368986422684E
:1057B000936843F4007393602268936843F4005342
:1057C0009360324B1A6842F400321A609A6842F4CD
:1057D00000329A602368FF225A6201236377002017
:1057E000207703B0F0BD03689B6813F0400F01D130
:1057F0000023EB70EA6929786B781B0243EA0143C6
:10580000A9780B43E97843EA014395F8201043EA6D
:10581000016313436E691E43A4E72268936823F46F
:10582000807393602268D368DBB263F4C073D36083
:10583000019B5A1E019293B12368D96811F0010FA0
:10584000F6D0DE61236858642268936843F480735D
:1058500093602268936843F480539360B1E72368B0
:10586000FF225A620320607700232377B9E7236879
:10587000FF225A620320607700232377B1E70220DA
:10588000AFE700BF70010020D34D6210003C014023
:10589000704700002DE9F04782B00546884617465C
:1058A0001E46FDF7FDF80A9B1B1A03EB0609FDF7E0
:1058B000F7F882462B4B1B68C3F3CB3309FB03F38A
:1058C00001932B689C6838EA04030CBF4FF0010C6D
:1058D0004FF0000CBC4540D0B6F1FF3FF1D0FDF7D2
:1058E000DFF8A0EB0A0048450AD2B9F1000F07D053
:1058F000019A02B14A46019B013B01939146E0E7C0
:105900002A68536823F0E00353606B68B3F5827F25
:105910000BD0AB6AB3F5005F14D0012385F851308A
:10592000002385F85030032018E0AB68B3F5004F32
:1059300002D0B3F5806FECD12A68136823F04003DE
:105940001360E6E72A68136823F4005313602A689B
:10595000136843F400531360DFE7002002B0BDE892
:10596000F08700BF7001002010B584B00446164BCC
:105970001868164BA3FB0030400D4FF47A7303FBFD
:1059800000F003906368B3F5827F0BD0039BBBB13B
:10599000039B013B039323689B6813F0800FF5D1B1
:1059A00000200EE000920B46002280212046FFF7E7
:1059B00071FF30B1636D43F020036365032000E0A5
:1059C000002004B010BD00BF70010020819F5E1652
:1059D00010B582B004460B464168B1F5827F14D001
:1059E0006168B1F5827F2AD1A168B1F5806F19D0C5
:1059F0000092002280212046FFF74CFF30B3636DF8
:105A000043F020036365032020E08168B1F5004F77
:105A100002D0B1F5806FE3D12068016821F0400128
:105A20000160DDE70092002201212046FFF732FFEE
:105A300060B1636D43F020036365032006E00092CC
:105A4000002201212046FFF725FF08B902B010BD52
:105A5000636D43F0200363650320F7E700285AD005
:105A600010B50446436A33B94368B3F5827F05D065
:105A70000023C36102E00023036143610023A362AA
:105A800094F85130002B40D0022384F85130226822
:105A9000136823F040031360636803F48273A26801
:105AA00002F404421343E26802F4006213432269E1
:105AB00002F002021343626902F001021343A26979
:105AC00002F400721343E26902F038021343226ABF
:105AD00002F080021343A26A02F4005221681343C9
:105AE0000B60638B03F00403626A02F0100221680A
:105AF00013434B602268D36923F40063D361002011
