ARM GAS  C:\Users\7636~1\AppData\Local\Temp\cce1iPIx.s 			page 1


   1              		.cpu cortex-m4
   2              		.arch armv7e-m
   3              		.fpu fpv4-sp-d16
   4              		.eabi_attribute 27, 1
   5              		.eabi_attribute 28, 1
   6              		.eabi_attribute 20, 1
   7              		.eabi_attribute 21, 1
   8              		.eabi_attribute 23, 3
   9              		.eabi_attribute 24, 1
  10              		.eabi_attribute 25, 1
  11              		.eabi_attribute 26, 1
  12              		.eabi_attribute 30, 1
  13              		.eabi_attribute 34, 1
  14              		.eabi_attribute 18, 4
  15              		.file	"stm32f4xx_hal.c"
  16              		.text
  17              	.Ltext0:
  18              		.cfi_sections	.debug_frame
  19              		.section	.text.HAL_MspInit,"ax",%progbits
  20              		.align	1
  21              		.weak	HAL_MspInit
  22              		.syntax unified
  23              		.thumb
  24              		.thumb_func
  26              	HAL_MspInit:
  27              	.LFB218:
  28              		.file 1 "Drivers/STM32F4xx_HAL_Driver/Src/stm32f4xx_hal.c"
   1:Drivers/STM32F4xx_HAL_Driver/Src/stm32f4xx_hal.c **** /**
   2:Drivers/STM32F4xx_HAL_Driver/Src/stm32f4xx_hal.c ****   ******************************************************************************
   3:Drivers/STM32F4xx_HAL_Driver/Src/stm32f4xx_hal.c ****   * @file    stm32f4xx_hal.c
   4:Drivers/STM32F4xx_HAL_Driver/Src/stm32f4xx_hal.c ****   * @author  MCD Application Team
   5:Drivers/STM32F4xx_HAL_Driver/Src/stm32f4xx_hal.c ****   * @brief   HAL module driver.
   6:Drivers/STM32F4xx_HAL_Driver/Src/stm32f4xx_hal.c ****   *          This is the common part of the HAL initialization
   7:Drivers/STM32F4xx_HAL_Driver/Src/stm32f4xx_hal.c ****   *
   8:Drivers/STM32F4xx_HAL_Driver/Src/stm32f4xx_hal.c ****   @verbatim
   9:Drivers/STM32F4xx_HAL_Driver/Src/stm32f4xx_hal.c ****   ==============================================================================
  10:Drivers/STM32F4xx_HAL_Driver/Src/stm32f4xx_hal.c ****                      ##### How to use this driver #####
  11:Drivers/STM32F4xx_HAL_Driver/Src/stm32f4xx_hal.c ****   ==============================================================================
  12:Drivers/STM32F4xx_HAL_Driver/Src/stm32f4xx_hal.c ****     [..]
  13:Drivers/STM32F4xx_HAL_Driver/Src/stm32f4xx_hal.c ****     The common HAL driver contains a set of generic and common APIs that can be
  14:Drivers/STM32F4xx_HAL_Driver/Src/stm32f4xx_hal.c ****     used by the PPP peripheral drivers and the user to start using the HAL. 
  15:Drivers/STM32F4xx_HAL_Driver/Src/stm32f4xx_hal.c ****     [..]
  16:Drivers/STM32F4xx_HAL_Driver/Src/stm32f4xx_hal.c ****     The HAL contains two APIs' categories: 
  17:Drivers/STM32F4xx_HAL_Driver/Src/stm32f4xx_hal.c ****          (+) Common HAL APIs
  18:Drivers/STM32F4xx_HAL_Driver/Src/stm32f4xx_hal.c ****          (+) Services HAL APIs
  19:Drivers/STM32F4xx_HAL_Driver/Src/stm32f4xx_hal.c **** 
  20:Drivers/STM32F4xx_HAL_Driver/Src/stm32f4xx_hal.c ****   @endverbatim
  21:Drivers/STM32F4xx_HAL_Driver/Src/stm32f4xx_hal.c ****   ******************************************************************************
  22:Drivers/STM32F4xx_HAL_Driver/Src/stm32f4xx_hal.c ****   * @attention
  23:Drivers/STM32F4xx_HAL_Driver/Src/stm32f4xx_hal.c ****   *
  24:Drivers/STM32F4xx_HAL_Driver/Src/stm32f4xx_hal.c ****   * <h2><center>&copy; Copyright (c) 2017 STMicroelectronics.
  25:Drivers/STM32F4xx_HAL_Driver/Src/stm32f4xx_hal.c ****   * All rights reserved.</center></h2>
  26:Drivers/STM32F4xx_HAL_Driver/Src/stm32f4xx_hal.c ****   *
  27:Drivers/STM32F4xx_HAL_Driver/Src/stm32f4xx_hal.c ****   * This software component is licensed by ST under BSD 3-Clause license,
  28:Drivers/STM32F4xx_HAL_Driver/Src/stm32f4xx_hal.c ****   * the "License"; You may not use this file except in compliance with the
  29:Drivers/STM32F4xx_HAL_Driver/Src/stm32f4xx_hal.c ****   * License. You may obtain a copy of the License at:
  30:Drivers/STM32F4xx_HAL_Driver/Src/stm32f4xx_hal.c ****   *                        opensource.org/licenses/BSD-3-Clause
ARM GAS  C:\Users\7636~1\AppData\Local\Temp\cce1iPIx.s 			page 2


  31:Drivers/STM32F4xx_HAL_Driver/Src/stm32f4xx_hal.c ****   *
  32:Drivers/STM32F4xx_HAL_Driver/Src/stm32f4xx_hal.c ****   ******************************************************************************
  33:Drivers/STM32F4xx_HAL_Driver/Src/stm32f4xx_hal.c ****   */ 
  34:Drivers/STM32F4xx_HAL_Driver/Src/stm32f4xx_hal.c **** 
  35:Drivers/STM32F4xx_HAL_Driver/Src/stm32f4xx_hal.c **** /* Includes ------------------------------------------------------------------*/
  36:Drivers/STM32F4xx_HAL_Driver/Src/stm32f4xx_hal.c **** #include "stm32f4xx_hal.h"
  37:Drivers/STM32F4xx_HAL_Driver/Src/stm32f4xx_hal.c **** 
  38:Drivers/STM32F4xx_HAL_Driver/Src/stm32f4xx_hal.c **** /** @addtogroup STM32F4xx_HAL_Driver
  39:Drivers/STM32F4xx_HAL_Driver/Src/stm32f4xx_hal.c ****   * @{
  40:Drivers/STM32F4xx_HAL_Driver/Src/stm32f4xx_hal.c ****   */
  41:Drivers/STM32F4xx_HAL_Driver/Src/stm32f4xx_hal.c **** 
  42:Drivers/STM32F4xx_HAL_Driver/Src/stm32f4xx_hal.c **** /** @defgroup HAL HAL
  43:Drivers/STM32F4xx_HAL_Driver/Src/stm32f4xx_hal.c ****   * @brief HAL module driver.
  44:Drivers/STM32F4xx_HAL_Driver/Src/stm32f4xx_hal.c ****   * @{
  45:Drivers/STM32F4xx_HAL_Driver/Src/stm32f4xx_hal.c ****   */
  46:Drivers/STM32F4xx_HAL_Driver/Src/stm32f4xx_hal.c **** 
  47:Drivers/STM32F4xx_HAL_Driver/Src/stm32f4xx_hal.c **** /* Private typedef -----------------------------------------------------------*/
  48:Drivers/STM32F4xx_HAL_Driver/Src/stm32f4xx_hal.c **** /* Private define ------------------------------------------------------------*/
  49:Drivers/STM32F4xx_HAL_Driver/Src/stm32f4xx_hal.c **** /** @addtogroup HAL_Private_Constants
  50:Drivers/STM32F4xx_HAL_Driver/Src/stm32f4xx_hal.c ****   * @{
  51:Drivers/STM32F4xx_HAL_Driver/Src/stm32f4xx_hal.c ****   */
  52:Drivers/STM32F4xx_HAL_Driver/Src/stm32f4xx_hal.c **** /**
  53:Drivers/STM32F4xx_HAL_Driver/Src/stm32f4xx_hal.c ****   * @brief STM32F4xx HAL Driver version number V1.7.12
  54:Drivers/STM32F4xx_HAL_Driver/Src/stm32f4xx_hal.c ****   */
  55:Drivers/STM32F4xx_HAL_Driver/Src/stm32f4xx_hal.c **** #define __STM32F4xx_HAL_VERSION_MAIN   (0x01U) /*!< [31:24] main version */
  56:Drivers/STM32F4xx_HAL_Driver/Src/stm32f4xx_hal.c **** #define __STM32F4xx_HAL_VERSION_SUB1   (0x07U) /*!< [23:16] sub1 version */
  57:Drivers/STM32F4xx_HAL_Driver/Src/stm32f4xx_hal.c **** #define __STM32F4xx_HAL_VERSION_SUB2   (0x0CU) /*!< [15:8]  sub2 version */
  58:Drivers/STM32F4xx_HAL_Driver/Src/stm32f4xx_hal.c **** #define __STM32F4xx_HAL_VERSION_RC     (0x00U) /*!< [7:0]  release candidate */ 
  59:Drivers/STM32F4xx_HAL_Driver/Src/stm32f4xx_hal.c **** #define __STM32F4xx_HAL_VERSION         ((__STM32F4xx_HAL_VERSION_MAIN << 24U)\
  60:Drivers/STM32F4xx_HAL_Driver/Src/stm32f4xx_hal.c ****                                         |(__STM32F4xx_HAL_VERSION_SUB1 << 16U)\
  61:Drivers/STM32F4xx_HAL_Driver/Src/stm32f4xx_hal.c ****                                         |(__STM32F4xx_HAL_VERSION_SUB2 << 8U )\
  62:Drivers/STM32F4xx_HAL_Driver/Src/stm32f4xx_hal.c ****                                         |(__STM32F4xx_HAL_VERSION_RC))
  63:Drivers/STM32F4xx_HAL_Driver/Src/stm32f4xx_hal.c ****                                         
  64:Drivers/STM32F4xx_HAL_Driver/Src/stm32f4xx_hal.c **** #define IDCODE_DEVID_MASK    0x00000FFFU
  65:Drivers/STM32F4xx_HAL_Driver/Src/stm32f4xx_hal.c **** 
  66:Drivers/STM32F4xx_HAL_Driver/Src/stm32f4xx_hal.c **** /* ------------ RCC registers bit address in the alias region ----------- */
  67:Drivers/STM32F4xx_HAL_Driver/Src/stm32f4xx_hal.c **** #define SYSCFG_OFFSET             (SYSCFG_BASE - PERIPH_BASE)
  68:Drivers/STM32F4xx_HAL_Driver/Src/stm32f4xx_hal.c **** /* ---  MEMRMP Register ---*/ 
  69:Drivers/STM32F4xx_HAL_Driver/Src/stm32f4xx_hal.c **** /* Alias word address of UFB_MODE bit */ 
  70:Drivers/STM32F4xx_HAL_Driver/Src/stm32f4xx_hal.c **** #define MEMRMP_OFFSET             SYSCFG_OFFSET 
  71:Drivers/STM32F4xx_HAL_Driver/Src/stm32f4xx_hal.c **** #define UFB_MODE_BIT_NUMBER       SYSCFG_MEMRMP_UFB_MODE_Pos
  72:Drivers/STM32F4xx_HAL_Driver/Src/stm32f4xx_hal.c **** #define UFB_MODE_BB               (uint32_t)(PERIPH_BB_BASE + (MEMRMP_OFFSET * 32U) + (UFB_MODE_BIT
  73:Drivers/STM32F4xx_HAL_Driver/Src/stm32f4xx_hal.c **** 
  74:Drivers/STM32F4xx_HAL_Driver/Src/stm32f4xx_hal.c **** /* ---  CMPCR Register ---*/ 
  75:Drivers/STM32F4xx_HAL_Driver/Src/stm32f4xx_hal.c **** /* Alias word address of CMP_PD bit */ 
  76:Drivers/STM32F4xx_HAL_Driver/Src/stm32f4xx_hal.c **** #define CMPCR_OFFSET              (SYSCFG_OFFSET + 0x20U) 
  77:Drivers/STM32F4xx_HAL_Driver/Src/stm32f4xx_hal.c **** #define CMP_PD_BIT_NUMBER         SYSCFG_CMPCR_CMP_PD_Pos
  78:Drivers/STM32F4xx_HAL_Driver/Src/stm32f4xx_hal.c **** #define CMPCR_CMP_PD_BB           (uint32_t)(PERIPH_BB_BASE + (CMPCR_OFFSET * 32U) + (CMP_PD_BIT_NU
  79:Drivers/STM32F4xx_HAL_Driver/Src/stm32f4xx_hal.c **** 
  80:Drivers/STM32F4xx_HAL_Driver/Src/stm32f4xx_hal.c **** /* ---  MCHDLYCR Register ---*/ 
  81:Drivers/STM32F4xx_HAL_Driver/Src/stm32f4xx_hal.c **** /* Alias word address of BSCKSEL bit */ 
  82:Drivers/STM32F4xx_HAL_Driver/Src/stm32f4xx_hal.c **** #define MCHDLYCR_OFFSET            (SYSCFG_OFFSET + 0x30U) 
  83:Drivers/STM32F4xx_HAL_Driver/Src/stm32f4xx_hal.c **** #define BSCKSEL_BIT_NUMBER         SYSCFG_MCHDLYCR_BSCKSEL_Pos
  84:Drivers/STM32F4xx_HAL_Driver/Src/stm32f4xx_hal.c **** #define MCHDLYCR_BSCKSEL_BB        (uint32_t)(PERIPH_BB_BASE + (MCHDLYCR_OFFSET * 32U) + (BSCKSEL_B
  85:Drivers/STM32F4xx_HAL_Driver/Src/stm32f4xx_hal.c **** /**
  86:Drivers/STM32F4xx_HAL_Driver/Src/stm32f4xx_hal.c ****   * @}
  87:Drivers/STM32F4xx_HAL_Driver/Src/stm32f4xx_hal.c ****   */
ARM GAS  C:\Users\7636~1\AppData\Local\Temp\cce1iPIx.s 			page 3


  88:Drivers/STM32F4xx_HAL_Driver/Src/stm32f4xx_hal.c **** 
  89:Drivers/STM32F4xx_HAL_Driver/Src/stm32f4xx_hal.c **** /* Private macro -------------------------------------------------------------*/
  90:Drivers/STM32F4xx_HAL_Driver/Src/stm32f4xx_hal.c **** /* Private variables ---------------------------------------------------------*/
  91:Drivers/STM32F4xx_HAL_Driver/Src/stm32f4xx_hal.c **** /** @addtogroup HAL_Private_Variables
  92:Drivers/STM32F4xx_HAL_Driver/Src/stm32f4xx_hal.c ****   * @{
  93:Drivers/STM32F4xx_HAL_Driver/Src/stm32f4xx_hal.c ****   */
  94:Drivers/STM32F4xx_HAL_Driver/Src/stm32f4xx_hal.c **** __IO uint32_t uwTick;
  95:Drivers/STM32F4xx_HAL_Driver/Src/stm32f4xx_hal.c **** uint32_t uwTickPrio   = (1UL << __NVIC_PRIO_BITS); /* Invalid PRIO */
  96:Drivers/STM32F4xx_HAL_Driver/Src/stm32f4xx_hal.c **** HAL_TickFreqTypeDef uwTickFreq = HAL_TICK_FREQ_DEFAULT;  /* 1KHz */
  97:Drivers/STM32F4xx_HAL_Driver/Src/stm32f4xx_hal.c **** /**
  98:Drivers/STM32F4xx_HAL_Driver/Src/stm32f4xx_hal.c ****   * @}
  99:Drivers/STM32F4xx_HAL_Driver/Src/stm32f4xx_hal.c ****   */
 100:Drivers/STM32F4xx_HAL_Driver/Src/stm32f4xx_hal.c **** /* Private function prototypes -----------------------------------------------*/
 101:Drivers/STM32F4xx_HAL_Driver/Src/stm32f4xx_hal.c **** /* Private functions ---------------------------------------------------------*/
 102:Drivers/STM32F4xx_HAL_Driver/Src/stm32f4xx_hal.c **** 
 103:Drivers/STM32F4xx_HAL_Driver/Src/stm32f4xx_hal.c **** /** @defgroup HAL_Exported_Functions HAL Exported Functions
 104:Drivers/STM32F4xx_HAL_Driver/Src/stm32f4xx_hal.c ****   * @{
 105:Drivers/STM32F4xx_HAL_Driver/Src/stm32f4xx_hal.c ****   */
 106:Drivers/STM32F4xx_HAL_Driver/Src/stm32f4xx_hal.c **** 
 107:Drivers/STM32F4xx_HAL_Driver/Src/stm32f4xx_hal.c **** /** @defgroup HAL_Exported_Functions_Group1 Initialization and de-initialization Functions 
 108:Drivers/STM32F4xx_HAL_Driver/Src/stm32f4xx_hal.c ****  *  @brief    Initialization and de-initialization functions
 109:Drivers/STM32F4xx_HAL_Driver/Src/stm32f4xx_hal.c ****  *
 110:Drivers/STM32F4xx_HAL_Driver/Src/stm32f4xx_hal.c **** @verbatim    
 111:Drivers/STM32F4xx_HAL_Driver/Src/stm32f4xx_hal.c ****  ===============================================================================
 112:Drivers/STM32F4xx_HAL_Driver/Src/stm32f4xx_hal.c ****               ##### Initialization and Configuration functions #####
 113:Drivers/STM32F4xx_HAL_Driver/Src/stm32f4xx_hal.c ****  ===============================================================================
 114:Drivers/STM32F4xx_HAL_Driver/Src/stm32f4xx_hal.c ****     [..]  This section provides functions allowing to:
 115:Drivers/STM32F4xx_HAL_Driver/Src/stm32f4xx_hal.c ****       (+) Initializes the Flash interface the NVIC allocation and initial clock 
 116:Drivers/STM32F4xx_HAL_Driver/Src/stm32f4xx_hal.c ****           configuration. It initializes the systick also when timeout is needed 
 117:Drivers/STM32F4xx_HAL_Driver/Src/stm32f4xx_hal.c ****           and the backup domain when enabled.
 118:Drivers/STM32F4xx_HAL_Driver/Src/stm32f4xx_hal.c ****       (+) De-Initializes common part of the HAL.
 119:Drivers/STM32F4xx_HAL_Driver/Src/stm32f4xx_hal.c ****       (+) Configure the time base source to have 1ms time base with a dedicated 
 120:Drivers/STM32F4xx_HAL_Driver/Src/stm32f4xx_hal.c ****           Tick interrupt priority. 
 121:Drivers/STM32F4xx_HAL_Driver/Src/stm32f4xx_hal.c ****         (++) SysTick timer is used by default as source of time base, but user
 122:Drivers/STM32F4xx_HAL_Driver/Src/stm32f4xx_hal.c ****              can eventually implement his proper time base source (a general purpose 
 123:Drivers/STM32F4xx_HAL_Driver/Src/stm32f4xx_hal.c ****              timer for example or other time source), keeping in mind that Time base 
 124:Drivers/STM32F4xx_HAL_Driver/Src/stm32f4xx_hal.c ****              duration should be kept 1ms since PPP_TIMEOUT_VALUEs are defined and 
 125:Drivers/STM32F4xx_HAL_Driver/Src/stm32f4xx_hal.c ****              handled in milliseconds basis.
 126:Drivers/STM32F4xx_HAL_Driver/Src/stm32f4xx_hal.c ****         (++) Time base configuration function (HAL_InitTick ()) is called automatically 
 127:Drivers/STM32F4xx_HAL_Driver/Src/stm32f4xx_hal.c ****              at the beginning of the program after reset by HAL_Init() or at any time 
 128:Drivers/STM32F4xx_HAL_Driver/Src/stm32f4xx_hal.c ****              when clock is configured, by HAL_RCC_ClockConfig(). 
 129:Drivers/STM32F4xx_HAL_Driver/Src/stm32f4xx_hal.c ****         (++) Source of time base is configured  to generate interrupts at regular 
 130:Drivers/STM32F4xx_HAL_Driver/Src/stm32f4xx_hal.c ****              time intervals. Care must be taken if HAL_Delay() is called from a 
 131:Drivers/STM32F4xx_HAL_Driver/Src/stm32f4xx_hal.c ****              peripheral ISR process, the Tick interrupt line must have higher priority 
 132:Drivers/STM32F4xx_HAL_Driver/Src/stm32f4xx_hal.c ****             (numerically lower) than the peripheral interrupt. Otherwise the caller 
 133:Drivers/STM32F4xx_HAL_Driver/Src/stm32f4xx_hal.c ****             ISR process will be blocked. 
 134:Drivers/STM32F4xx_HAL_Driver/Src/stm32f4xx_hal.c ****        (++) functions affecting time base configurations are declared as __weak  
 135:Drivers/STM32F4xx_HAL_Driver/Src/stm32f4xx_hal.c ****              to make  override possible  in case of other  implementations in user file.
 136:Drivers/STM32F4xx_HAL_Driver/Src/stm32f4xx_hal.c **** @endverbatim
 137:Drivers/STM32F4xx_HAL_Driver/Src/stm32f4xx_hal.c ****   * @{
 138:Drivers/STM32F4xx_HAL_Driver/Src/stm32f4xx_hal.c ****   */
 139:Drivers/STM32F4xx_HAL_Driver/Src/stm32f4xx_hal.c **** 
 140:Drivers/STM32F4xx_HAL_Driver/Src/stm32f4xx_hal.c **** /**
 141:Drivers/STM32F4xx_HAL_Driver/Src/stm32f4xx_hal.c ****   * @brief  This function is used to initialize the HAL Library; it must be the first 
 142:Drivers/STM32F4xx_HAL_Driver/Src/stm32f4xx_hal.c ****   *         instruction to be executed in the main program (before to call any other
 143:Drivers/STM32F4xx_HAL_Driver/Src/stm32f4xx_hal.c ****   *         HAL function), it performs the following:
 144:Drivers/STM32F4xx_HAL_Driver/Src/stm32f4xx_hal.c ****   *           Configure the Flash prefetch, instruction and Data caches.
ARM GAS  C:\Users\7636~1\AppData\Local\Temp\cce1iPIx.s 			page 4


 145:Drivers/STM32F4xx_HAL_Driver/Src/stm32f4xx_hal.c ****   *           Configures the SysTick to generate an interrupt each 1 millisecond,
 146:Drivers/STM32F4xx_HAL_Driver/Src/stm32f4xx_hal.c ****   *           which is clocked by the HSI (at this stage, the clock is not yet
 147:Drivers/STM32F4xx_HAL_Driver/Src/stm32f4xx_hal.c ****   *           configured and thus the system is running from the internal HSI at 16 MHz).
 148:Drivers/STM32F4xx_HAL_Driver/Src/stm32f4xx_hal.c ****   *           Set NVIC Group Priority to 4.
 149:Drivers/STM32F4xx_HAL_Driver/Src/stm32f4xx_hal.c ****   *           Calls the HAL_MspInit() callback function defined in user file 
 150:Drivers/STM32F4xx_HAL_Driver/Src/stm32f4xx_hal.c ****   *           "stm32f4xx_hal_msp.c" to do the global low level hardware initialization 
 151:Drivers/STM32F4xx_HAL_Driver/Src/stm32f4xx_hal.c ****   *            
 152:Drivers/STM32F4xx_HAL_Driver/Src/stm32f4xx_hal.c ****   * @note   SysTick is used as time base for the HAL_Delay() function, the application
 153:Drivers/STM32F4xx_HAL_Driver/Src/stm32f4xx_hal.c ****   *         need to ensure that the SysTick time base is always set to 1 millisecond
 154:Drivers/STM32F4xx_HAL_Driver/Src/stm32f4xx_hal.c ****   *         to have correct HAL operation.
 155:Drivers/STM32F4xx_HAL_Driver/Src/stm32f4xx_hal.c ****   * @retval HAL status
 156:Drivers/STM32F4xx_HAL_Driver/Src/stm32f4xx_hal.c ****   */
 157:Drivers/STM32F4xx_HAL_Driver/Src/stm32f4xx_hal.c **** HAL_StatusTypeDef HAL_Init(void)
 158:Drivers/STM32F4xx_HAL_Driver/Src/stm32f4xx_hal.c **** {
 159:Drivers/STM32F4xx_HAL_Driver/Src/stm32f4xx_hal.c ****   /* Configure Flash prefetch, Instruction cache, Data cache */ 
 160:Drivers/STM32F4xx_HAL_Driver/Src/stm32f4xx_hal.c **** #if (INSTRUCTION_CACHE_ENABLE != 0U)
 161:Drivers/STM32F4xx_HAL_Driver/Src/stm32f4xx_hal.c ****   __HAL_FLASH_INSTRUCTION_CACHE_ENABLE();
 162:Drivers/STM32F4xx_HAL_Driver/Src/stm32f4xx_hal.c **** #endif /* INSTRUCTION_CACHE_ENABLE */
 163:Drivers/STM32F4xx_HAL_Driver/Src/stm32f4xx_hal.c **** 
 164:Drivers/STM32F4xx_HAL_Driver/Src/stm32f4xx_hal.c **** #if (DATA_CACHE_ENABLE != 0U)
 165:Drivers/STM32F4xx_HAL_Driver/Src/stm32f4xx_hal.c ****   __HAL_FLASH_DATA_CACHE_ENABLE();
 166:Drivers/STM32F4xx_HAL_Driver/Src/stm32f4xx_hal.c **** #endif /* DATA_CACHE_ENABLE */
 167:Drivers/STM32F4xx_HAL_Driver/Src/stm32f4xx_hal.c **** 
 168:Drivers/STM32F4xx_HAL_Driver/Src/stm32f4xx_hal.c **** #if (PREFETCH_ENABLE != 0U)
 169:Drivers/STM32F4xx_HAL_Driver/Src/stm32f4xx_hal.c ****   __HAL_FLASH_PREFETCH_BUFFER_ENABLE();
 170:Drivers/STM32F4xx_HAL_Driver/Src/stm32f4xx_hal.c **** #endif /* PREFETCH_ENABLE */
 171:Drivers/STM32F4xx_HAL_Driver/Src/stm32f4xx_hal.c **** 
 172:Drivers/STM32F4xx_HAL_Driver/Src/stm32f4xx_hal.c ****   /* Set Interrupt Group Priority */
 173:Drivers/STM32F4xx_HAL_Driver/Src/stm32f4xx_hal.c ****   HAL_NVIC_SetPriorityGrouping(NVIC_PRIORITYGROUP_4);
 174:Drivers/STM32F4xx_HAL_Driver/Src/stm32f4xx_hal.c **** 
 175:Drivers/STM32F4xx_HAL_Driver/Src/stm32f4xx_hal.c ****   /* Use systick as time base source and configure 1ms tick (default clock after Reset is HSI) */
 176:Drivers/STM32F4xx_HAL_Driver/Src/stm32f4xx_hal.c ****   HAL_InitTick(TICK_INT_PRIORITY);
 177:Drivers/STM32F4xx_HAL_Driver/Src/stm32f4xx_hal.c **** 
 178:Drivers/STM32F4xx_HAL_Driver/Src/stm32f4xx_hal.c ****   /* Init the low level hardware */
 179:Drivers/STM32F4xx_HAL_Driver/Src/stm32f4xx_hal.c ****   HAL_MspInit();
 180:Drivers/STM32F4xx_HAL_Driver/Src/stm32f4xx_hal.c **** 
 181:Drivers/STM32F4xx_HAL_Driver/Src/stm32f4xx_hal.c ****   /* Return function status */
 182:Drivers/STM32F4xx_HAL_Driver/Src/stm32f4xx_hal.c ****   return HAL_OK;
 183:Drivers/STM32F4xx_HAL_Driver/Src/stm32f4xx_hal.c **** }
 184:Drivers/STM32F4xx_HAL_Driver/Src/stm32f4xx_hal.c **** 
 185:Drivers/STM32F4xx_HAL_Driver/Src/stm32f4xx_hal.c **** /**
 186:Drivers/STM32F4xx_HAL_Driver/Src/stm32f4xx_hal.c ****   * @brief  This function de-Initializes common part of the HAL and stops the systick.
 187:Drivers/STM32F4xx_HAL_Driver/Src/stm32f4xx_hal.c ****   *         This function is optional.   
 188:Drivers/STM32F4xx_HAL_Driver/Src/stm32f4xx_hal.c ****   * @retval HAL status
 189:Drivers/STM32F4xx_HAL_Driver/Src/stm32f4xx_hal.c ****   */
 190:Drivers/STM32F4xx_HAL_Driver/Src/stm32f4xx_hal.c **** HAL_StatusTypeDef HAL_DeInit(void)
 191:Drivers/STM32F4xx_HAL_Driver/Src/stm32f4xx_hal.c **** {
 192:Drivers/STM32F4xx_HAL_Driver/Src/stm32f4xx_hal.c ****   /* Reset of all peripherals */
 193:Drivers/STM32F4xx_HAL_Driver/Src/stm32f4xx_hal.c ****   __HAL_RCC_APB1_FORCE_RESET();
 194:Drivers/STM32F4xx_HAL_Driver/Src/stm32f4xx_hal.c ****   __HAL_RCC_APB1_RELEASE_RESET();
 195:Drivers/STM32F4xx_HAL_Driver/Src/stm32f4xx_hal.c **** 
 196:Drivers/STM32F4xx_HAL_Driver/Src/stm32f4xx_hal.c ****   __HAL_RCC_APB2_FORCE_RESET();
 197:Drivers/STM32F4xx_HAL_Driver/Src/stm32f4xx_hal.c ****   __HAL_RCC_APB2_RELEASE_RESET();
 198:Drivers/STM32F4xx_HAL_Driver/Src/stm32f4xx_hal.c **** 
 199:Drivers/STM32F4xx_HAL_Driver/Src/stm32f4xx_hal.c ****   __HAL_RCC_AHB1_FORCE_RESET();
 200:Drivers/STM32F4xx_HAL_Driver/Src/stm32f4xx_hal.c ****   __HAL_RCC_AHB1_RELEASE_RESET();
 201:Drivers/STM32F4xx_HAL_Driver/Src/stm32f4xx_hal.c **** 
ARM GAS  C:\Users\7636~1\AppData\Local\Temp\cce1iPIx.s 			page 5


 202:Drivers/STM32F4xx_HAL_Driver/Src/stm32f4xx_hal.c ****   __HAL_RCC_AHB2_FORCE_RESET();
 203:Drivers/STM32F4xx_HAL_Driver/Src/stm32f4xx_hal.c ****   __HAL_RCC_AHB2_RELEASE_RESET();
 204:Drivers/STM32F4xx_HAL_Driver/Src/stm32f4xx_hal.c **** 
 205:Drivers/STM32F4xx_HAL_Driver/Src/stm32f4xx_hal.c ****   __HAL_RCC_AHB3_FORCE_RESET();
 206:Drivers/STM32F4xx_HAL_Driver/Src/stm32f4xx_hal.c ****   __HAL_RCC_AHB3_RELEASE_RESET();
 207:Drivers/STM32F4xx_HAL_Driver/Src/stm32f4xx_hal.c **** 
 208:Drivers/STM32F4xx_HAL_Driver/Src/stm32f4xx_hal.c ****   /* De-Init the low level hardware */
 209:Drivers/STM32F4xx_HAL_Driver/Src/stm32f4xx_hal.c ****   HAL_MspDeInit();
 210:Drivers/STM32F4xx_HAL_Driver/Src/stm32f4xx_hal.c ****     
 211:Drivers/STM32F4xx_HAL_Driver/Src/stm32f4xx_hal.c ****   /* Return function status */
 212:Drivers/STM32F4xx_HAL_Driver/Src/stm32f4xx_hal.c ****   return HAL_OK;
 213:Drivers/STM32F4xx_HAL_Driver/Src/stm32f4xx_hal.c **** }
 214:Drivers/STM32F4xx_HAL_Driver/Src/stm32f4xx_hal.c **** 
 215:Drivers/STM32F4xx_HAL_Driver/Src/stm32f4xx_hal.c **** /**
 216:Drivers/STM32F4xx_HAL_Driver/Src/stm32f4xx_hal.c ****   * @brief  Initialize the MSP.
 217:Drivers/STM32F4xx_HAL_Driver/Src/stm32f4xx_hal.c ****   * @retval None
 218:Drivers/STM32F4xx_HAL_Driver/Src/stm32f4xx_hal.c ****   */
 219:Drivers/STM32F4xx_HAL_Driver/Src/stm32f4xx_hal.c **** __weak void HAL_MspInit(void)
 220:Drivers/STM32F4xx_HAL_Driver/Src/stm32f4xx_hal.c **** {
  29              		.loc 1 220 1 view -0
  30              		.cfi_startproc
  31              		@ args = 0, pretend = 0, frame = 0
  32              		@ frame_needed = 0, uses_anonymous_args = 0
  33              		@ link register save eliminated.
 221:Drivers/STM32F4xx_HAL_Driver/Src/stm32f4xx_hal.c ****   /* NOTE : This function should not be modified, when the callback is needed,
 222:Drivers/STM32F4xx_HAL_Driver/Src/stm32f4xx_hal.c ****             the HAL_MspInit could be implemented in the user file
 223:Drivers/STM32F4xx_HAL_Driver/Src/stm32f4xx_hal.c ****    */
 224:Drivers/STM32F4xx_HAL_Driver/Src/stm32f4xx_hal.c **** }
  34              		.loc 1 224 1 view .LVU1
  35 0000 7047     		bx	lr
  36              		.cfi_endproc
  37              	.LFE218:
  39              		.section	.text.HAL_MspDeInit,"ax",%progbits
  40              		.align	1
  41              		.weak	HAL_MspDeInit
  42              		.syntax unified
  43              		.thumb
  44              		.thumb_func
  46              	HAL_MspDeInit:
  47              	.LFB219:
 225:Drivers/STM32F4xx_HAL_Driver/Src/stm32f4xx_hal.c **** 
 226:Drivers/STM32F4xx_HAL_Driver/Src/stm32f4xx_hal.c **** /**
 227:Drivers/STM32F4xx_HAL_Driver/Src/stm32f4xx_hal.c ****   * @brief  DeInitializes the MSP.
 228:Drivers/STM32F4xx_HAL_Driver/Src/stm32f4xx_hal.c ****   * @retval None
 229:Drivers/STM32F4xx_HAL_Driver/Src/stm32f4xx_hal.c ****   */
 230:Drivers/STM32F4xx_HAL_Driver/Src/stm32f4xx_hal.c **** __weak void HAL_MspDeInit(void)
 231:Drivers/STM32F4xx_HAL_Driver/Src/stm32f4xx_hal.c **** {
  48              		.loc 1 231 1 view -0
  49              		.cfi_startproc
  50              		@ args = 0, pretend = 0, frame = 0
  51              		@ frame_needed = 0, uses_anonymous_args = 0
  52              		@ link register save eliminated.
 232:Drivers/STM32F4xx_HAL_Driver/Src/stm32f4xx_hal.c ****   /* NOTE : This function should not be modified, when the callback is needed,
 233:Drivers/STM32F4xx_HAL_Driver/Src/stm32f4xx_hal.c ****             the HAL_MspDeInit could be implemented in the user file
 234:Drivers/STM32F4xx_HAL_Driver/Src/stm32f4xx_hal.c ****    */ 
 235:Drivers/STM32F4xx_HAL_Driver/Src/stm32f4xx_hal.c **** }
  53              		.loc 1 235 1 view .LVU3
ARM GAS  C:\Users\7636~1\AppData\Local\Temp\cce1iPIx.s 			page 6


  54 0000 7047     		bx	lr
  55              		.cfi_endproc
  56              	.LFE219:
  58              		.section	.text.HAL_DeInit,"ax",%progbits
  59              		.align	1
  60              		.global	HAL_DeInit
  61              		.syntax unified
  62              		.thumb
  63              		.thumb_func
  65              	HAL_DeInit:
  66              	.LFB217:
 191:Drivers/STM32F4xx_HAL_Driver/Src/stm32f4xx_hal.c ****   /* Reset of all peripherals */
  67              		.loc 1 191 1 view -0
  68              		.cfi_startproc
  69              		@ args = 0, pretend = 0, frame = 0
  70              		@ frame_needed = 0, uses_anonymous_args = 0
  71 0000 10B5     		push	{r4, lr}
  72              	.LCFI0:
  73              		.cfi_def_cfa_offset 8
  74              		.cfi_offset 4, -8
  75              		.cfi_offset 14, -4
 193:Drivers/STM32F4xx_HAL_Driver/Src/stm32f4xx_hal.c ****   __HAL_RCC_APB1_RELEASE_RESET();
  76              		.loc 1 193 3 view .LVU5
  77 0002 094B     		ldr	r3, .L5
  78 0004 4FF0FF32 		mov	r2, #-1
  79 0008 1A62     		str	r2, [r3, #32]
 194:Drivers/STM32F4xx_HAL_Driver/Src/stm32f4xx_hal.c **** 
  80              		.loc 1 194 3 view .LVU6
  81 000a 0024     		movs	r4, #0
  82 000c 1C62     		str	r4, [r3, #32]
 196:Drivers/STM32F4xx_HAL_Driver/Src/stm32f4xx_hal.c ****   __HAL_RCC_APB2_RELEASE_RESET();
  83              		.loc 1 196 3 view .LVU7
  84 000e 5A62     		str	r2, [r3, #36]
 197:Drivers/STM32F4xx_HAL_Driver/Src/stm32f4xx_hal.c **** 
  85              		.loc 1 197 3 view .LVU8
  86 0010 5C62     		str	r4, [r3, #36]
 199:Drivers/STM32F4xx_HAL_Driver/Src/stm32f4xx_hal.c ****   __HAL_RCC_AHB1_RELEASE_RESET();
  87              		.loc 1 199 3 view .LVU9
  88 0012 1A61     		str	r2, [r3, #16]
 200:Drivers/STM32F4xx_HAL_Driver/Src/stm32f4xx_hal.c **** 
  89              		.loc 1 200 3 view .LVU10
  90 0014 1C61     		str	r4, [r3, #16]
 202:Drivers/STM32F4xx_HAL_Driver/Src/stm32f4xx_hal.c ****   __HAL_RCC_AHB2_RELEASE_RESET();
  91              		.loc 1 202 3 view .LVU11
  92 0016 5A61     		str	r2, [r3, #20]
 203:Drivers/STM32F4xx_HAL_Driver/Src/stm32f4xx_hal.c **** 
  93              		.loc 1 203 3 view .LVU12
  94 0018 5C61     		str	r4, [r3, #20]
 205:Drivers/STM32F4xx_HAL_Driver/Src/stm32f4xx_hal.c ****   __HAL_RCC_AHB3_RELEASE_RESET();
  95              		.loc 1 205 3 view .LVU13
  96 001a 9A61     		str	r2, [r3, #24]
 206:Drivers/STM32F4xx_HAL_Driver/Src/stm32f4xx_hal.c **** 
  97              		.loc 1 206 3 view .LVU14
  98 001c 9C61     		str	r4, [r3, #24]
 209:Drivers/STM32F4xx_HAL_Driver/Src/stm32f4xx_hal.c ****     
  99              		.loc 1 209 3 view .LVU15
 100 001e FFF7FEFF 		bl	HAL_MspDeInit
ARM GAS  C:\Users\7636~1\AppData\Local\Temp\cce1iPIx.s 			page 7


 101              	.LVL0:
 212:Drivers/STM32F4xx_HAL_Driver/Src/stm32f4xx_hal.c **** }
 102              		.loc 1 212 3 view .LVU16
 213:Drivers/STM32F4xx_HAL_Driver/Src/stm32f4xx_hal.c **** 
 103              		.loc 1 213 1 is_stmt 0 view .LVU17
 104 0022 2046     		mov	r0, r4
 105 0024 10BD     		pop	{r4, pc}
 106              	.L6:
 107 0026 00BF     		.align	2
 108              	.L5:
 109 0028 00380240 		.word	1073887232
 110              		.cfi_endproc
 111              	.LFE217:
 113              		.section	.text.HAL_InitTick,"ax",%progbits
 114              		.align	1
 115              		.weak	HAL_InitTick
 116              		.syntax unified
 117              		.thumb
 118              		.thumb_func
 120              	HAL_InitTick:
 121              	.LVL1:
 122              	.LFB220:
 236:Drivers/STM32F4xx_HAL_Driver/Src/stm32f4xx_hal.c **** 
 237:Drivers/STM32F4xx_HAL_Driver/Src/stm32f4xx_hal.c **** /**
 238:Drivers/STM32F4xx_HAL_Driver/Src/stm32f4xx_hal.c ****   * @brief This function configures the source of the time base.
 239:Drivers/STM32F4xx_HAL_Driver/Src/stm32f4xx_hal.c ****   *        The time source is configured  to have 1ms time base with a dedicated 
 240:Drivers/STM32F4xx_HAL_Driver/Src/stm32f4xx_hal.c ****   *        Tick interrupt priority.
 241:Drivers/STM32F4xx_HAL_Driver/Src/stm32f4xx_hal.c ****   * @note This function is called  automatically at the beginning of program after
 242:Drivers/STM32F4xx_HAL_Driver/Src/stm32f4xx_hal.c ****   *       reset by HAL_Init() or at any time when clock is reconfigured  by HAL_RCC_ClockConfig().
 243:Drivers/STM32F4xx_HAL_Driver/Src/stm32f4xx_hal.c ****   * @note In the default implementation, SysTick timer is the source of time base. 
 244:Drivers/STM32F4xx_HAL_Driver/Src/stm32f4xx_hal.c ****   *       It is used to generate interrupts at regular time intervals. 
 245:Drivers/STM32F4xx_HAL_Driver/Src/stm32f4xx_hal.c ****   *       Care must be taken if HAL_Delay() is called from a peripheral ISR process, 
 246:Drivers/STM32F4xx_HAL_Driver/Src/stm32f4xx_hal.c ****   *       The SysTick interrupt must have higher priority (numerically lower)
 247:Drivers/STM32F4xx_HAL_Driver/Src/stm32f4xx_hal.c ****   *       than the peripheral interrupt. Otherwise the caller ISR process will be blocked.
 248:Drivers/STM32F4xx_HAL_Driver/Src/stm32f4xx_hal.c ****   *       The function is declared as __weak  to be overwritten  in case of other
 249:Drivers/STM32F4xx_HAL_Driver/Src/stm32f4xx_hal.c ****   *       implementation  in user file.
 250:Drivers/STM32F4xx_HAL_Driver/Src/stm32f4xx_hal.c ****   * @param TickPriority Tick interrupt priority.
 251:Drivers/STM32F4xx_HAL_Driver/Src/stm32f4xx_hal.c ****   * @retval HAL status
 252:Drivers/STM32F4xx_HAL_Driver/Src/stm32f4xx_hal.c ****   */
 253:Drivers/STM32F4xx_HAL_Driver/Src/stm32f4xx_hal.c **** __weak HAL_StatusTypeDef HAL_InitTick(uint32_t TickPriority)
 254:Drivers/STM32F4xx_HAL_Driver/Src/stm32f4xx_hal.c **** {
 123              		.loc 1 254 1 is_stmt 1 view -0
 124              		.cfi_startproc
 125              		@ args = 0, pretend = 0, frame = 0
 126              		@ frame_needed = 0, uses_anonymous_args = 0
 127              		.loc 1 254 1 is_stmt 0 view .LVU19
 128 0000 10B5     		push	{r4, lr}
 129              	.LCFI1:
 130              		.cfi_def_cfa_offset 8
 131              		.cfi_offset 4, -8
 132              		.cfi_offset 14, -4
 133 0002 0446     		mov	r4, r0
 255:Drivers/STM32F4xx_HAL_Driver/Src/stm32f4xx_hal.c ****   /* Configure the SysTick to have interrupt in 1ms time basis*/
 256:Drivers/STM32F4xx_HAL_Driver/Src/stm32f4xx_hal.c ****   if (HAL_SYSTICK_Config(SystemCoreClock / (1000U / uwTickFreq)) > 0U)
 134              		.loc 1 256 3 is_stmt 1 view .LVU20
 135              		.loc 1 256 51 is_stmt 0 view .LVU21
 136 0004 0E4B     		ldr	r3, .L13
ARM GAS  C:\Users\7636~1\AppData\Local\Temp\cce1iPIx.s 			page 8


 137 0006 1878     		ldrb	r0, [r3]	@ zero_extendqisi2
 138              	.LVL2:
 139              		.loc 1 256 51 view .LVU22
 140 0008 4FF47A73 		mov	r3, #1000
 141 000c B3FBF0F3 		udiv	r3, r3, r0
 142              		.loc 1 256 7 view .LVU23
 143 0010 0C4A     		ldr	r2, .L13+4
 144 0012 1068     		ldr	r0, [r2]
 145 0014 B0FBF3F0 		udiv	r0, r0, r3
 146 0018 FFF7FEFF 		bl	HAL_SYSTICK_Config
 147              	.LVL3:
 148              		.loc 1 256 6 view .LVU24
 149 001c 68B9     		cbnz	r0, .L9
 257:Drivers/STM32F4xx_HAL_Driver/Src/stm32f4xx_hal.c ****   {
 258:Drivers/STM32F4xx_HAL_Driver/Src/stm32f4xx_hal.c ****     return HAL_ERROR;
 259:Drivers/STM32F4xx_HAL_Driver/Src/stm32f4xx_hal.c ****   }
 260:Drivers/STM32F4xx_HAL_Driver/Src/stm32f4xx_hal.c **** 
 261:Drivers/STM32F4xx_HAL_Driver/Src/stm32f4xx_hal.c ****   /* Configure the SysTick IRQ priority */
 262:Drivers/STM32F4xx_HAL_Driver/Src/stm32f4xx_hal.c ****   if (TickPriority < (1UL << __NVIC_PRIO_BITS))
 150              		.loc 1 262 3 is_stmt 1 view .LVU25
 151              		.loc 1 262 6 is_stmt 0 view .LVU26
 152 001e 0F2C     		cmp	r4, #15
 153 0020 01D9     		bls	.L12
 263:Drivers/STM32F4xx_HAL_Driver/Src/stm32f4xx_hal.c ****   {
 264:Drivers/STM32F4xx_HAL_Driver/Src/stm32f4xx_hal.c ****     HAL_NVIC_SetPriority(SysTick_IRQn, TickPriority, 0U);
 265:Drivers/STM32F4xx_HAL_Driver/Src/stm32f4xx_hal.c ****     uwTickPrio = TickPriority;
 266:Drivers/STM32F4xx_HAL_Driver/Src/stm32f4xx_hal.c ****   }
 267:Drivers/STM32F4xx_HAL_Driver/Src/stm32f4xx_hal.c ****   else
 268:Drivers/STM32F4xx_HAL_Driver/Src/stm32f4xx_hal.c ****   {
 269:Drivers/STM32F4xx_HAL_Driver/Src/stm32f4xx_hal.c ****     return HAL_ERROR;
 154              		.loc 1 269 12 view .LVU27
 155 0022 0120     		movs	r0, #1
 156 0024 0AE0     		b	.L8
 157              	.L12:
 264:Drivers/STM32F4xx_HAL_Driver/Src/stm32f4xx_hal.c ****     uwTickPrio = TickPriority;
 158              		.loc 1 264 5 is_stmt 1 view .LVU28
 159 0026 0022     		movs	r2, #0
 160 0028 2146     		mov	r1, r4
 161 002a 4FF0FF30 		mov	r0, #-1
 162 002e FFF7FEFF 		bl	HAL_NVIC_SetPriority
 163              	.LVL4:
 265:Drivers/STM32F4xx_HAL_Driver/Src/stm32f4xx_hal.c ****   }
 164              		.loc 1 265 5 view .LVU29
 265:Drivers/STM32F4xx_HAL_Driver/Src/stm32f4xx_hal.c ****   }
 165              		.loc 1 265 16 is_stmt 0 view .LVU30
 166 0032 054B     		ldr	r3, .L13+8
 167 0034 1C60     		str	r4, [r3]
 270:Drivers/STM32F4xx_HAL_Driver/Src/stm32f4xx_hal.c ****   }
 271:Drivers/STM32F4xx_HAL_Driver/Src/stm32f4xx_hal.c **** 
 272:Drivers/STM32F4xx_HAL_Driver/Src/stm32f4xx_hal.c ****   /* Return function status */
 273:Drivers/STM32F4xx_HAL_Driver/Src/stm32f4xx_hal.c ****   return HAL_OK;
 168              		.loc 1 273 3 is_stmt 1 view .LVU31
 169              		.loc 1 273 10 is_stmt 0 view .LVU32
 170 0036 0020     		movs	r0, #0
 171 0038 00E0     		b	.L8
 172              	.L9:
 258:Drivers/STM32F4xx_HAL_Driver/Src/stm32f4xx_hal.c ****   }
ARM GAS  C:\Users\7636~1\AppData\Local\Temp\cce1iPIx.s 			page 9


 173              		.loc 1 258 12 view .LVU33
 174 003a 0120     		movs	r0, #1
 175              	.L8:
 274:Drivers/STM32F4xx_HAL_Driver/Src/stm32f4xx_hal.c **** }
 176              		.loc 1 274 1 view .LVU34
 177 003c 10BD     		pop	{r4, pc}
 178              	.LVL5:
 179              	.L14:
 180              		.loc 1 274 1 view .LVU35
 181 003e 00BF     		.align	2
 182              	.L13:
 183 0040 00000000 		.word	.LANCHOR0
 184 0044 00000000 		.word	SystemCoreClock
 185 0048 00000000 		.word	.LANCHOR1
 186              		.cfi_endproc
 187              	.LFE220:
 189              		.section	.text.HAL_Init,"ax",%progbits
 190              		.align	1
 191              		.global	HAL_Init
 192              		.syntax unified
 193              		.thumb
 194              		.thumb_func
 196              	HAL_Init:
 197              	.LFB216:
 158:Drivers/STM32F4xx_HAL_Driver/Src/stm32f4xx_hal.c ****   /* Configure Flash prefetch, Instruction cache, Data cache */ 
 198              		.loc 1 158 1 is_stmt 1 view -0
 199              		.cfi_startproc
 200              		@ args = 0, pretend = 0, frame = 0
 201              		@ frame_needed = 0, uses_anonymous_args = 0
 202 0000 08B5     		push	{r3, lr}
 203              	.LCFI2:
 204              		.cfi_def_cfa_offset 8
 205              		.cfi_offset 3, -8
 206              		.cfi_offset 14, -4
 161:Drivers/STM32F4xx_HAL_Driver/Src/stm32f4xx_hal.c **** #endif /* INSTRUCTION_CACHE_ENABLE */
 207              		.loc 1 161 3 view .LVU37
 208 0002 0B4B     		ldr	r3, .L17
 209 0004 1A68     		ldr	r2, [r3]
 210 0006 42F40072 		orr	r2, r2, #512
 211 000a 1A60     		str	r2, [r3]
 165:Drivers/STM32F4xx_HAL_Driver/Src/stm32f4xx_hal.c **** #endif /* DATA_CACHE_ENABLE */
 212              		.loc 1 165 3 view .LVU38
 213 000c 1A68     		ldr	r2, [r3]
 214 000e 42F48062 		orr	r2, r2, #1024
 215 0012 1A60     		str	r2, [r3]
 169:Drivers/STM32F4xx_HAL_Driver/Src/stm32f4xx_hal.c **** #endif /* PREFETCH_ENABLE */
 216              		.loc 1 169 3 view .LVU39
 217 0014 1A68     		ldr	r2, [r3]
 218 0016 42F48072 		orr	r2, r2, #256
 219 001a 1A60     		str	r2, [r3]
 173:Drivers/STM32F4xx_HAL_Driver/Src/stm32f4xx_hal.c **** 
 220              		.loc 1 173 3 view .LVU40
 221 001c 0320     		movs	r0, #3
 222 001e FFF7FEFF 		bl	HAL_NVIC_SetPriorityGrouping
 223              	.LVL6:
 176:Drivers/STM32F4xx_HAL_Driver/Src/stm32f4xx_hal.c **** 
 224              		.loc 1 176 3 view .LVU41
ARM GAS  C:\Users\7636~1\AppData\Local\Temp\cce1iPIx.s 			page 10


 225 0022 0020     		movs	r0, #0
 226 0024 FFF7FEFF 		bl	HAL_InitTick
 227              	.LVL7:
 179:Drivers/STM32F4xx_HAL_Driver/Src/stm32f4xx_hal.c **** 
 228              		.loc 1 179 3 view .LVU42
 229 0028 FFF7FEFF 		bl	HAL_MspInit
 230              	.LVL8:
 182:Drivers/STM32F4xx_HAL_Driver/Src/stm32f4xx_hal.c **** }
 231              		.loc 1 182 3 view .LVU43
 183:Drivers/STM32F4xx_HAL_Driver/Src/stm32f4xx_hal.c **** 
 232              		.loc 1 183 1 is_stmt 0 view .LVU44
 233 002c 0020     		movs	r0, #0
 234 002e 08BD     		pop	{r3, pc}
 235              	.L18:
 236              		.align	2
 237              	.L17:
 238 0030 003C0240 		.word	1073888256
 239              		.cfi_endproc
 240              	.LFE216:
 242              		.section	.text.HAL_IncTick,"ax",%progbits
 243              		.align	1
 244              		.weak	HAL_IncTick
 245              		.syntax unified
 246              		.thumb
 247              		.thumb_func
 249              	HAL_IncTick:
 250              	.LFB221:
 275:Drivers/STM32F4xx_HAL_Driver/Src/stm32f4xx_hal.c **** 
 276:Drivers/STM32F4xx_HAL_Driver/Src/stm32f4xx_hal.c **** /**
 277:Drivers/STM32F4xx_HAL_Driver/Src/stm32f4xx_hal.c ****   * @}
 278:Drivers/STM32F4xx_HAL_Driver/Src/stm32f4xx_hal.c ****   */
 279:Drivers/STM32F4xx_HAL_Driver/Src/stm32f4xx_hal.c **** 
 280:Drivers/STM32F4xx_HAL_Driver/Src/stm32f4xx_hal.c **** /** @defgroup HAL_Exported_Functions_Group2 HAL Control functions 
 281:Drivers/STM32F4xx_HAL_Driver/Src/stm32f4xx_hal.c ****  *  @brief    HAL Control functions
 282:Drivers/STM32F4xx_HAL_Driver/Src/stm32f4xx_hal.c ****  *
 283:Drivers/STM32F4xx_HAL_Driver/Src/stm32f4xx_hal.c **** @verbatim
 284:Drivers/STM32F4xx_HAL_Driver/Src/stm32f4xx_hal.c ****  ===============================================================================
 285:Drivers/STM32F4xx_HAL_Driver/Src/stm32f4xx_hal.c ****                       ##### HAL Control functions #####
 286:Drivers/STM32F4xx_HAL_Driver/Src/stm32f4xx_hal.c ****  ===============================================================================
 287:Drivers/STM32F4xx_HAL_Driver/Src/stm32f4xx_hal.c ****     [..]  This section provides functions allowing to:
 288:Drivers/STM32F4xx_HAL_Driver/Src/stm32f4xx_hal.c ****       (+) Provide a tick value in millisecond
 289:Drivers/STM32F4xx_HAL_Driver/Src/stm32f4xx_hal.c ****       (+) Provide a blocking delay in millisecond
 290:Drivers/STM32F4xx_HAL_Driver/Src/stm32f4xx_hal.c ****       (+) Suspend the time base source interrupt
 291:Drivers/STM32F4xx_HAL_Driver/Src/stm32f4xx_hal.c ****       (+) Resume the time base source interrupt
 292:Drivers/STM32F4xx_HAL_Driver/Src/stm32f4xx_hal.c ****       (+) Get the HAL API driver version
 293:Drivers/STM32F4xx_HAL_Driver/Src/stm32f4xx_hal.c ****       (+) Get the device identifier
 294:Drivers/STM32F4xx_HAL_Driver/Src/stm32f4xx_hal.c ****       (+) Get the device revision identifier
 295:Drivers/STM32F4xx_HAL_Driver/Src/stm32f4xx_hal.c ****       (+) Enable/Disable Debug module during SLEEP mode
 296:Drivers/STM32F4xx_HAL_Driver/Src/stm32f4xx_hal.c ****       (+) Enable/Disable Debug module during STOP mode
 297:Drivers/STM32F4xx_HAL_Driver/Src/stm32f4xx_hal.c ****       (+) Enable/Disable Debug module during STANDBY mode
 298:Drivers/STM32F4xx_HAL_Driver/Src/stm32f4xx_hal.c **** 
 299:Drivers/STM32F4xx_HAL_Driver/Src/stm32f4xx_hal.c **** @endverbatim
 300:Drivers/STM32F4xx_HAL_Driver/Src/stm32f4xx_hal.c ****   * @{
 301:Drivers/STM32F4xx_HAL_Driver/Src/stm32f4xx_hal.c ****   */
 302:Drivers/STM32F4xx_HAL_Driver/Src/stm32f4xx_hal.c **** 
 303:Drivers/STM32F4xx_HAL_Driver/Src/stm32f4xx_hal.c **** /**
 304:Drivers/STM32F4xx_HAL_Driver/Src/stm32f4xx_hal.c ****   * @brief This function is called to increment  a global variable "uwTick"
ARM GAS  C:\Users\7636~1\AppData\Local\Temp\cce1iPIx.s 			page 11


 305:Drivers/STM32F4xx_HAL_Driver/Src/stm32f4xx_hal.c ****   *        used as application time base.
 306:Drivers/STM32F4xx_HAL_Driver/Src/stm32f4xx_hal.c ****   * @note In the default implementation, this variable is incremented each 1ms
 307:Drivers/STM32F4xx_HAL_Driver/Src/stm32f4xx_hal.c ****   *       in SysTick ISR.
 308:Drivers/STM32F4xx_HAL_Driver/Src/stm32f4xx_hal.c ****  * @note This function is declared as __weak to be overwritten in case of other 
 309:Drivers/STM32F4xx_HAL_Driver/Src/stm32f4xx_hal.c ****   *      implementations in user file.
 310:Drivers/STM32F4xx_HAL_Driver/Src/stm32f4xx_hal.c ****   * @retval None
 311:Drivers/STM32F4xx_HAL_Driver/Src/stm32f4xx_hal.c ****   */
 312:Drivers/STM32F4xx_HAL_Driver/Src/stm32f4xx_hal.c **** __weak void HAL_IncTick(void)
 313:Drivers/STM32F4xx_HAL_Driver/Src/stm32f4xx_hal.c **** {
 251              		.loc 1 313 1 is_stmt 1 view -0
 252              		.cfi_startproc
 253              		@ args = 0, pretend = 0, frame = 0
 254              		@ frame_needed = 0, uses_anonymous_args = 0
 255              		@ link register save eliminated.
 314:Drivers/STM32F4xx_HAL_Driver/Src/stm32f4xx_hal.c ****   uwTick += uwTickFreq;
 256              		.loc 1 314 3 view .LVU46
 257              		.loc 1 314 10 is_stmt 0 view .LVU47
 258 0000 034A     		ldr	r2, .L20
 259 0002 1168     		ldr	r1, [r2]
 260 0004 034B     		ldr	r3, .L20+4
 261 0006 1B78     		ldrb	r3, [r3]	@ zero_extendqisi2
 262 0008 0B44     		add	r3, r3, r1
 263 000a 1360     		str	r3, [r2]
 315:Drivers/STM32F4xx_HAL_Driver/Src/stm32f4xx_hal.c **** }
 264              		.loc 1 315 1 view .LVU48
 265 000c 7047     		bx	lr
 266              	.L21:
 267 000e 00BF     		.align	2
 268              	.L20:
 269 0010 00000000 		.word	.LANCHOR2
 270 0014 00000000 		.word	.LANCHOR0
 271              		.cfi_endproc
 272              	.LFE221:
 274              		.section	.text.HAL_GetTick,"ax",%progbits
 275              		.align	1
 276              		.weak	HAL_GetTick
 277              		.syntax unified
 278              		.thumb
 279              		.thumb_func
 281              	HAL_GetTick:
 282              	.LFB222:
 316:Drivers/STM32F4xx_HAL_Driver/Src/stm32f4xx_hal.c **** 
 317:Drivers/STM32F4xx_HAL_Driver/Src/stm32f4xx_hal.c **** /**
 318:Drivers/STM32F4xx_HAL_Driver/Src/stm32f4xx_hal.c ****   * @brief Provides a tick value in millisecond.
 319:Drivers/STM32F4xx_HAL_Driver/Src/stm32f4xx_hal.c ****   * @note This function is declared as __weak to be overwritten in case of other 
 320:Drivers/STM32F4xx_HAL_Driver/Src/stm32f4xx_hal.c ****   *       implementations in user file.
 321:Drivers/STM32F4xx_HAL_Driver/Src/stm32f4xx_hal.c ****   * @retval tick value
 322:Drivers/STM32F4xx_HAL_Driver/Src/stm32f4xx_hal.c ****   */
 323:Drivers/STM32F4xx_HAL_Driver/Src/stm32f4xx_hal.c **** __weak uint32_t HAL_GetTick(void)
 324:Drivers/STM32F4xx_HAL_Driver/Src/stm32f4xx_hal.c **** {
 283              		.loc 1 324 1 is_stmt 1 view -0
 284              		.cfi_startproc
 285              		@ args = 0, pretend = 0, frame = 0
 286              		@ frame_needed = 0, uses_anonymous_args = 0
 287              		@ link register save eliminated.
 325:Drivers/STM32F4xx_HAL_Driver/Src/stm32f4xx_hal.c ****   return uwTick;
 288              		.loc 1 325 3 view .LVU50
ARM GAS  C:\Users\7636~1\AppData\Local\Temp\cce1iPIx.s 			page 12


 289              		.loc 1 325 10 is_stmt 0 view .LVU51
 290 0000 014B     		ldr	r3, .L23
 291 0002 1868     		ldr	r0, [r3]
 326:Drivers/STM32F4xx_HAL_Driver/Src/stm32f4xx_hal.c **** }
 292              		.loc 1 326 1 view .LVU52
 293 0004 7047     		bx	lr
 294              	.L24:
 295 0006 00BF     		.align	2
 296              	.L23:
 297 0008 00000000 		.word	.LANCHOR2
 298              		.cfi_endproc
 299              	.LFE222:
 301              		.section	.text.HAL_GetTickPrio,"ax",%progbits
 302              		.align	1
 303              		.global	HAL_GetTickPrio
 304              		.syntax unified
 305              		.thumb
 306              		.thumb_func
 308              	HAL_GetTickPrio:
 309              	.LFB223:
 327:Drivers/STM32F4xx_HAL_Driver/Src/stm32f4xx_hal.c **** 
 328:Drivers/STM32F4xx_HAL_Driver/Src/stm32f4xx_hal.c **** /**
 329:Drivers/STM32F4xx_HAL_Driver/Src/stm32f4xx_hal.c ****   * @brief This function returns a tick priority.
 330:Drivers/STM32F4xx_HAL_Driver/Src/stm32f4xx_hal.c ****   * @retval tick priority
 331:Drivers/STM32F4xx_HAL_Driver/Src/stm32f4xx_hal.c ****   */
 332:Drivers/STM32F4xx_HAL_Driver/Src/stm32f4xx_hal.c **** uint32_t HAL_GetTickPrio(void)
 333:Drivers/STM32F4xx_HAL_Driver/Src/stm32f4xx_hal.c **** {
 310              		.loc 1 333 1 is_stmt 1 view -0
 311              		.cfi_startproc
 312              		@ args = 0, pretend = 0, frame = 0
 313              		@ frame_needed = 0, uses_anonymous_args = 0
 314              		@ link register save eliminated.
 334:Drivers/STM32F4xx_HAL_Driver/Src/stm32f4xx_hal.c ****   return uwTickPrio;
 315              		.loc 1 334 3 view .LVU54
 335:Drivers/STM32F4xx_HAL_Driver/Src/stm32f4xx_hal.c **** }
 316              		.loc 1 335 1 is_stmt 0 view .LVU55
 317 0000 014B     		ldr	r3, .L26
 318 0002 1868     		ldr	r0, [r3]
 319 0004 7047     		bx	lr
 320              	.L27:
 321 0006 00BF     		.align	2
 322              	.L26:
 323 0008 00000000 		.word	.LANCHOR1
 324              		.cfi_endproc
 325              	.LFE223:
 327              		.section	.text.HAL_SetTickFreq,"ax",%progbits
 328              		.align	1
 329              		.global	HAL_SetTickFreq
 330              		.syntax unified
 331              		.thumb
 332              		.thumb_func
 334              	HAL_SetTickFreq:
 335              	.LVL9:
 336              	.LFB224:
 336:Drivers/STM32F4xx_HAL_Driver/Src/stm32f4xx_hal.c **** 
 337:Drivers/STM32F4xx_HAL_Driver/Src/stm32f4xx_hal.c **** /**
 338:Drivers/STM32F4xx_HAL_Driver/Src/stm32f4xx_hal.c ****   * @brief Set new tick Freq.
ARM GAS  C:\Users\7636~1\AppData\Local\Temp\cce1iPIx.s 			page 13


 339:Drivers/STM32F4xx_HAL_Driver/Src/stm32f4xx_hal.c ****   * @retval Status
 340:Drivers/STM32F4xx_HAL_Driver/Src/stm32f4xx_hal.c ****   */
 341:Drivers/STM32F4xx_HAL_Driver/Src/stm32f4xx_hal.c **** HAL_StatusTypeDef HAL_SetTickFreq(HAL_TickFreqTypeDef Freq)
 342:Drivers/STM32F4xx_HAL_Driver/Src/stm32f4xx_hal.c **** {
 337              		.loc 1 342 1 is_stmt 1 view -0
 338              		.cfi_startproc
 339              		@ args = 0, pretend = 0, frame = 0
 340              		@ frame_needed = 0, uses_anonymous_args = 0
 341              		.loc 1 342 1 is_stmt 0 view .LVU57
 342 0000 10B5     		push	{r4, lr}
 343              	.LCFI3:
 344              		.cfi_def_cfa_offset 8
 345              		.cfi_offset 4, -8
 346              		.cfi_offset 14, -4
 343:Drivers/STM32F4xx_HAL_Driver/Src/stm32f4xx_hal.c ****   HAL_StatusTypeDef status  = HAL_OK;
 347              		.loc 1 343 3 is_stmt 1 view .LVU58
 348              	.LVL10:
 344:Drivers/STM32F4xx_HAL_Driver/Src/stm32f4xx_hal.c ****   HAL_TickFreqTypeDef prevTickFreq;
 349              		.loc 1 344 3 view .LVU59
 345:Drivers/STM32F4xx_HAL_Driver/Src/stm32f4xx_hal.c **** 
 346:Drivers/STM32F4xx_HAL_Driver/Src/stm32f4xx_hal.c ****   assert_param(IS_TICKFREQ(Freq));
 350              		.loc 1 346 3 view .LVU60
 347:Drivers/STM32F4xx_HAL_Driver/Src/stm32f4xx_hal.c **** 
 348:Drivers/STM32F4xx_HAL_Driver/Src/stm32f4xx_hal.c ****   if (uwTickFreq != Freq)
 351              		.loc 1 348 3 view .LVU61
 352              		.loc 1 348 18 is_stmt 0 view .LVU62
 353 0002 084B     		ldr	r3, .L33
 354 0004 1C78     		ldrb	r4, [r3]	@ zero_extendqisi2
 355              		.loc 1 348 6 view .LVU63
 356 0006 8442     		cmp	r4, r0
 357 0008 01D1     		bne	.L32
 343:Drivers/STM32F4xx_HAL_Driver/Src/stm32f4xx_hal.c ****   HAL_TickFreqTypeDef prevTickFreq;
 358              		.loc 1 343 21 view .LVU64
 359 000a 0020     		movs	r0, #0
 360              	.LVL11:
 361              	.L29:
 349:Drivers/STM32F4xx_HAL_Driver/Src/stm32f4xx_hal.c ****   {
 350:Drivers/STM32F4xx_HAL_Driver/Src/stm32f4xx_hal.c ****     /* Back up uwTickFreq frequency */
 351:Drivers/STM32F4xx_HAL_Driver/Src/stm32f4xx_hal.c ****     prevTickFreq = uwTickFreq;
 352:Drivers/STM32F4xx_HAL_Driver/Src/stm32f4xx_hal.c **** 
 353:Drivers/STM32F4xx_HAL_Driver/Src/stm32f4xx_hal.c ****     /* Update uwTickFreq global variable used by HAL_InitTick() */
 354:Drivers/STM32F4xx_HAL_Driver/Src/stm32f4xx_hal.c ****     uwTickFreq = Freq;
 355:Drivers/STM32F4xx_HAL_Driver/Src/stm32f4xx_hal.c **** 
 356:Drivers/STM32F4xx_HAL_Driver/Src/stm32f4xx_hal.c ****     /* Apply the new tick Freq  */
 357:Drivers/STM32F4xx_HAL_Driver/Src/stm32f4xx_hal.c ****     status = HAL_InitTick(uwTickPrio);
 358:Drivers/STM32F4xx_HAL_Driver/Src/stm32f4xx_hal.c **** 
 359:Drivers/STM32F4xx_HAL_Driver/Src/stm32f4xx_hal.c ****     if (status != HAL_OK)
 360:Drivers/STM32F4xx_HAL_Driver/Src/stm32f4xx_hal.c ****     {
 361:Drivers/STM32F4xx_HAL_Driver/Src/stm32f4xx_hal.c ****       /* Restore previous tick frequency */
 362:Drivers/STM32F4xx_HAL_Driver/Src/stm32f4xx_hal.c ****       uwTickFreq = prevTickFreq;
 363:Drivers/STM32F4xx_HAL_Driver/Src/stm32f4xx_hal.c ****     }
 364:Drivers/STM32F4xx_HAL_Driver/Src/stm32f4xx_hal.c ****   }
 365:Drivers/STM32F4xx_HAL_Driver/Src/stm32f4xx_hal.c **** 
 366:Drivers/STM32F4xx_HAL_Driver/Src/stm32f4xx_hal.c ****   return status;
 362              		.loc 1 366 3 is_stmt 1 view .LVU65
 367:Drivers/STM32F4xx_HAL_Driver/Src/stm32f4xx_hal.c **** }
 363              		.loc 1 367 1 is_stmt 0 view .LVU66
ARM GAS  C:\Users\7636~1\AppData\Local\Temp\cce1iPIx.s 			page 14


 364 000c 10BD     		pop	{r4, pc}
 365              	.LVL12:
 366              	.L32:
 351:Drivers/STM32F4xx_HAL_Driver/Src/stm32f4xx_hal.c **** 
 367              		.loc 1 351 5 is_stmt 1 view .LVU67
 354:Drivers/STM32F4xx_HAL_Driver/Src/stm32f4xx_hal.c **** 
 368              		.loc 1 354 5 view .LVU68
 354:Drivers/STM32F4xx_HAL_Driver/Src/stm32f4xx_hal.c **** 
 369              		.loc 1 354 16 is_stmt 0 view .LVU69
 370 000e 1870     		strb	r0, [r3]
 357:Drivers/STM32F4xx_HAL_Driver/Src/stm32f4xx_hal.c **** 
 371              		.loc 1 357 5 is_stmt 1 view .LVU70
 357:Drivers/STM32F4xx_HAL_Driver/Src/stm32f4xx_hal.c **** 
 372              		.loc 1 357 14 is_stmt 0 view .LVU71
 373 0010 054B     		ldr	r3, .L33+4
 374 0012 1868     		ldr	r0, [r3]
 375              	.LVL13:
 357:Drivers/STM32F4xx_HAL_Driver/Src/stm32f4xx_hal.c **** 
 376              		.loc 1 357 14 view .LVU72
 377 0014 FFF7FEFF 		bl	HAL_InitTick
 378              	.LVL14:
 359:Drivers/STM32F4xx_HAL_Driver/Src/stm32f4xx_hal.c ****     {
 379              		.loc 1 359 5 is_stmt 1 view .LVU73
 359:Drivers/STM32F4xx_HAL_Driver/Src/stm32f4xx_hal.c ****     {
 380              		.loc 1 359 8 is_stmt 0 view .LVU74
 381 0018 0028     		cmp	r0, #0
 382 001a F7D0     		beq	.L29
 362:Drivers/STM32F4xx_HAL_Driver/Src/stm32f4xx_hal.c ****     }
 383              		.loc 1 362 7 is_stmt 1 view .LVU75
 362:Drivers/STM32F4xx_HAL_Driver/Src/stm32f4xx_hal.c ****     }
 384              		.loc 1 362 18 is_stmt 0 view .LVU76
 385 001c 014B     		ldr	r3, .L33
 386 001e 1C70     		strb	r4, [r3]
 387 0020 F4E7     		b	.L29
 388              	.L34:
 389 0022 00BF     		.align	2
 390              	.L33:
 391 0024 00000000 		.word	.LANCHOR0
 392 0028 00000000 		.word	.LANCHOR1
 393              		.cfi_endproc
 394              	.LFE224:
 396              		.section	.text.HAL_GetTickFreq,"ax",%progbits
 397              		.align	1
 398              		.global	HAL_GetTickFreq
 399              		.syntax unified
 400              		.thumb
 401              		.thumb_func
 403              	HAL_GetTickFreq:
 404              	.LFB225:
 368:Drivers/STM32F4xx_HAL_Driver/Src/stm32f4xx_hal.c **** 
 369:Drivers/STM32F4xx_HAL_Driver/Src/stm32f4xx_hal.c **** /**
 370:Drivers/STM32F4xx_HAL_Driver/Src/stm32f4xx_hal.c ****   * @brief Return tick frequency.
 371:Drivers/STM32F4xx_HAL_Driver/Src/stm32f4xx_hal.c ****   * @retval tick period in Hz
 372:Drivers/STM32F4xx_HAL_Driver/Src/stm32f4xx_hal.c ****   */
 373:Drivers/STM32F4xx_HAL_Driver/Src/stm32f4xx_hal.c **** HAL_TickFreqTypeDef HAL_GetTickFreq(void)
 374:Drivers/STM32F4xx_HAL_Driver/Src/stm32f4xx_hal.c **** {
 405              		.loc 1 374 1 is_stmt 1 view -0
ARM GAS  C:\Users\7636~1\AppData\Local\Temp\cce1iPIx.s 			page 15


 406              		.cfi_startproc
 407              		@ args = 0, pretend = 0, frame = 0
 408              		@ frame_needed = 0, uses_anonymous_args = 0
 409              		@ link register save eliminated.
 375:Drivers/STM32F4xx_HAL_Driver/Src/stm32f4xx_hal.c ****   return uwTickFreq;
 410              		.loc 1 375 3 view .LVU78
 376:Drivers/STM32F4xx_HAL_Driver/Src/stm32f4xx_hal.c **** }
 411              		.loc 1 376 1 is_stmt 0 view .LVU79
 412 0000 014B     		ldr	r3, .L36
 413 0002 1878     		ldrb	r0, [r3]	@ zero_extendqisi2
 414 0004 7047     		bx	lr
 415              	.L37:
 416 0006 00BF     		.align	2
 417              	.L36:
 418 0008 00000000 		.word	.LANCHOR0
 419              		.cfi_endproc
 420              	.LFE225:
 422              		.section	.text.HAL_Delay,"ax",%progbits
 423              		.align	1
 424              		.weak	HAL_Delay
 425              		.syntax unified
 426              		.thumb
 427              		.thumb_func
 429              	HAL_Delay:
 430              	.LVL15:
 431              	.LFB226:
 377:Drivers/STM32F4xx_HAL_Driver/Src/stm32f4xx_hal.c **** 
 378:Drivers/STM32F4xx_HAL_Driver/Src/stm32f4xx_hal.c **** /**
 379:Drivers/STM32F4xx_HAL_Driver/Src/stm32f4xx_hal.c ****   * @brief This function provides minimum delay (in milliseconds) based 
 380:Drivers/STM32F4xx_HAL_Driver/Src/stm32f4xx_hal.c ****   *        on variable incremented.
 381:Drivers/STM32F4xx_HAL_Driver/Src/stm32f4xx_hal.c ****   * @note In the default implementation , SysTick timer is the source of time base.
 382:Drivers/STM32F4xx_HAL_Driver/Src/stm32f4xx_hal.c ****   *       It is used to generate interrupts at regular time intervals where uwTick
 383:Drivers/STM32F4xx_HAL_Driver/Src/stm32f4xx_hal.c ****   *       is incremented.
 384:Drivers/STM32F4xx_HAL_Driver/Src/stm32f4xx_hal.c ****   * @note This function is declared as __weak to be overwritten in case of other
 385:Drivers/STM32F4xx_HAL_Driver/Src/stm32f4xx_hal.c ****   *       implementations in user file.
 386:Drivers/STM32F4xx_HAL_Driver/Src/stm32f4xx_hal.c ****   * @param Delay specifies the delay time length, in milliseconds.
 387:Drivers/STM32F4xx_HAL_Driver/Src/stm32f4xx_hal.c ****   * @retval None
 388:Drivers/STM32F4xx_HAL_Driver/Src/stm32f4xx_hal.c ****   */
 389:Drivers/STM32F4xx_HAL_Driver/Src/stm32f4xx_hal.c **** __weak void HAL_Delay(uint32_t Delay)
 390:Drivers/STM32F4xx_HAL_Driver/Src/stm32f4xx_hal.c **** {
 432              		.loc 1 390 1 is_stmt 1 view -0
 433              		.cfi_startproc
 434              		@ args = 0, pretend = 0, frame = 0
 435              		@ frame_needed = 0, uses_anonymous_args = 0
 436              		.loc 1 390 1 is_stmt 0 view .LVU81
 437 0000 38B5     		push	{r3, r4, r5, lr}
 438              	.LCFI4:
 439              		.cfi_def_cfa_offset 16
 440              		.cfi_offset 3, -16
 441              		.cfi_offset 4, -12
 442              		.cfi_offset 5, -8
 443              		.cfi_offset 14, -4
 444 0002 0446     		mov	r4, r0
 391:Drivers/STM32F4xx_HAL_Driver/Src/stm32f4xx_hal.c ****   uint32_t tickstart = HAL_GetTick();
 445              		.loc 1 391 3 is_stmt 1 view .LVU82
 446              		.loc 1 391 24 is_stmt 0 view .LVU83
 447 0004 FFF7FEFF 		bl	HAL_GetTick
ARM GAS  C:\Users\7636~1\AppData\Local\Temp\cce1iPIx.s 			page 16


 448              	.LVL16:
 449              		.loc 1 391 24 view .LVU84
 450 0008 0546     		mov	r5, r0
 451              	.LVL17:
 392:Drivers/STM32F4xx_HAL_Driver/Src/stm32f4xx_hal.c ****   uint32_t wait = Delay;
 452              		.loc 1 392 3 is_stmt 1 view .LVU85
 393:Drivers/STM32F4xx_HAL_Driver/Src/stm32f4xx_hal.c **** 
 394:Drivers/STM32F4xx_HAL_Driver/Src/stm32f4xx_hal.c ****   /* Add a freq to guarantee minimum wait */
 395:Drivers/STM32F4xx_HAL_Driver/Src/stm32f4xx_hal.c ****   if (wait < HAL_MAX_DELAY)
 453              		.loc 1 395 3 view .LVU86
 454              		.loc 1 395 6 is_stmt 0 view .LVU87
 455 000a B4F1FF3F 		cmp	r4, #-1
 456 000e 02D0     		beq	.L40
 396:Drivers/STM32F4xx_HAL_Driver/Src/stm32f4xx_hal.c ****   {
 397:Drivers/STM32F4xx_HAL_Driver/Src/stm32f4xx_hal.c ****     wait += (uint32_t)(uwTickFreq);
 457              		.loc 1 397 5 is_stmt 1 view .LVU88
 458              		.loc 1 397 13 is_stmt 0 view .LVU89
 459 0010 044B     		ldr	r3, .L42
 460 0012 1B78     		ldrb	r3, [r3]	@ zero_extendqisi2
 461              		.loc 1 397 10 view .LVU90
 462 0014 1C44     		add	r4, r4, r3
 463              	.LVL18:
 464              	.L40:
 398:Drivers/STM32F4xx_HAL_Driver/Src/stm32f4xx_hal.c ****   }
 399:Drivers/STM32F4xx_HAL_Driver/Src/stm32f4xx_hal.c **** 
 400:Drivers/STM32F4xx_HAL_Driver/Src/stm32f4xx_hal.c ****   while((HAL_GetTick() - tickstart) < wait)
 401:Drivers/STM32F4xx_HAL_Driver/Src/stm32f4xx_hal.c ****   {
 402:Drivers/STM32F4xx_HAL_Driver/Src/stm32f4xx_hal.c ****   }
 465              		.loc 1 402 3 is_stmt 1 discriminator 1 view .LVU91
 400:Drivers/STM32F4xx_HAL_Driver/Src/stm32f4xx_hal.c ****   {
 466              		.loc 1 400 8 discriminator 1 view .LVU92
 400:Drivers/STM32F4xx_HAL_Driver/Src/stm32f4xx_hal.c ****   {
 467              		.loc 1 400 10 is_stmt 0 discriminator 1 view .LVU93
 468 0016 FFF7FEFF 		bl	HAL_GetTick
 469              	.LVL19:
 400:Drivers/STM32F4xx_HAL_Driver/Src/stm32f4xx_hal.c ****   {
 470              		.loc 1 400 24 discriminator 1 view .LVU94
 471 001a 401B     		subs	r0, r0, r5
 400:Drivers/STM32F4xx_HAL_Driver/Src/stm32f4xx_hal.c ****   {
 472              		.loc 1 400 8 discriminator 1 view .LVU95
 473 001c A042     		cmp	r0, r4
 474 001e FAD3     		bcc	.L40
 403:Drivers/STM32F4xx_HAL_Driver/Src/stm32f4xx_hal.c **** }
 475              		.loc 1 403 1 view .LVU96
 476 0020 38BD     		pop	{r3, r4, r5, pc}
 477              	.LVL20:
 478              	.L43:
 479              		.loc 1 403 1 view .LVU97
 480 0022 00BF     		.align	2
 481              	.L42:
 482 0024 00000000 		.word	.LANCHOR0
 483              		.cfi_endproc
 484              	.LFE226:
 486              		.section	.text.HAL_SuspendTick,"ax",%progbits
 487              		.align	1
 488              		.weak	HAL_SuspendTick
 489              		.syntax unified
ARM GAS  C:\Users\7636~1\AppData\Local\Temp\cce1iPIx.s 			page 17


 490              		.thumb
 491              		.thumb_func
 493              	HAL_SuspendTick:
 494              	.LFB227:
 404:Drivers/STM32F4xx_HAL_Driver/Src/stm32f4xx_hal.c **** 
 405:Drivers/STM32F4xx_HAL_Driver/Src/stm32f4xx_hal.c **** /**
 406:Drivers/STM32F4xx_HAL_Driver/Src/stm32f4xx_hal.c ****   * @brief Suspend Tick increment.
 407:Drivers/STM32F4xx_HAL_Driver/Src/stm32f4xx_hal.c ****   * @note In the default implementation , SysTick timer is the source of time base. It is
 408:Drivers/STM32F4xx_HAL_Driver/Src/stm32f4xx_hal.c ****   *       used to generate interrupts at regular time intervals. Once HAL_SuspendTick()
 409:Drivers/STM32F4xx_HAL_Driver/Src/stm32f4xx_hal.c ****   *       is called, the SysTick interrupt will be disabled and so Tick increment 
 410:Drivers/STM32F4xx_HAL_Driver/Src/stm32f4xx_hal.c ****   *       is suspended.
 411:Drivers/STM32F4xx_HAL_Driver/Src/stm32f4xx_hal.c ****   * @note This function is declared as __weak to be overwritten in case of other
 412:Drivers/STM32F4xx_HAL_Driver/Src/stm32f4xx_hal.c ****   *       implementations in user file.
 413:Drivers/STM32F4xx_HAL_Driver/Src/stm32f4xx_hal.c ****   * @retval None
 414:Drivers/STM32F4xx_HAL_Driver/Src/stm32f4xx_hal.c ****   */
 415:Drivers/STM32F4xx_HAL_Driver/Src/stm32f4xx_hal.c **** __weak void HAL_SuspendTick(void)
 416:Drivers/STM32F4xx_HAL_Driver/Src/stm32f4xx_hal.c **** {
 495              		.loc 1 416 1 is_stmt 1 view -0
 496              		.cfi_startproc
 497              		@ args = 0, pretend = 0, frame = 0
 498              		@ frame_needed = 0, uses_anonymous_args = 0
 499              		@ link register save eliminated.
 417:Drivers/STM32F4xx_HAL_Driver/Src/stm32f4xx_hal.c ****   /* Disable SysTick Interrupt */
 418:Drivers/STM32F4xx_HAL_Driver/Src/stm32f4xx_hal.c ****   SysTick->CTRL &= ~SysTick_CTRL_TICKINT_Msk;
 500              		.loc 1 418 3 view .LVU99
 501              		.loc 1 418 17 is_stmt 0 view .LVU100
 502 0000 4FF0E022 		mov	r2, #-536813568
 503 0004 1369     		ldr	r3, [r2, #16]
 504 0006 23F00203 		bic	r3, r3, #2
 505 000a 1361     		str	r3, [r2, #16]
 419:Drivers/STM32F4xx_HAL_Driver/Src/stm32f4xx_hal.c **** }
 506              		.loc 1 419 1 view .LVU101
 507 000c 7047     		bx	lr
 508              		.cfi_endproc
 509              	.LFE227:
 511              		.section	.text.HAL_ResumeTick,"ax",%progbits
 512              		.align	1
 513              		.weak	HAL_ResumeTick
 514              		.syntax unified
 515              		.thumb
 516              		.thumb_func
 518              	HAL_ResumeTick:
 519              	.LFB228:
 420:Drivers/STM32F4xx_HAL_Driver/Src/stm32f4xx_hal.c **** 
 421:Drivers/STM32F4xx_HAL_Driver/Src/stm32f4xx_hal.c **** /**
 422:Drivers/STM32F4xx_HAL_Driver/Src/stm32f4xx_hal.c ****   * @brief Resume Tick increment.
 423:Drivers/STM32F4xx_HAL_Driver/Src/stm32f4xx_hal.c ****   * @note In the default implementation , SysTick timer is the source of time base. It is
 424:Drivers/STM32F4xx_HAL_Driver/Src/stm32f4xx_hal.c ****   *       used to generate interrupts at regular time intervals. Once HAL_ResumeTick()
 425:Drivers/STM32F4xx_HAL_Driver/Src/stm32f4xx_hal.c ****   *       is called, the SysTick interrupt will be enabled and so Tick increment 
 426:Drivers/STM32F4xx_HAL_Driver/Src/stm32f4xx_hal.c ****   *       is resumed.
 427:Drivers/STM32F4xx_HAL_Driver/Src/stm32f4xx_hal.c ****   * @note This function is declared as __weak to be overwritten in case of other
 428:Drivers/STM32F4xx_HAL_Driver/Src/stm32f4xx_hal.c ****   *       implementations in user file.
 429:Drivers/STM32F4xx_HAL_Driver/Src/stm32f4xx_hal.c ****   * @retval None
 430:Drivers/STM32F4xx_HAL_Driver/Src/stm32f4xx_hal.c ****   */
 431:Drivers/STM32F4xx_HAL_Driver/Src/stm32f4xx_hal.c **** __weak void HAL_ResumeTick(void)
 432:Drivers/STM32F4xx_HAL_Driver/Src/stm32f4xx_hal.c **** {
 520              		.loc 1 432 1 is_stmt 1 view -0
ARM GAS  C:\Users\7636~1\AppData\Local\Temp\cce1iPIx.s 			page 18


 521              		.cfi_startproc
 522              		@ args = 0, pretend = 0, frame = 0
 523              		@ frame_needed = 0, uses_anonymous_args = 0
 524              		@ link register save eliminated.
 433:Drivers/STM32F4xx_HAL_Driver/Src/stm32f4xx_hal.c ****   /* Enable SysTick Interrupt */
 434:Drivers/STM32F4xx_HAL_Driver/Src/stm32f4xx_hal.c ****   SysTick->CTRL  |= SysTick_CTRL_TICKINT_Msk;
 525              		.loc 1 434 3 view .LVU103
 526              		.loc 1 434 18 is_stmt 0 view .LVU104
 527 0000 4FF0E022 		mov	r2, #-536813568
 528 0004 1369     		ldr	r3, [r2, #16]
 529 0006 43F00203 		orr	r3, r3, #2
 530 000a 1361     		str	r3, [r2, #16]
 435:Drivers/STM32F4xx_HAL_Driver/Src/stm32f4xx_hal.c **** }
 531              		.loc 1 435 1 view .LVU105
 532 000c 7047     		bx	lr
 533              		.cfi_endproc
 534              	.LFE228:
 536              		.section	.text.HAL_GetHalVersion,"ax",%progbits
 537              		.align	1
 538              		.global	HAL_GetHalVersion
 539              		.syntax unified
 540              		.thumb
 541              		.thumb_func
 543              	HAL_GetHalVersion:
 544              	.LFB229:
 436:Drivers/STM32F4xx_HAL_Driver/Src/stm32f4xx_hal.c **** 
 437:Drivers/STM32F4xx_HAL_Driver/Src/stm32f4xx_hal.c **** /**
 438:Drivers/STM32F4xx_HAL_Driver/Src/stm32f4xx_hal.c ****   * @brief  Returns the HAL revision
 439:Drivers/STM32F4xx_HAL_Driver/Src/stm32f4xx_hal.c ****   * @retval version : 0xXYZR (8bits for each decimal, R for RC)
 440:Drivers/STM32F4xx_HAL_Driver/Src/stm32f4xx_hal.c ****   */
 441:Drivers/STM32F4xx_HAL_Driver/Src/stm32f4xx_hal.c **** uint32_t HAL_GetHalVersion(void)
 442:Drivers/STM32F4xx_HAL_Driver/Src/stm32f4xx_hal.c **** {
 545              		.loc 1 442 1 is_stmt 1 view -0
 546              		.cfi_startproc
 547              		@ args = 0, pretend = 0, frame = 0
 548              		@ frame_needed = 0, uses_anonymous_args = 0
 549              		@ link register save eliminated.
 443:Drivers/STM32F4xx_HAL_Driver/Src/stm32f4xx_hal.c ****   return __STM32F4xx_HAL_VERSION;
 550              		.loc 1 443 3 view .LVU107
 444:Drivers/STM32F4xx_HAL_Driver/Src/stm32f4xx_hal.c **** }
 551              		.loc 1 444 1 is_stmt 0 view .LVU108
 552 0000 0048     		ldr	r0, .L47
 553 0002 7047     		bx	lr
 554              	.L48:
 555              		.align	2
 556              	.L47:
 557 0004 000C0701 		.word	17239040
 558              		.cfi_endproc
 559              	.LFE229:
 561              		.section	.text.HAL_GetREVID,"ax",%progbits
 562              		.align	1
 563              		.global	HAL_GetREVID
 564              		.syntax unified
 565              		.thumb
 566              		.thumb_func
 568              	HAL_GetREVID:
 569              	.LFB230:
ARM GAS  C:\Users\7636~1\AppData\Local\Temp\cce1iPIx.s 			page 19


 445:Drivers/STM32F4xx_HAL_Driver/Src/stm32f4xx_hal.c **** 
 446:Drivers/STM32F4xx_HAL_Driver/Src/stm32f4xx_hal.c **** /**
 447:Drivers/STM32F4xx_HAL_Driver/Src/stm32f4xx_hal.c ****   * @brief  Returns the device revision identifier.
 448:Drivers/STM32F4xx_HAL_Driver/Src/stm32f4xx_hal.c ****   * @retval Device revision identifier
 449:Drivers/STM32F4xx_HAL_Driver/Src/stm32f4xx_hal.c ****   */
 450:Drivers/STM32F4xx_HAL_Driver/Src/stm32f4xx_hal.c **** uint32_t HAL_GetREVID(void)
 451:Drivers/STM32F4xx_HAL_Driver/Src/stm32f4xx_hal.c **** {
 570              		.loc 1 451 1 is_stmt 1 view -0
 571              		.cfi_startproc
 572              		@ args = 0, pretend = 0, frame = 0
 573              		@ frame_needed = 0, uses_anonymous_args = 0
 574              		@ link register save eliminated.
 452:Drivers/STM32F4xx_HAL_Driver/Src/stm32f4xx_hal.c ****   return((DBGMCU->IDCODE) >> 16U);
 575              		.loc 1 452 3 view .LVU110
 576              		.loc 1 452 17 is_stmt 0 view .LVU111
 577 0000 014B     		ldr	r3, .L50
 578 0002 1868     		ldr	r0, [r3]
 453:Drivers/STM32F4xx_HAL_Driver/Src/stm32f4xx_hal.c **** }
 579              		.loc 1 453 1 view .LVU112
 580 0004 000C     		lsrs	r0, r0, #16
 581 0006 7047     		bx	lr
 582              	.L51:
 583              		.align	2
 584              	.L50:
 585 0008 002004E0 		.word	-536600576
 586              		.cfi_endproc
 587              	.LFE230:
 589              		.section	.text.HAL_GetDEVID,"ax",%progbits
 590              		.align	1
 591              		.global	HAL_GetDEVID
 592              		.syntax unified
 593              		.thumb
 594              		.thumb_func
 596              	HAL_GetDEVID:
 597              	.LFB231:
 454:Drivers/STM32F4xx_HAL_Driver/Src/stm32f4xx_hal.c **** 
 455:Drivers/STM32F4xx_HAL_Driver/Src/stm32f4xx_hal.c **** /**
 456:Drivers/STM32F4xx_HAL_Driver/Src/stm32f4xx_hal.c ****   * @brief  Returns the device identifier.
 457:Drivers/STM32F4xx_HAL_Driver/Src/stm32f4xx_hal.c ****   * @retval Device identifier
 458:Drivers/STM32F4xx_HAL_Driver/Src/stm32f4xx_hal.c ****   */
 459:Drivers/STM32F4xx_HAL_Driver/Src/stm32f4xx_hal.c **** uint32_t HAL_GetDEVID(void)
 460:Drivers/STM32F4xx_HAL_Driver/Src/stm32f4xx_hal.c **** {
 598              		.loc 1 460 1 is_stmt 1 view -0
 599              		.cfi_startproc
 600              		@ args = 0, pretend = 0, frame = 0
 601              		@ frame_needed = 0, uses_anonymous_args = 0
 602              		@ link register save eliminated.
 461:Drivers/STM32F4xx_HAL_Driver/Src/stm32f4xx_hal.c ****   return((DBGMCU->IDCODE) & IDCODE_DEVID_MASK);
 603              		.loc 1 461 3 view .LVU114
 604              		.loc 1 461 17 is_stmt 0 view .LVU115
 605 0000 024B     		ldr	r3, .L53
 606 0002 1868     		ldr	r0, [r3]
 462:Drivers/STM32F4xx_HAL_Driver/Src/stm32f4xx_hal.c **** }
 607              		.loc 1 462 1 view .LVU116
 608 0004 C0F30B00 		ubfx	r0, r0, #0, #12
 609 0008 7047     		bx	lr
 610              	.L54:
ARM GAS  C:\Users\7636~1\AppData\Local\Temp\cce1iPIx.s 			page 20


 611 000a 00BF     		.align	2
 612              	.L53:
 613 000c 002004E0 		.word	-536600576
 614              		.cfi_endproc
 615              	.LFE231:
 617              		.section	.text.HAL_DBGMCU_EnableDBGSleepMode,"ax",%progbits
 618              		.align	1
 619              		.global	HAL_DBGMCU_EnableDBGSleepMode
 620              		.syntax unified
 621              		.thumb
 622              		.thumb_func
 624              	HAL_DBGMCU_EnableDBGSleepMode:
 625              	.LFB232:
 463:Drivers/STM32F4xx_HAL_Driver/Src/stm32f4xx_hal.c **** 
 464:Drivers/STM32F4xx_HAL_Driver/Src/stm32f4xx_hal.c **** /**
 465:Drivers/STM32F4xx_HAL_Driver/Src/stm32f4xx_hal.c ****   * @brief  Enable the Debug Module during SLEEP mode
 466:Drivers/STM32F4xx_HAL_Driver/Src/stm32f4xx_hal.c ****   * @retval None
 467:Drivers/STM32F4xx_HAL_Driver/Src/stm32f4xx_hal.c ****   */
 468:Drivers/STM32F4xx_HAL_Driver/Src/stm32f4xx_hal.c **** void HAL_DBGMCU_EnableDBGSleepMode(void)
 469:Drivers/STM32F4xx_HAL_Driver/Src/stm32f4xx_hal.c **** {
 626              		.loc 1 469 1 is_stmt 1 view -0
 627              		.cfi_startproc
 628              		@ args = 0, pretend = 0, frame = 0
 629              		@ frame_needed = 0, uses_anonymous_args = 0
 630              		@ link register save eliminated.
 470:Drivers/STM32F4xx_HAL_Driver/Src/stm32f4xx_hal.c ****   SET_BIT(DBGMCU->CR, DBGMCU_CR_DBG_SLEEP);
 631              		.loc 1 470 3 view .LVU118
 632 0000 024A     		ldr	r2, .L56
 633 0002 5368     		ldr	r3, [r2, #4]
 634 0004 43F00103 		orr	r3, r3, #1
 635 0008 5360     		str	r3, [r2, #4]
 471:Drivers/STM32F4xx_HAL_Driver/Src/stm32f4xx_hal.c **** }
 636              		.loc 1 471 1 is_stmt 0 view .LVU119
 637 000a 7047     		bx	lr
 638              	.L57:
 639              		.align	2
 640              	.L56:
 641 000c 002004E0 		.word	-536600576
 642              		.cfi_endproc
 643              	.LFE232:
 645              		.section	.text.HAL_DBGMCU_DisableDBGSleepMode,"ax",%progbits
 646              		.align	1
 647              		.global	HAL_DBGMCU_DisableDBGSleepMode
 648              		.syntax unified
 649              		.thumb
 650              		.thumb_func
 652              	HAL_DBGMCU_DisableDBGSleepMode:
 653              	.LFB233:
 472:Drivers/STM32F4xx_HAL_Driver/Src/stm32f4xx_hal.c **** 
 473:Drivers/STM32F4xx_HAL_Driver/Src/stm32f4xx_hal.c **** /**
 474:Drivers/STM32F4xx_HAL_Driver/Src/stm32f4xx_hal.c ****   * @brief  Disable the Debug Module during SLEEP mode
 475:Drivers/STM32F4xx_HAL_Driver/Src/stm32f4xx_hal.c ****   * @retval None
 476:Drivers/STM32F4xx_HAL_Driver/Src/stm32f4xx_hal.c ****   */
 477:Drivers/STM32F4xx_HAL_Driver/Src/stm32f4xx_hal.c **** void HAL_DBGMCU_DisableDBGSleepMode(void)
 478:Drivers/STM32F4xx_HAL_Driver/Src/stm32f4xx_hal.c **** {
 654              		.loc 1 478 1 is_stmt 1 view -0
 655              		.cfi_startproc
ARM GAS  C:\Users\7636~1\AppData\Local\Temp\cce1iPIx.s 			page 21


 656              		@ args = 0, pretend = 0, frame = 0
 657              		@ frame_needed = 0, uses_anonymous_args = 0
 658              		@ link register save eliminated.
 479:Drivers/STM32F4xx_HAL_Driver/Src/stm32f4xx_hal.c ****   CLEAR_BIT(DBGMCU->CR, DBGMCU_CR_DBG_SLEEP);
 659              		.loc 1 479 3 view .LVU121
 660 0000 024A     		ldr	r2, .L59
 661 0002 5368     		ldr	r3, [r2, #4]
 662 0004 23F00103 		bic	r3, r3, #1
 663 0008 5360     		str	r3, [r2, #4]
 480:Drivers/STM32F4xx_HAL_Driver/Src/stm32f4xx_hal.c **** }
 664              		.loc 1 480 1 is_stmt 0 view .LVU122
 665 000a 7047     		bx	lr
 666              	.L60:
 667              		.align	2
 668              	.L59:
 669 000c 002004E0 		.word	-536600576
 670              		.cfi_endproc
 671              	.LFE233:
 673              		.section	.text.HAL_DBGMCU_EnableDBGStopMode,"ax",%progbits
 674              		.align	1
 675              		.global	HAL_DBGMCU_EnableDBGStopMode
 676              		.syntax unified
 677              		.thumb
 678              		.thumb_func
 680              	HAL_DBGMCU_EnableDBGStopMode:
 681              	.LFB234:
 481:Drivers/STM32F4xx_HAL_Driver/Src/stm32f4xx_hal.c **** 
 482:Drivers/STM32F4xx_HAL_Driver/Src/stm32f4xx_hal.c **** /**
 483:Drivers/STM32F4xx_HAL_Driver/Src/stm32f4xx_hal.c ****   * @brief  Enable the Debug Module during STOP mode
 484:Drivers/STM32F4xx_HAL_Driver/Src/stm32f4xx_hal.c ****   * @retval None
 485:Drivers/STM32F4xx_HAL_Driver/Src/stm32f4xx_hal.c ****   */
 486:Drivers/STM32F4xx_HAL_Driver/Src/stm32f4xx_hal.c **** void HAL_DBGMCU_EnableDBGStopMode(void)
 487:Drivers/STM32F4xx_HAL_Driver/Src/stm32f4xx_hal.c **** {
 682              		.loc 1 487 1 is_stmt 1 view -0
 683              		.cfi_startproc
 684              		@ args = 0, pretend = 0, frame = 0
 685              		@ frame_needed = 0, uses_anonymous_args = 0
 686              		@ link register save eliminated.
 488:Drivers/STM32F4xx_HAL_Driver/Src/stm32f4xx_hal.c ****   SET_BIT(DBGMCU->CR, DBGMCU_CR_DBG_STOP);
 687              		.loc 1 488 3 view .LVU124
 688 0000 024A     		ldr	r2, .L62
 689 0002 5368     		ldr	r3, [r2, #4]
 690 0004 43F00203 		orr	r3, r3, #2
 691 0008 5360     		str	r3, [r2, #4]
 489:Drivers/STM32F4xx_HAL_Driver/Src/stm32f4xx_hal.c **** }
 692              		.loc 1 489 1 is_stmt 0 view .LVU125
 693 000a 7047     		bx	lr
 694              	.L63:
 695              		.align	2
 696              	.L62:
 697 000c 002004E0 		.word	-536600576
 698              		.cfi_endproc
 699              	.LFE234:
 701              		.section	.text.HAL_DBGMCU_DisableDBGStopMode,"ax",%progbits
 702              		.align	1
 703              		.global	HAL_DBGMCU_DisableDBGStopMode
 704              		.syntax unified
ARM GAS  C:\Users\7636~1\AppData\Local\Temp\cce1iPIx.s 			page 22


 705              		.thumb
 706              		.thumb_func
 708              	HAL_DBGMCU_DisableDBGStopMode:
 709              	.LFB235:
 490:Drivers/STM32F4xx_HAL_Driver/Src/stm32f4xx_hal.c **** 
 491:Drivers/STM32F4xx_HAL_Driver/Src/stm32f4xx_hal.c **** /**
 492:Drivers/STM32F4xx_HAL_Driver/Src/stm32f4xx_hal.c ****   * @brief  Disable the Debug Module during STOP mode
 493:Drivers/STM32F4xx_HAL_Driver/Src/stm32f4xx_hal.c ****   * @retval None
 494:Drivers/STM32F4xx_HAL_Driver/Src/stm32f4xx_hal.c ****   */
 495:Drivers/STM32F4xx_HAL_Driver/Src/stm32f4xx_hal.c **** void HAL_DBGMCU_DisableDBGStopMode(void)
 496:Drivers/STM32F4xx_HAL_Driver/Src/stm32f4xx_hal.c **** {
 710              		.loc 1 496 1 is_stmt 1 view -0
 711              		.cfi_startproc
 712              		@ args = 0, pretend = 0, frame = 0
 713              		@ frame_needed = 0, uses_anonymous_args = 0
 714              		@ link register save eliminated.
 497:Drivers/STM32F4xx_HAL_Driver/Src/stm32f4xx_hal.c ****   CLEAR_BIT(DBGMCU->CR, DBGMCU_CR_DBG_STOP);
 715              		.loc 1 497 3 view .LVU127
 716 0000 024A     		ldr	r2, .L65
 717 0002 5368     		ldr	r3, [r2, #4]
 718 0004 23F00203 		bic	r3, r3, #2
 719 0008 5360     		str	r3, [r2, #4]
 498:Drivers/STM32F4xx_HAL_Driver/Src/stm32f4xx_hal.c **** }
 720              		.loc 1 498 1 is_stmt 0 view .LVU128
 721 000a 7047     		bx	lr
 722              	.L66:
 723              		.align	2
 724              	.L65:
 725 000c 002004E0 		.word	-536600576
 726              		.cfi_endproc
 727              	.LFE235:
 729              		.section	.text.HAL_DBGMCU_EnableDBGStandbyMode,"ax",%progbits
 730              		.align	1
 731              		.global	HAL_DBGMCU_EnableDBGStandbyMode
 732              		.syntax unified
 733              		.thumb
 734              		.thumb_func
 736              	HAL_DBGMCU_EnableDBGStandbyMode:
 737              	.LFB236:
 499:Drivers/STM32F4xx_HAL_Driver/Src/stm32f4xx_hal.c **** 
 500:Drivers/STM32F4xx_HAL_Driver/Src/stm32f4xx_hal.c **** /**
 501:Drivers/STM32F4xx_HAL_Driver/Src/stm32f4xx_hal.c ****   * @brief  Enable the Debug Module during STANDBY mode
 502:Drivers/STM32F4xx_HAL_Driver/Src/stm32f4xx_hal.c ****   * @retval None
 503:Drivers/STM32F4xx_HAL_Driver/Src/stm32f4xx_hal.c ****   */
 504:Drivers/STM32F4xx_HAL_Driver/Src/stm32f4xx_hal.c **** void HAL_DBGMCU_EnableDBGStandbyMode(void)
 505:Drivers/STM32F4xx_HAL_Driver/Src/stm32f4xx_hal.c **** {
 738              		.loc 1 505 1 is_stmt 1 view -0
 739              		.cfi_startproc
 740              		@ args = 0, pretend = 0, frame = 0
 741              		@ frame_needed = 0, uses_anonymous_args = 0
 742              		@ link register save eliminated.
 506:Drivers/STM32F4xx_HAL_Driver/Src/stm32f4xx_hal.c ****   SET_BIT(DBGMCU->CR, DBGMCU_CR_DBG_STANDBY);
 743              		.loc 1 506 3 view .LVU130
 744 0000 024A     		ldr	r2, .L68
 745 0002 5368     		ldr	r3, [r2, #4]
 746 0004 43F00403 		orr	r3, r3, #4
 747 0008 5360     		str	r3, [r2, #4]
ARM GAS  C:\Users\7636~1\AppData\Local\Temp\cce1iPIx.s 			page 23


 507:Drivers/STM32F4xx_HAL_Driver/Src/stm32f4xx_hal.c **** }
 748              		.loc 1 507 1 is_stmt 0 view .LVU131
 749 000a 7047     		bx	lr
 750              	.L69:
 751              		.align	2
 752              	.L68:
 753 000c 002004E0 		.word	-536600576
 754              		.cfi_endproc
 755              	.LFE236:
 757              		.section	.text.HAL_DBGMCU_DisableDBGStandbyMode,"ax",%progbits
 758              		.align	1
 759              		.global	HAL_DBGMCU_DisableDBGStandbyMode
 760              		.syntax unified
 761              		.thumb
 762              		.thumb_func
 764              	HAL_DBGMCU_DisableDBGStandbyMode:
 765              	.LFB237:
 508:Drivers/STM32F4xx_HAL_Driver/Src/stm32f4xx_hal.c **** 
 509:Drivers/STM32F4xx_HAL_Driver/Src/stm32f4xx_hal.c **** /**
 510:Drivers/STM32F4xx_HAL_Driver/Src/stm32f4xx_hal.c ****   * @brief  Disable the Debug Module during STANDBY mode
 511:Drivers/STM32F4xx_HAL_Driver/Src/stm32f4xx_hal.c ****   * @retval None
 512:Drivers/STM32F4xx_HAL_Driver/Src/stm32f4xx_hal.c ****   */
 513:Drivers/STM32F4xx_HAL_Driver/Src/stm32f4xx_hal.c **** void HAL_DBGMCU_DisableDBGStandbyMode(void)
 514:Drivers/STM32F4xx_HAL_Driver/Src/stm32f4xx_hal.c **** {
 766              		.loc 1 514 1 is_stmt 1 view -0
 767              		.cfi_startproc
 768              		@ args = 0, pretend = 0, frame = 0
 769              		@ frame_needed = 0, uses_anonymous_args = 0
 770              		@ link register save eliminated.
 515:Drivers/STM32F4xx_HAL_Driver/Src/stm32f4xx_hal.c ****   CLEAR_BIT(DBGMCU->CR, DBGMCU_CR_DBG_STANDBY);
 771              		.loc 1 515 3 view .LVU133
 772 0000 024A     		ldr	r2, .L71
 773 0002 5368     		ldr	r3, [r2, #4]
 774 0004 23F00403 		bic	r3, r3, #4
 775 0008 5360     		str	r3, [r2, #4]
 516:Drivers/STM32F4xx_HAL_Driver/Src/stm32f4xx_hal.c **** }
 776              		.loc 1 516 1 is_stmt 0 view .LVU134
 777 000a 7047     		bx	lr
 778              	.L72:
 779              		.align	2
 780              	.L71:
 781 000c 002004E0 		.word	-536600576
 782              		.cfi_endproc
 783              	.LFE237:
 785              		.section	.text.HAL_EnableCompensationCell,"ax",%progbits
 786              		.align	1
 787              		.global	HAL_EnableCompensationCell
 788              		.syntax unified
 789              		.thumb
 790              		.thumb_func
 792              	HAL_EnableCompensationCell:
 793              	.LFB238:
 517:Drivers/STM32F4xx_HAL_Driver/Src/stm32f4xx_hal.c **** 
 518:Drivers/STM32F4xx_HAL_Driver/Src/stm32f4xx_hal.c **** /**
 519:Drivers/STM32F4xx_HAL_Driver/Src/stm32f4xx_hal.c ****   * @brief  Enables the I/O Compensation Cell.
 520:Drivers/STM32F4xx_HAL_Driver/Src/stm32f4xx_hal.c ****   * @note   The I/O compensation cell can be used only when the device supply
 521:Drivers/STM32F4xx_HAL_Driver/Src/stm32f4xx_hal.c ****   *         voltage ranges from 2.4 to 3.6 V.  
ARM GAS  C:\Users\7636~1\AppData\Local\Temp\cce1iPIx.s 			page 24


 522:Drivers/STM32F4xx_HAL_Driver/Src/stm32f4xx_hal.c ****   * @retval None
 523:Drivers/STM32F4xx_HAL_Driver/Src/stm32f4xx_hal.c ****   */
 524:Drivers/STM32F4xx_HAL_Driver/Src/stm32f4xx_hal.c **** void HAL_EnableCompensationCell(void)
 525:Drivers/STM32F4xx_HAL_Driver/Src/stm32f4xx_hal.c **** {
 794              		.loc 1 525 1 is_stmt 1 view -0
 795              		.cfi_startproc
 796              		@ args = 0, pretend = 0, frame = 0
 797              		@ frame_needed = 0, uses_anonymous_args = 0
 798              		@ link register save eliminated.
 526:Drivers/STM32F4xx_HAL_Driver/Src/stm32f4xx_hal.c ****   *(__IO uint32_t *)CMPCR_CMP_PD_BB = (uint32_t)ENABLE;
 799              		.loc 1 526 3 view .LVU136
 800              		.loc 1 526 37 is_stmt 0 view .LVU137
 801 0000 024B     		ldr	r3, .L74
 802 0002 0122     		movs	r2, #1
 803 0004 C3F80024 		str	r2, [r3, #1024]
 527:Drivers/STM32F4xx_HAL_Driver/Src/stm32f4xx_hal.c **** }
 804              		.loc 1 527 1 view .LVU138
 805 0008 7047     		bx	lr
 806              	.L75:
 807 000a 00BF     		.align	2
 808              	.L74:
 809 000c 00002742 		.word	1109852160
 810              		.cfi_endproc
 811              	.LFE238:
 813              		.section	.text.HAL_DisableCompensationCell,"ax",%progbits
 814              		.align	1
 815              		.global	HAL_DisableCompensationCell
 816              		.syntax unified
 817              		.thumb
 818              		.thumb_func
 820              	HAL_DisableCompensationCell:
 821              	.LFB239:
 528:Drivers/STM32F4xx_HAL_Driver/Src/stm32f4xx_hal.c **** 
 529:Drivers/STM32F4xx_HAL_Driver/Src/stm32f4xx_hal.c **** /**
 530:Drivers/STM32F4xx_HAL_Driver/Src/stm32f4xx_hal.c ****   * @brief  Power-down the I/O Compensation Cell.
 531:Drivers/STM32F4xx_HAL_Driver/Src/stm32f4xx_hal.c ****   * @note   The I/O compensation cell can be used only when the device supply
 532:Drivers/STM32F4xx_HAL_Driver/Src/stm32f4xx_hal.c ****   *         voltage ranges from 2.4 to 3.6 V.  
 533:Drivers/STM32F4xx_HAL_Driver/Src/stm32f4xx_hal.c ****   * @retval None
 534:Drivers/STM32F4xx_HAL_Driver/Src/stm32f4xx_hal.c ****   */
 535:Drivers/STM32F4xx_HAL_Driver/Src/stm32f4xx_hal.c **** void HAL_DisableCompensationCell(void)
 536:Drivers/STM32F4xx_HAL_Driver/Src/stm32f4xx_hal.c **** {
 822              		.loc 1 536 1 is_stmt 1 view -0
 823              		.cfi_startproc
 824              		@ args = 0, pretend = 0, frame = 0
 825              		@ frame_needed = 0, uses_anonymous_args = 0
 826              		@ link register save eliminated.
 537:Drivers/STM32F4xx_HAL_Driver/Src/stm32f4xx_hal.c ****   *(__IO uint32_t *)CMPCR_CMP_PD_BB = (uint32_t)DISABLE;
 827              		.loc 1 537 3 view .LVU140
 828              		.loc 1 537 37 is_stmt 0 view .LVU141
 829 0000 024B     		ldr	r3, .L77
 830 0002 0022     		movs	r2, #0
 831 0004 C3F80024 		str	r2, [r3, #1024]
 538:Drivers/STM32F4xx_HAL_Driver/Src/stm32f4xx_hal.c **** }
 832              		.loc 1 538 1 view .LVU142
 833 0008 7047     		bx	lr
 834              	.L78:
 835 000a 00BF     		.align	2
ARM GAS  C:\Users\7636~1\AppData\Local\Temp\cce1iPIx.s 			page 25


 836              	.L77:
 837 000c 00002742 		.word	1109852160
 838              		.cfi_endproc
 839              	.LFE239:
 841              		.section	.text.HAL_GetUIDw0,"ax",%progbits
 842              		.align	1
 843              		.global	HAL_GetUIDw0
 844              		.syntax unified
 845              		.thumb
 846              		.thumb_func
 848              	HAL_GetUIDw0:
 849              	.LFB240:
 539:Drivers/STM32F4xx_HAL_Driver/Src/stm32f4xx_hal.c **** 
 540:Drivers/STM32F4xx_HAL_Driver/Src/stm32f4xx_hal.c **** /**
 541:Drivers/STM32F4xx_HAL_Driver/Src/stm32f4xx_hal.c ****   * @brief  Returns first word of the unique device identifier (UID based on 96 bits)
 542:Drivers/STM32F4xx_HAL_Driver/Src/stm32f4xx_hal.c ****   * @retval Device identifier
 543:Drivers/STM32F4xx_HAL_Driver/Src/stm32f4xx_hal.c ****   */
 544:Drivers/STM32F4xx_HAL_Driver/Src/stm32f4xx_hal.c **** uint32_t HAL_GetUIDw0(void)
 545:Drivers/STM32F4xx_HAL_Driver/Src/stm32f4xx_hal.c **** {
 850              		.loc 1 545 1 is_stmt 1 view -0
 851              		.cfi_startproc
 852              		@ args = 0, pretend = 0, frame = 0
 853              		@ frame_needed = 0, uses_anonymous_args = 0
 854              		@ link register save eliminated.
 546:Drivers/STM32F4xx_HAL_Driver/Src/stm32f4xx_hal.c ****   return (READ_REG(*((uint32_t *)UID_BASE)));
 855              		.loc 1 546 3 view .LVU144
 547:Drivers/STM32F4xx_HAL_Driver/Src/stm32f4xx_hal.c **** }
 856              		.loc 1 547 1 is_stmt 0 view .LVU145
 857 0000 014B     		ldr	r3, .L80
 858 0002 D3F8100A 		ldr	r0, [r3, #2576]
 859 0006 7047     		bx	lr
 860              	.L81:
 861              		.align	2
 862              	.L80:
 863 0008 0070FF1F 		.word	536834048
 864              		.cfi_endproc
 865              	.LFE240:
 867              		.section	.text.HAL_GetUIDw1,"ax",%progbits
 868              		.align	1
 869              		.global	HAL_GetUIDw1
 870              		.syntax unified
 871              		.thumb
 872              		.thumb_func
 874              	HAL_GetUIDw1:
 875              	.LFB241:
 548:Drivers/STM32F4xx_HAL_Driver/Src/stm32f4xx_hal.c **** 
 549:Drivers/STM32F4xx_HAL_Driver/Src/stm32f4xx_hal.c **** /**
 550:Drivers/STM32F4xx_HAL_Driver/Src/stm32f4xx_hal.c ****   * @brief  Returns second word of the unique device identifier (UID based on 96 bits)
 551:Drivers/STM32F4xx_HAL_Driver/Src/stm32f4xx_hal.c ****   * @retval Device identifier
 552:Drivers/STM32F4xx_HAL_Driver/Src/stm32f4xx_hal.c ****   */
 553:Drivers/STM32F4xx_HAL_Driver/Src/stm32f4xx_hal.c **** uint32_t HAL_GetUIDw1(void)
 554:Drivers/STM32F4xx_HAL_Driver/Src/stm32f4xx_hal.c **** {
 876              		.loc 1 554 1 is_stmt 1 view -0
 877              		.cfi_startproc
 878              		@ args = 0, pretend = 0, frame = 0
 879              		@ frame_needed = 0, uses_anonymous_args = 0
 880              		@ link register save eliminated.
ARM GAS  C:\Users\7636~1\AppData\Local\Temp\cce1iPIx.s 			page 26


 555:Drivers/STM32F4xx_HAL_Driver/Src/stm32f4xx_hal.c ****   return (READ_REG(*((uint32_t *)(UID_BASE + 4U))));
 881              		.loc 1 555 3 view .LVU147
 556:Drivers/STM32F4xx_HAL_Driver/Src/stm32f4xx_hal.c **** }
 882              		.loc 1 556 1 is_stmt 0 view .LVU148
 883 0000 014B     		ldr	r3, .L83
 884 0002 D3F8140A 		ldr	r0, [r3, #2580]
 885 0006 7047     		bx	lr
 886              	.L84:
 887              		.align	2
 888              	.L83:
 889 0008 0070FF1F 		.word	536834048
 890              		.cfi_endproc
 891              	.LFE241:
 893              		.section	.text.HAL_GetUIDw2,"ax",%progbits
 894              		.align	1
 895              		.global	HAL_GetUIDw2
 896              		.syntax unified
 897              		.thumb
 898              		.thumb_func
 900              	HAL_GetUIDw2:
 901              	.LFB242:
 557:Drivers/STM32F4xx_HAL_Driver/Src/stm32f4xx_hal.c **** 
 558:Drivers/STM32F4xx_HAL_Driver/Src/stm32f4xx_hal.c **** /**
 559:Drivers/STM32F4xx_HAL_Driver/Src/stm32f4xx_hal.c ****   * @brief  Returns third word of the unique device identifier (UID based on 96 bits)
 560:Drivers/STM32F4xx_HAL_Driver/Src/stm32f4xx_hal.c ****   * @retval Device identifier
 561:Drivers/STM32F4xx_HAL_Driver/Src/stm32f4xx_hal.c ****   */
 562:Drivers/STM32F4xx_HAL_Driver/Src/stm32f4xx_hal.c **** uint32_t HAL_GetUIDw2(void)
 563:Drivers/STM32F4xx_HAL_Driver/Src/stm32f4xx_hal.c **** {
 902              		.loc 1 563 1 is_stmt 1 view -0
 903              		.cfi_startproc
 904              		@ args = 0, pretend = 0, frame = 0
 905              		@ frame_needed = 0, uses_anonymous_args = 0
 906              		@ link register save eliminated.
 564:Drivers/STM32F4xx_HAL_Driver/Src/stm32f4xx_hal.c ****   return (READ_REG(*((uint32_t *)(UID_BASE + 8U))));
 907              		.loc 1 564 3 view .LVU150
 565:Drivers/STM32F4xx_HAL_Driver/Src/stm32f4xx_hal.c **** }
 908              		.loc 1 565 1 is_stmt 0 view .LVU151
 909 0000 014B     		ldr	r3, .L86
 910 0002 D3F8180A 		ldr	r0, [r3, #2584]
 911 0006 7047     		bx	lr
 912              	.L87:
 913              		.align	2
 914              	.L86:
 915 0008 0070FF1F 		.word	536834048
 916              		.cfi_endproc
 917              	.LFE242:
 919              		.global	uwTickFreq
 920              		.global	uwTickPrio
 921              		.global	uwTick
 922              		.section	.bss.uwTick,"aw",%nobits
 923              		.align	2
 924              		.set	.LANCHOR2,. + 0
 927              	uwTick:
 928 0000 00000000 		.space	4
 929              		.section	.data.uwTickFreq,"aw"
 930              		.set	.LANCHOR0,. + 0
 933              	uwTickFreq:
ARM GAS  C:\Users\7636~1\AppData\Local\Temp\cce1iPIx.s 			page 27


 934 0000 01       		.byte	1
 935              		.section	.data.uwTickPrio,"aw"
 936              		.align	2
 937              		.set	.LANCHOR1,. + 0
 940              	uwTickPrio:
 941 0000 10000000 		.word	16
 942              		.text
 943              	.Letext0:
 944              		.file 2 "c:\\arm-none-eabi-gcc\\arm-none-eabi\\include\\machine\\_default_types.h"
 945              		.file 3 "c:\\arm-none-eabi-gcc\\arm-none-eabi\\include\\sys\\_stdint.h"
 946              		.file 4 "Drivers/CMSIS/Include/core_cm4.h"
 947              		.file 5 "Drivers/CMSIS/Device/ST/STM32F4xx/Include/stm32f401xc.h"
 948              		.file 6 "Drivers/CMSIS/Device/ST/STM32F4xx/Include/stm32f4xx.h"
 949              		.file 7 "Drivers/STM32F4xx_HAL_Driver/Inc/stm32f4xx_hal_def.h"
 950              		.file 8 "Drivers/STM32F4xx_HAL_Driver/Inc/stm32f4xx_hal.h"
 951              		.file 9 "Drivers/CMSIS/Device/ST/STM32F4xx/Include/system_stm32f4xx.h"
 952              		.file 10 "Drivers/STM32F4xx_HAL_Driver/Inc/stm32f4xx_hal_cortex.h"
ARM GAS  C:\Users\7636~1\AppData\Local\Temp\cce1iPIx.s 			page 28


DEFINED SYMBOLS
                            *ABS*:00000000 stm32f4xx_hal.c
C:\Users\7636~1\AppData\Local\Temp\cce1iPIx.s:20     .text.HAL_MspInit:00000000 $t
C:\Users\7636~1\AppData\Local\Temp\cce1iPIx.s:26     .text.HAL_MspInit:00000000 HAL_MspInit
C:\Users\7636~1\AppData\Local\Temp\cce1iPIx.s:40     .text.HAL_MspDeInit:00000000 $t
C:\Users\7636~1\AppData\Local\Temp\cce1iPIx.s:46     .text.HAL_MspDeInit:00000000 HAL_MspDeInit
C:\Users\7636~1\AppData\Local\Temp\cce1iPIx.s:59     .text.HAL_DeInit:00000000 $t
C:\Users\7636~1\AppData\Local\Temp\cce1iPIx.s:65     .text.HAL_DeInit:00000000 HAL_DeInit
C:\Users\7636~1\AppData\Local\Temp\cce1iPIx.s:109    .text.HAL_DeInit:00000028 $d
C:\Users\7636~1\AppData\Local\Temp\cce1iPIx.s:114    .text.HAL_InitTick:00000000 $t
C:\Users\7636~1\AppData\Local\Temp\cce1iPIx.s:120    .text.HAL_InitTick:00000000 HAL_InitTick
C:\Users\7636~1\AppData\Local\Temp\cce1iPIx.s:183    .text.HAL_InitTick:00000040 $d
C:\Users\7636~1\AppData\Local\Temp\cce1iPIx.s:190    .text.HAL_Init:00000000 $t
C:\Users\7636~1\AppData\Local\Temp\cce1iPIx.s:196    .text.HAL_Init:00000000 HAL_Init
C:\Users\7636~1\AppData\Local\Temp\cce1iPIx.s:238    .text.HAL_Init:00000030 $d
C:\Users\7636~1\AppData\Local\Temp\cce1iPIx.s:243    .text.HAL_IncTick:00000000 $t
C:\Users\7636~1\AppData\Local\Temp\cce1iPIx.s:249    .text.HAL_IncTick:00000000 HAL_IncTick
C:\Users\7636~1\AppData\Local\Temp\cce1iPIx.s:269    .text.HAL_IncTick:00000010 $d
C:\Users\7636~1\AppData\Local\Temp\cce1iPIx.s:275    .text.HAL_GetTick:00000000 $t
C:\Users\7636~1\AppData\Local\Temp\cce1iPIx.s:281    .text.HAL_GetTick:00000000 HAL_GetTick
C:\Users\7636~1\AppData\Local\Temp\cce1iPIx.s:297    .text.HAL_GetTick:00000008 $d
C:\Users\7636~1\AppData\Local\Temp\cce1iPIx.s:302    .text.HAL_GetTickPrio:00000000 $t
C:\Users\7636~1\AppData\Local\Temp\cce1iPIx.s:308    .text.HAL_GetTickPrio:00000000 HAL_GetTickPrio
C:\Users\7636~1\AppData\Local\Temp\cce1iPIx.s:323    .text.HAL_GetTickPrio:00000008 $d
C:\Users\7636~1\AppData\Local\Temp\cce1iPIx.s:328    .text.HAL_SetTickFreq:00000000 $t
C:\Users\7636~1\AppData\Local\Temp\cce1iPIx.s:334    .text.HAL_SetTickFreq:00000000 HAL_SetTickFreq
C:\Users\7636~1\AppData\Local\Temp\cce1iPIx.s:391    .text.HAL_SetTickFreq:00000024 $d
C:\Users\7636~1\AppData\Local\Temp\cce1iPIx.s:397    .text.HAL_GetTickFreq:00000000 $t
C:\Users\7636~1\AppData\Local\Temp\cce1iPIx.s:403    .text.HAL_GetTickFreq:00000000 HAL_GetTickFreq
C:\Users\7636~1\AppData\Local\Temp\cce1iPIx.s:418    .text.HAL_GetTickFreq:00000008 $d
C:\Users\7636~1\AppData\Local\Temp\cce1iPIx.s:423    .text.HAL_Delay:00000000 $t
C:\Users\7636~1\AppData\Local\Temp\cce1iPIx.s:429    .text.HAL_Delay:00000000 HAL_Delay
C:\Users\7636~1\AppData\Local\Temp\cce1iPIx.s:482    .text.HAL_Delay:00000024 $d
C:\Users\7636~1\AppData\Local\Temp\cce1iPIx.s:487    .text.HAL_SuspendTick:00000000 $t
C:\Users\7636~1\AppData\Local\Temp\cce1iPIx.s:493    .text.HAL_SuspendTick:00000000 HAL_SuspendTick
C:\Users\7636~1\AppData\Local\Temp\cce1iPIx.s:512    .text.HAL_ResumeTick:00000000 $t
C:\Users\7636~1\AppData\Local\Temp\cce1iPIx.s:518    .text.HAL_ResumeTick:00000000 HAL_ResumeTick
C:\Users\7636~1\AppData\Local\Temp\cce1iPIx.s:537    .text.HAL_GetHalVersion:00000000 $t
C:\Users\7636~1\AppData\Local\Temp\cce1iPIx.s:543    .text.HAL_GetHalVersion:00000000 HAL_GetHalVersion
C:\Users\7636~1\AppData\Local\Temp\cce1iPIx.s:557    .text.HAL_GetHalVersion:00000004 $d
C:\Users\7636~1\AppData\Local\Temp\cce1iPIx.s:562    .text.HAL_GetREVID:00000000 $t
C:\Users\7636~1\AppData\Local\Temp\cce1iPIx.s:568    .text.HAL_GetREVID:00000000 HAL_GetREVID
C:\Users\7636~1\AppData\Local\Temp\cce1iPIx.s:585    .text.HAL_GetREVID:00000008 $d
C:\Users\7636~1\AppData\Local\Temp\cce1iPIx.s:590    .text.HAL_GetDEVID:00000000 $t
C:\Users\7636~1\AppData\Local\Temp\cce1iPIx.s:596    .text.HAL_GetDEVID:00000000 HAL_GetDEVID
C:\Users\7636~1\AppData\Local\Temp\cce1iPIx.s:613    .text.HAL_GetDEVID:0000000c $d
C:\Users\7636~1\AppData\Local\Temp\cce1iPIx.s:618    .text.HAL_DBGMCU_EnableDBGSleepMode:00000000 $t
C:\Users\7636~1\AppData\Local\Temp\cce1iPIx.s:624    .text.HAL_DBGMCU_EnableDBGSleepMode:00000000 HAL_DBGMCU_EnableDBGSleepMode
C:\Users\7636~1\AppData\Local\Temp\cce1iPIx.s:641    .text.HAL_DBGMCU_EnableDBGSleepMode:0000000c $d
C:\Users\7636~1\AppData\Local\Temp\cce1iPIx.s:646    .text.HAL_DBGMCU_DisableDBGSleepMode:00000000 $t
C:\Users\7636~1\AppData\Local\Temp\cce1iPIx.s:652    .text.HAL_DBGMCU_DisableDBGSleepMode:00000000 HAL_DBGMCU_DisableDBGSleepMode
C:\Users\7636~1\AppData\Local\Temp\cce1iPIx.s:669    .text.HAL_DBGMCU_DisableDBGSleepMode:0000000c $d
C:\Users\7636~1\AppData\Local\Temp\cce1iPIx.s:674    .text.HAL_DBGMCU_EnableDBGStopMode:00000000 $t
C:\Users\7636~1\AppData\Local\Temp\cce1iPIx.s:680    .text.HAL_DBGMCU_EnableDBGStopMode:00000000 HAL_DBGMCU_EnableDBGStopMode
C:\Users\7636~1\AppData\Local\Temp\cce1iPIx.s:697    .text.HAL_DBGMCU_EnableDBGStopMode:0000000c $d
C:\Users\7636~1\AppData\Local\Temp\cce1iPIx.s:702    .text.HAL_DBGMCU_DisableDBGStopMode:00000000 $t
C:\Users\7636~1\AppData\Local\Temp\cce1iPIx.s:708    .text.HAL_DBGMCU_DisableDBGStopMode:00000000 HAL_DBGMCU_DisableDBGStopMode
ARM GAS  C:\Users\7636~1\AppData\Local\Temp\cce1iPIx.s 			page 29


C:\Users\7636~1\AppData\Local\Temp\cce1iPIx.s:725    .text.HAL_DBGMCU_DisableDBGStopMode:0000000c $d
C:\Users\7636~1\AppData\Local\Temp\cce1iPIx.s:730    .text.HAL_DBGMCU_EnableDBGStandbyMode:00000000 $t
C:\Users\7636~1\AppData\Local\Temp\cce1iPIx.s:736    .text.HAL_DBGMCU_EnableDBGStandbyMode:00000000 HAL_DBGMCU_EnableDBGStandbyMode
C:\Users\7636~1\AppData\Local\Temp\cce1iPIx.s:753    .text.HAL_DBGMCU_EnableDBGStandbyMode:0000000c $d
C:\Users\7636~1\AppData\Local\Temp\cce1iPIx.s:758    .text.HAL_DBGMCU_DisableDBGStandbyMode:00000000 $t
C:\Users\7636~1\AppData\Local\Temp\cce1iPIx.s:764    .text.HAL_DBGMCU_DisableDBGStandbyMode:00000000 HAL_DBGMCU_DisableDBGStandbyMode
C:\Users\7636~1\AppData\Local\Temp\cce1iPIx.s:781    .text.HAL_DBGMCU_DisableDBGStandbyMode:0000000c $d
C:\Users\7636~1\AppData\Local\Temp\cce1iPIx.s:786    .text.HAL_EnableCompensationCell:00000000 $t
C:\Users\7636~1\AppData\Local\Temp\cce1iPIx.s:792    .text.HAL_EnableCompensationCell:00000000 HAL_EnableCompensationCell
C:\Users\7636~1\AppData\Local\Temp\cce1iPIx.s:809    .text.HAL_EnableCompensationCell:0000000c $d
C:\Users\7636~1\AppData\Local\Temp\cce1iPIx.s:814    .text.HAL_DisableCompensationCell:00000000 $t
C:\Users\7636~1\AppData\Local\Temp\cce1iPIx.s:820    .text.HAL_DisableCompensationCell:00000000 HAL_DisableCompensationCell
C:\Users\7636~1\AppData\Local\Temp\cce1iPIx.s:837    .text.HAL_DisableCompensationCell:0000000c $d
C:\Users\7636~1\AppData\Local\Temp\cce1iPIx.s:842    .text.HAL_GetUIDw0:00000000 $t
C:\Users\7636~1\AppData\Local\Temp\cce1iPIx.s:848    .text.HAL_GetUIDw0:00000000 HAL_GetUIDw0
C:\Users\7636~1\AppData\Local\Temp\cce1iPIx.s:863    .text.HAL_GetUIDw0:00000008 $d
C:\Users\7636~1\AppData\Local\Temp\cce1iPIx.s:868    .text.HAL_GetUIDw1:00000000 $t
C:\Users\7636~1\AppData\Local\Temp\cce1iPIx.s:874    .text.HAL_GetUIDw1:00000000 HAL_GetUIDw1
C:\Users\7636~1\AppData\Local\Temp\cce1iPIx.s:889    .text.HAL_GetUIDw1:00000008 $d
C:\Users\7636~1\AppData\Local\Temp\cce1iPIx.s:894    .text.HAL_GetUIDw2:00000000 $t
C:\Users\7636~1\AppData\Local\Temp\cce1iPIx.s:900    .text.HAL_GetUIDw2:00000000 HAL_GetUIDw2
C:\Users\7636~1\AppData\Local\Temp\cce1iPIx.s:915    .text.HAL_GetUIDw2:00000008 $d
C:\Users\7636~1\AppData\Local\Temp\cce1iPIx.s:933    .data.uwTickFreq:00000000 uwTickFreq
C:\Users\7636~1\AppData\Local\Temp\cce1iPIx.s:940    .data.uwTickPrio:00000000 uwTickPrio
C:\Users\7636~1\AppData\Local\Temp\cce1iPIx.s:927    .bss.uwTick:00000000 uwTick
C:\Users\7636~1\AppData\Local\Temp\cce1iPIx.s:923    .bss.uwTick:00000000 $d
C:\Users\7636~1\AppData\Local\Temp\cce1iPIx.s:936    .data.uwTickPrio:00000000 $d

UNDEFINED SYMBOLS
HAL_SYSTICK_Config
HAL_NVIC_SetPriority
SystemCoreClock
HAL_NVIC_SetPriorityGrouping
